S01200004B4B48756D616E426F64792E733337C5
S3150000000060B30020C9D2020069B80000E1D0020046
S31500000010A70A0A010001000004180FAC20690001BC
S3150000002000000000000000000000000000000000CA
S3150000003000000000ECD802000000000000000000F4
S315000000400000000000000000FFFFFFFFFFFFFFFFB2
S31500000050FFFFFFFF00700700120000000000000015
S31500000060FFFFFFFFFFFFFFFF28000000000000006A
S31500000070000000000000000000000000000000007A
S315000000800000000000000000ECFF0020ECFF002054
S3150000009060B30020061303009AD3020000AA0020D2
S311000000A0341600200000080000000000DC
S3150000010060B30020C9D2020069B80000E1D0020045
S3150000011023450200E5D00200E9D0020000000000FD
S31500000120000000000000000000000000577C0000F6
S31500000130EDD0020037600000378200008391000096
S315000001403F4502007DA60200BD200000F5D002005A
S315000001502DA10200B5A6020083A6020085A6020014
S315000001607FA6020071D002006D820200492F0000B6
S31500000170F5D00200F5D00200F5D002005BD10200F6
S31500000180039F0000F5D002008D82020017CE020008
S31500000190F5D00200F5D00200F5D00200F5D002003D
S315000001A0F5D00200F5D00200F5D00200F5D002002D
S315000001B0B7A6020081A6020005C102007BD9000095
S315000001C0E7A60200F5D00200FDD10200F5D002003C
S315000001D0F5D00200F5D00200F5D00200F5D00200FD
S315000001E0F5D00200339F0000B3A60000F5D0020050
S315000001F0F5D00200F5D0020000000000001203480E
S31500000200016830BF41F000410160704700BF4C31CA
S315000002100E40000038B504460D46104600F0D9F8E9
S3150000022000202070A847BDE8314000F0E0B8002269
S315000002304D494E48EEE700224D494E48EAE7002276
S315000002404D494E48E6E770B5044616460D4630461B
S3150000025000F0C4F8002020703046A847BDE8704082
S3150000026000F0C5B8012246494648ECE70122464956
S315000002704648E8E7012246494648E4E780B50120BA
S3150000028000F0ECF9444800F07DF94449087001BDDE
S3150000029080B500F0FBF9012805D040480078BDE89C
S315000002A0024000F05AB901BD30B5002400E0641CDC
S315000002B03B4D2D88E3B2AB420FD2E4B20C25394B4D
S315000002C015FB04F52B441D78854201BF5D888D42E0
S315000002D01D799542EBD1184630BD002030BD80B562
S315000002E019B900F0B7F8002002BDB1F1004F02D2F3
S315000002F000F0BBF8F7E7022002BDB1F5000F3CBFE6
S315000003000902FFF7ECBF0220704770B504461D4690
S31500000310FFF7CAFF06000ED0204600F002FD50B1DE
S31500000320B0682946FFF7DBFF28B904987071059875
S31500000330B071002070BD022070BD1CB5009313463D
S31500000340049C0194012205E01CB500931346049C0D
S3150000035001940022FFF7D9FF16BD80B50023009354
S31500000360FFF7F2FF02BD0000D7B30100C4C00020B2
S31500000370E99E0000CCC00020691B0200D4C000200A
S31500000380EB7E0200ACC00020F3900100B4C0002058
S31500000390DFBB0100BCC0002098B30020FBFE00209C
S315000003A084BB002074B3002080B5FFF77DFF20B129
S315000003B0806800210170002002BD022002BD0122DA
S315000003C0F2E70022F0E770470C490D48086000206C
S315000003D0704700B1702070470020704780B500F06C
S315000003E013F8FF2801D1A32002BD002002BD002082
S315000003F07047704700BF034800787047D8C5002093
S315000004002E0E0300DCC2002080B500F095FCFF280C
S3150000041018BF002002BD002101707047007800B1AE
S315000004200120704700F016B8FFF759BFFFF765BF08
S3150000043038B54478456800F09FFE0C214C438A4944
S315000004408A4B0A59521B9A4238BF0D51BDE83240B9
S3150000045000F098BE10B5044600F0CAFE60600420A5
S3150000046020702046BDE81040E2E738B504460D4648
S3150000047000F0BEFE2D186560012020702046BDE804
S315000004803240D5E710B50446207860B1042806D07E
S3150000049000F0AEFE6168754B421A9A4201D2002006
S315000004A010BD081A10BD4FF0FF3010BD70B50446E0
S315000004B000F09EFE054600F05FFE064660680022DC
S315000004C06FF0004100F007F8451925603046BDE899
S315000004D0704000F057BEF8B505460E46144600F0CB
S315000004E087FE024600239CB1FF20207010E00878AA
S315000004F060B1042811D048685C4F111AB9420CD378
S31500000500801AB04202D2064604B123705B1C08353D
S3150000051029680029EBD13046F2BD04B123700020D2
S31500000520F2BD70B5054600F063FE0646504C10E07D
S31500000530017869B1042904D041684C4A711A914284
S3150000054006D2042303702060696888470020206073
S31500000550083528680028EBD170BD10B5044600F0B8
S3150000056047FE0C225443404A404B1159401A9842C8
S3150000057007D214446068FFF7D4FF2046BDE8104058
S3150000058094E710BD70B53B4E3B4A1378044670782D
S31500000590984204D35FF0F60138A000F095FE757816
S315000005A0314A691C71702B460C204343D118012631
S315000005B04C600E7200E0457054F8080B0028FAD122
S315000005C00846FFF773FF284670BD0000F8B54FF0E8
S315000005D0FF3100910C24244D05F1080160430022EF
S315000005E00A54244B93F8000068B300F063FF20B967
S315000005F040F22F1121A000F067FE00F0F9FD02463F
S3150000060000261C4BDFF864C05978F0B2884211D23C
S3150000061060432958571A674515D305F10807891A03
S31500000620385C80B979B10098814288BF0146009153
S31500000630761CE9E7684600F05DFF10B9684600F0F1
S31500000640FEFD0120F2BD00F05EFF0020F2BD0C2190
S31500000650054B484318440122027270470549087049
S31500000660704703480068704710F8002001000080BA
S315000006704CF80020F9FE00205C0E03006576656EDE
S31500000680742D636F6E74726F6C2E6300024800786F
S3150000069070470149087070474BFF0020DFF8F809E2
S315000006A0DFF8F819007882B08DF80300DFF8940AB5
S315000006B00088ADF80600DFF8900A0088ADF804005F
S315000006C0DFF8880A00788DF802000020ADF80000F7
S315000006D0012008709DF80310DFF8740A9DF80120C8
S315000006E00170BDF806104180BDF8041081809DF8A8
S315000006F002108171DFF85C1A01EBC20181609DF87E
S315000007000010017302B0012141737047DFF88C09B4
S3150000071000787047DFF8381A01EB0010407B00F0D4
S3150000072001007047412818BF422801D101207047B7
S3150000073000207047432818BF442801D10120704784
S3150000074000207047F8B515461E46079B069A0446D4
S3150000075000F077FA60B1042100F082FC070007D0B0
S315000007602046FFF73BFE324629462046B8478FE033
S31500000770F1BD2DE9F04383B00446160098461EBF2E
S315000007800A9F002F5FEA08000D461ED038780C9BA2
S315000007907188000730794CBF4022802200F051FA60
S315000007A098B1082100F05CFC814670B13079FFF702
S315000007B015FE0B980190009743463246294620467F
S315000007C0C847BDE8F743FFF712BEBDE8F783F8B5A3
S315000007D000F039F8D0B121000BD1022100F040FC25
S315000007E0040013D02846FFF7F9FD31462846A047F6
S315000007F00BE0102100F034FC070007D02846FFF775
S31500000800EDFD224631462846B84741E0F1BDF8B530
S3150000081000F019F808B98620F2BD00278CB920210E
S3150000082000F01EFC04000CD02846FFF7D7FD0998FF
S31500000830089B079A009031462846A0470746FFF7CF
S31500000840D6FD3846F2BD1646069C1A460546234690
S31500000850F7E1F8B50446A5682078FFF7BFFD002646
S3150000086012E02868F6B2142111FB06F14718207829
S31500000870398800F055FE0121384600F0F1FB0100F1
S315000008801CBF20788847761C2979F0B28842E8D3C5
S31500000890BDE8F140FFF7ABBD70B50024DFF8B058F6
S315000008A0DFF8F86708E0FFF735FF20B1E4B205EBA3
S315000008B00410FFF7CEFF641C3178E0B28842F2D311
S315000008C070BD10B586B000248DF80800ADF80A108A
S315000008D08DF80C30ADF80E20019400940023089892
S315000008E0ADF81000002201A902A800F094F80198C2
S315000008F006B010BD2DE9F0471746089C97F8029000
S31500000900824620000E4698460CBFFD78254648468E
S31500000910FFF708FF30B16A1ED2B23146504601F0E9
S3150000092016F91FE04846FFF705FF30B1AA1E92B23E
S315000009303146504601F023F914E0B8F1000F06D114
S31500000940200004D0F878844238BF89200BD3F97888
S315000009501EB9504601F0D4F904E00A463146504625
S3150000096001F0D2F90020BDE8F08710B5002301E0C0
S31500000970001D5B1C9CB28C4204D204889442F7D1C1
S31500000980408810BD002010BDDFF8CC17401A0C219E
S3150000099090FBF1F082B20021DFF8C007E5E702889C
S315000009A0B2F57C4FA8BF00F002B80846ECE7DFF8C6
S315000009B0B017401A142190FBF1F082B20021DFF843
S315000009C0A407D2E710B50C460188638899420DD179
S315000009D0027B23791A4209D0B1F57C4F04DBFFF77D
S315000009E0E6FF2189884201D1012010BD002010BDFB
S315000009F010B514460A88E3889A420AD10288B2F5ED
S31500000A007C4F04DAFFF7CBFF2189884201D1012010
S31500000A1010BD002010BD2DE9FA4F83B00446934661
S31500000A200025002603E0C0884519ADB2761CDFF824
S31500000A306C160978F0B2884280F0B880F6B23101BF
S31500000A40DFF80C07DFF808270844515C2278806835
S31500000A509142E8D100903046FFF75CFE0028E5D0D1
S31500000A604FF0000A05E0B8F80A004519ADB20AF1E0
S31500000A70010A009909795FFA8AF08842D6D200986D
S31500000A805FFA8AFA0068142111FB0AF100EB0108EB
S31500000A9021464046FFF796FF0028E4D04FF00009B4
S31500000AA008E038793021084202D1F8782D18ADB225
S31500000AB009F10109B8F808101FFA89F08842D6D260
S31500000AC0D8F804001FFA89F90C2101FB09F147182F
S31500000AD0224639464046FFF78BFF0028E1D00398AF
S31500000AE000B107603879800610D5DFF86C06002162
S31500000AF006E00279920602D5C278891889B20C30CE
S31500000B00B842F6D3DFF86006461802E0DFF85C0666
S31500000B1046190E9D28001DD039464046FFF73FFF77
S31500000B2002463B886188207800F0F6FCDA4620B35E
S31500000B303879C00630D5002D394640461FD0FFF71C
S31500000B402EFF0346CDF800B0618820783A4600F0C3
S31500000B50F8FC2CE0BBF1000F08BF002027D0394677
S31500000B604046FFF71CFF02463B886188207800F06C
S31500000B70D1FCB24600285E46DAD17E2017E0FFF7A8
S31500000B800EFFF9780191CDF800B003466188207810
S31500000B903A4600F0D4FC0AE0BDF8100000902B465F
S31500000BA03A4651463046FFF7A5FE00E0862005B0DE
S31500000BB0BDE8F08F2DE9F8450446884616469A4664
S31500000BC0002503E0397B090616D46D1C2179E8B2AD
S31500000BD088421ED22068EDB2142111FB05F1471898
S31500000BE038884045F1D1310006D0802EEAD0402E1B
S31500000BF0EBD1397B4906E8D5B0F57C4F07DB3846A3
S31500000C00FFF7D5FE504518BF5FEA0A00DDD138462A
S31500000C1000E00020BDE8F28580B5134607E080B508
S31500000C201346402204E080B51346802200E00022ED
S31500000C3000F007F800B1012002BD80B50023402274
S31500000C40F6E770B50C4615461E4600F075F8FF2807
S31500000C5001D1002070BD2146DFF8F44404EB0010FA
S31500000C60334680682A46BDE87040A3E770B50C4657
S31500000C7015461E4600F062F840B933462A4621461C
S31500000C80BDE87040DFF8C804806893E7002070BDB7
S31500000C901346402201E00022FAE72DE9F84F80468C
S31500000CA0894692469B46FFF7CCFF002608B9FF20EF
S31500000CB01AE00027DFF89844DFF8E05300E07F1CD5
S31500000CC02978F8B288420ED2FFB23801205C40453E
S31500000CD009D05B4652464946FFF7C8FF0028EED0CA
S31500000CE0761CF6B2EBE73046BDE8F28F30B500224F
S31500000CF0DFF85C3400E0521CDFF8A0532D78D4B244
S31500000D00AC420CD2D2B214011D5D8542F3D10D0066
S31500000D1003D01C44647BE407EDD5104630BDFF20AC
S31500000D2030BD80B50021FFF7E1FFFF2801D100208B
S31500000D3002BDBDE80240EDE40121D7E70021D5E779
S31500000D40DFF80C140001085C704738B50C46FFF755
S31500000D50F3FF01460020FF291FBFDFF8F42302EB53
S31500000D6001118968002916D0002203E01B0648BF3E
S31500000D702846521C0D79D3B2AB420BD20B68D2B2C5
S31500000D80142515FB02F52B44451C1B7B002CEDD0CE
S31500000D905B06ECE7C0B232BDF8B50C461546FFF768
S31500000DA0CBFF01460022FF291ED0002301E0521C82
S31500000DB05B1CDFF89C0300EB0110DEB2806807794C
S31500000DC0BE4211D20068DBB2142616FB03F630448D
S31500000DD02F00067B02D0760602D4E9E73606E7D571
S31500000DE0D6B2A642E3D1F2BD0020F2BD002109E051
S31500000DF010B50446012100F005F82046BDE8104074
S31500000E0000F0DDBF2DE9F34F87B001F0A2F80690A0
S31500000E100024A248DFF83883007805909DF81C006E
S31500000E20019000E0641C0599E4B28C427BDA0199DA
S31500000E30FF2907D09DF81C00FFF77EFF0446FF2C14
S31500000E4006D177E008EB04100699007B8842E9D1C9
S31500000E504FF0000A4FEA041901E00AF1010A08EB13
S31500000E6009005FFA8AF180680279914257D20068D8
S31500000E705FFA8AFA142111FB0AF145182889B0F5A0
S31500000E80967FC8BF01F04DF9002613E001200090BF
S31500000E9000235A46002102A8FFF7BDFD9DF8200059
S31500000EA038B1BDF80A2018F809103B46584600F03C
S31500000EB087F8761C2989B0B28842CED26868B6B265
S31500000EC00C21714347183879C006F2D418F8090086
S31500000ED08DF8080039462888ADF80A0038794006AA
S31500000EE04CBF802040208DF80C003888ADF80E00ED
S31500000EF02846FFF754FDADF810003979F878490710
S31500000F0006D5D7F808B00328C0DBDBF800B0BDE78C
S31500000F100328B4BF07F1080BD7F808B0B6E7019865
S31500000F20FF283FF47FAF9DF8200018B99DF81C00FC
S31500000F3000F003F809B0BDE8F08F3EB5044601F0B5
S31500000F4008F805460120FFF75FFA012C03D0FF2CB5
S31500000F5008BFA8422BD101237F22242100F028F8C4
S31500000F603020009001AB002200F025F802237F22FA
S31500000F70252100F01DF83120009001AB012200F080
S31500000F801AF808237F22262100F012F8F02000909C
S31500000F9001AB102200F00FF801237F22272100F079
S31500000FA007F82020009001AB112200F004F837BDAD
S31500000FB001A801F0BBB94FF4A061012001F085BA88
S31500000FC030B51C4683B005462079800744D50023FA
S31500000FD0CDE9003305B96D46012908BFB2F5A06F0A
S31500000FE03AD1208858B900F038F840B9207940063F
S31500000FF005D401232A467F21242001F0C7F9208841
S3150000100001280BD100F029F840B92079400605D413
S3150000101002232A467F21252001F0B8F920881028CE
S315000010200BD100F01AF840B92079400605D4082300
S315000010302A467F21262001F0A9F9208811280BD104
S3150000104000F00BF840B92079400605D401232A4662
S315000010507F21272001F09AF937BD2046FFF794BC7F
S3150000106030B5047B012200230C4205D1002030BD9F
S31500001070144218BF5B1C5200D5B28D42F8D30069EA
S31500001080DBB250F8230030BD3949401A8003020C08
S3150000109000213848FFF769BC560E03004AFF0020BE
S315000010A02DE9FE4F0C4600250028607D4FF0010A11
S315000010B007D0010008BF022707D0012804D1012765
S315000010C003E008B9082700E00427DDF83490DDF8CE
S315000010D03CB0A8462648BDF8041000EB88063088C8
S315000010E0884227D1F078384224D0B0789DF838105D
S315000010F088421FD3F178E07BC90607D5D0B13046C8
S31500001100FFF7C2FF218A814201D013E090B9AB45B7
S3150000111003D0BDF83000854202DB4FF0000A0EE036
S315000011200299B07848556D1CB9F80000401CA9F822
S315000011300000ADB208F10108B8F10A0FCADB50464B
S31500001140BDE8FE8F62EF02002C0E0300570E03006F
S31500001150DCC2002010D70200C8D402001CD702004F
S3150000116084D6020018D7020000C50020ECC2002079
S315000011709CD40200C4D40200EFF31180602181F3F5
S315000011801188704780F31188704770477FB500F06B
S3150000119011F818B900F015F801F08EFB04B070BD17
S315000011A07FB500F007F818B900F00BF801F09BFBCB
S315000011B004B070BD0446084615461E4602A901F055
S315000011C08FBC0899099800910190334602992A46E6
S315000011D02046704780B500F00DF880B202BD80B59C
S315000011E000F008F8FA21B0FBF1F080B202BD000071
S315000011F000BF0000E0B501F055FC6A4601F0A1FC15
S3150000120018B14C212BA000F05FF8DDE9000103B016
S3150000121000BD000080B501F0FCFD0121174801F07A
S31500001220C7FF01F019FB20B15FF0570121A000F0C4
S315000012304BF8002002BD1249012008707047FEB528
S3150000124004460025216801B91EE000F00CF808B13B
S3150000125000F002F801201BE00195009500232168AB
S315000012603A46301D92E7064E064F3570002300932E
S3150000127001953A46301D93E70000000030253E00F8
S315000012803CF900203712000000F03DF90020FEBDB9
S3150000129002F080FC307840B92146301D01F092FB07
S315000012A0206801F032FC852501E0002030702060C6
S315000012B02846FEBD73797374656D2D74696D65720C
S315000012C02E63000042DE704738B504460D4602F034
S315000012D0B6FF00F026FF03F03CFE2946204603F049
S315000012E03DFE2B4622466949012003F04EFE294663
S315000012F02046BDE83440E5E765482DE9F047654DF1
S3150000130001682E1D4FF420687165016AB165624956
S315000013100A68F26549683166416A7166816AB16632
S31500001320C16AF166016B3167806B706796F83400AD
S3150000133040074CBFF46BB46B03F054FE0022F2641A
S315000013408442564A014624BFA2F1200AA2452746F6
S31500001350316505F19003DFF848C1DFF848E118D39D
S31500001360A0693064E4697464746DC4F30804062CDF
S3150000137013D1704511D360450FD200884DF64264F3
S31500001380A0420AD13068586040F2017870689860CF
S3150000139003E000273764776407464348814202D258
S315000013A0014600E0091D0846904203D20C68B4F1DC
S315000013B0CD3FF7D03D49081AB0640021002005EB67
S315000013C08004401C0628E167F9D3002003E0C0B280
S315000013D005EB8004E167974223D252F8041D71455C
S315000013E0F9D36145F7D2CC07F5D5002405EB84097E
S315000013F0D9F87C90894502D0641C062CF6D3062CBD
S31500001400E9D1002814BF401E0520E0E7B16F002493
S3150000141005EB8402641CD2F88070D767052CF7D3DD
S3150000142019600146481EC9B20029EFD1706DC0F39C
S315000014300800032810D0042811D0052812D0062849
S3150000144013D00C2817D0122818D119480068800725
S3150000145019D540F2025816E040F6012813E040F68E
S31500001460022810E040F603280DE0B8F5206F0AD1F7
S3150000147040F6042807E040F6052804E018B13F28A6
S3150000148038BF40F607284046BDE8F087E4D9020099
S3150000149004ED00E00000002000E300E060B300205F
S315000014A09AD30200140200009C00002060B30020C2
S315000014B01C200540EFF31080C00706D4EFF311801F
S315000014C060288041C043C00F7047012070477047B5
S315000014D0704770477047704770477047704770474E
S315000014E0704700207047704700207047704770476C
S315000014F0002070470020704770477047704770475C
S31500001500704770477047002080F311887047704716
S3150000151001207047012070470120704770477047CF
S315000015207047002070470020704700207047002059
S315000015307047002070470020704700207047012048
S315000015407047012070470020704700207047002038
S31500001550704700207047B5207047002070477047DD
S315000015607047842070477047002070477047704767
S3150000157070470020704700207047704770477047DB
S3150000158070470120704700207047034800680078C4
S31500001590012808BF02207047D8C5002070470020E8
S315000015A07047012181814FF6FE71C18101210161E0
S315000015B0002101700120704770470020704700200D
S315000015C07047002070477047B5207047002070476D
S315000015D0002070470020704770477047704770477B
S315000015E070470020704770477047704770477047D4
S315000015F080B5FFF7A1FBFF2804D018B9DFF87806FD
S31500001600007802BD002002BDF0B5059D002600272A
S31500001610092D044602D300200021F0BDB4460FE098
S315000016205FFA8CFCA5EB0C0020443F0210F8010C7D
S3150000163047EA1667002110EB06264F410CF1010C14
S315000016405FFA8CF0A842EBD39F4206D828BF964299
S3150000165003D2901B63EB0701F0BDB01A67EB0301E1
S31500001660F0BD10B50168DFF814260B8813804B888F
S315000016705380497911710168097951714FF4AA5162
S31500001680D18001688979890644BF4FF4AB51D18076
S31500001690DFF8EC1583690A783BB9C088DFF8E435D2
S315000016A0188002F0FD00087010BD42F002020A70B8
S315000016B016228169DFF8D045204600F025FB002080
S315000016C0207010BD80B50020FEF783FEFF20FFF7D7
S315000016D08DFBFEF78CFEFFF719F801460122DFF8B5
S315000016E0980503F089FCDFF89435DFF8A025DFF8CC
S315000016F0A005522103F051FDFEF7C0FD03F0B4FD35
S3150000170003F08DFF04F096FC04F096FCBDE8014062
S31500001710FFF7C2B8704780B504F08BFD20B906F01C
S31500001720F7F908B904F00CFAFFF74DFFBDE80140E0
S31500001730FFF755BF10B5044620684079FFF7FCFA5D
S31500001740FF281DD0DFF85015227F01EB0010017B2A
S31500001750914215D1226840881188884206D04FF6FA
S31500001760FF7399420CD1B0F5004F09DA20790228AF
S3150000177018BF032806D111895079FFF7DEFE08B994
S31500001780002010BDA07B0028204603D0BDE81040F5
S3150000179006F040BABDE8104006F066BA38B5144601
S315000017A01A4623785B074CBF052303239A422ED3A0
S315000017B0069D286029710498E880AC60AA8120788B
S315000017C000F00100A8732078800800F00100E8739B
S315000017D02078C00800F00100687501202875E87BB4
S315000017E030B10121204606F003FD297D891C2975AB
S315000017F02882287D411C2975205CA874481CC9B222
S315000018002875C0B2615CE974A989814201D20020C1
S3150000181032BD0598A86100F09CFB2877012032BDF7
S315000018202DE9FE430F46DFF87414DFF87454DFF831
S31500001830648491EC080B85EC080B0B9E02950196CF
S3150000184000240A9900913946FFF7A8FF002864D0C2
S31500001850C8F80050A87CDFF84C1408702846FFF73B
S3150000186000FF284600F0ACFA20BB2EBB042F18BFA1
S31500001870052F03D0022F18BF032F01D1012200E04C
S315000018800022E98828680191418800910121038896
S31500001890E87C00F00BF990B12868807980060ED4B8
S315000018A0DFF80444012020700121284600F0FCF8EE
S315000018B000202070012430E0307D80072DD5286877
S315000018C04079FF2825D10027DFF8B063FEF71EFF19
S315000018D0F9B2814221D2F8B2FFF732FA8146F8B264
S315000018E0FEF718FF98B1286841882A8A4846FFF70C
S315000018F093F960B12846FFF7B4FE286880F8059092
S3150000190086F804902846FFF715FF00B101247F1CD6
S31500001910DCE72846FFF70EFF044606F0E9FB162132
S31500001920DFF8640306F084FC0020C8F800002046B7
S31500001930BDE8FE83DFF874030178491C017001F0ED
S315000019407F00704778B1DFF868130978012903D161
S31500001950018841F0400105E0022904D101884FF6D3
S31500001960BF7211400180704778B1DFF848130A78DA
S31500001970012A04D1DFF8402312780A7001E0022A16
S3150000198003D1017841F010010170704730B5BC4CAD
S315000019902378D90783B001D500203EBDBD490A682A
S315000019A0B64972B112689579AD0603D5CD8845F072
S315000019B02005CD809279520603D5CA8842F04002AE
S315000019C0CA80B34A15786D07B64D2D784CBFD570D1
S315000019D055709B0709D5AD480188AB48FFF7BBFD9D
S315000019E0217801F0FD0121703EBDA64B1C884FF603
S315000019F0FC739C4209DA019000920A46A3480388C8
S31500001A002146002006F052FD3EBD009013469F4839
S31500001A100288204606F03BFD3EBD0020B6E70A469A
S31500001A2001469C48006801E00021F8E770B50446CD
S31500001A300E462079010018BF012815460BD1A06873
S31500001A400078C00601D5300005D0A07B002804BF71
S31500001A50E07C0B2801D1002070BD8C490020088055
S31500001A60607DE17B00280CBF0820002011B906F03C
S31500001A7054FB06E040F0040006F04FFB208A06F017
S31500001A805BFBA07C06F049FB0B2006F046FBE07CE6
S31500001A9006F043FB304606F040FB2046FFF7E1FD2B
S31500001AA02846BDE8704071E70022BFE770B50446DE
S31500001AB0824800781D4601287B4B01D01E7816B15E
S31500001AC00020187070BD82F001020A4301D1002087
S31500001AD070BD00281EBF04984FF65742904206D0AC
S31500001AE00A46014623462846FFF71BFD00B10120A2
S31500001AF070BD000038B5D2885224950648BF4924E7
S31500001B00550544BF083CE4B2150544BF083CE4B2A1
S31500001B10120444BFA41EE4B203284FF6FD7310D886
S31500001B20DFE800F00204080D0B460AE0C8B206F032
S31500001B3019FF02E0C8B207F03FF9034601E0641E50
S31500001B40E4B21846FFF705FD201AC0B232BDB0B5A3
S31500001B5004460D000EBF00202878FF28174601D145
S31500001B602070B0BD284606F053FB874288BF074663
S31500001B703A46691C601C00F0C7F82770B0BDF8B57E
S31500001B800D000446164603D1002060702070F1BD9A
S31500001B902878FF2802BF6878FF2820700DD02846D5
S31500001BA006F03BFB0746BE42B8BF37463A46A91C7D
S31500001BB0A01C00F0A9F8277038126070F1BDF0B5CE
S31500001BC0541E002B37D0052A48DA002500260023AC
S31500001BD00CE0571EFF1AFF000CFA07FC4CEA05053D
S31500001BE011F80EC00CFA07F73E435B1CDFB29742B2
S31500001BF009D2DBB2A4EB030E00280CBF4FF0000C99
S31500001C0010F80EC0E5E7042A0FDAD0000121D20051
S31500001C10401E9140494245FA00F2D20748BF0D43A3
S31500001C2046FA00F2D00748BF0E43AE420FDBB5427C
S31500001C3014DA10E05B1CDDB295420FD2DBB2E51A76
S31500001C4000280CBF0026465D4D5DB54201DA012035
S31500001C50F0BDAE42EEDA4FF0FF30F0BD0020F0BD31
S31500001C600021174A01E0891CC9B2535C8342FAD3AA
S31500001C7050184078704700004FFF002078C50020BC
S31500001C8054FF0020BEF9002060C600204AFA00205A
S31500001C9084C500205CC60020DCC2002020D70200DC
S31500001CA03CC60020ACBB002050FF0020ADBB00208E
S31500001CB051FF002052FF002053FF0020ABBB002045
S31500001CC040D70200283808288041C00F704710F01E
S31500001CD0E00011D0802806D0A02806D0C02806D063
S31500001CE0E02806D007E01C2070471D2070471E2004
S31500001CF070471F207047FF20704700F01F00704795
S31500001D00002203F07DB9704781423ABF53189842CA
S31500001D1007F0FCB98018990707D0521E24BF13F8A4
S31500001D20011D00F8011DF6D8704781071CD1103A35
S31500001D3007D330B433E93210103A20E93210F9D221
S31500001D4030BC1032121F24BF53F8041D40F8041D86
S31500001D50F8D838BF121D521E24BF13F8011D00F813
S31500001D60011DF8D8704700BF083A07D333E90210BF
S31500001D70083A40F804CD40F8041DF7D20832EAE7E5
S31500001D8080B507F0FFF9FFF79DFCBDE8014007F0BD
S31500001D90B5BF80B5FFF7E3FBFFF7BCFC08F078F8AA
S31500001DA008F0B0F8BDE8014004F026B980B5FFF7A9
S31500001DB0D7FB08F0BCF8BDE8014008F0DFB8704773
S31500001DC008F013B908F0C3BA0020704738B50446C6
S31500001DD00D46FFF708FC29462046BDE8344008F0CA
S31500001DE0D2BBFFF7ECBBFFF7F5BB70472DE9F0421E
S31500001DF07D4E7E4C002030703821206806F018FA9F
S31500001E007B4933782268087838256B43D054002202
S31500001E103078216868430844427030782168684306
S31500001E200844827008F0EAFB327821686A430A4463
S31500001E30107208F0E3FB327821686A430A44507254
S31500001E40317820686B4A6943014410786A4AC87041
S31500001E503378216817686B43C818684947610A7860
S31500001E6002763078D4F800C0654A1268074615FB3A
S31500001E7007F30CEB0301CA61624AD2F800902C22E8
S31500001E80574309EB07020CF13407FA5008F0C8FB78
S31500001E903078216801F1340215FB00F551594A6882
S31500001EA00968BDE8F04208F020BC80B592B06A46E9
S31500001EB00021002008F07DFD08B1012018E05249FC
S31500001EC0524A0A910B925249524A0C910D92109124
S31500001ED05148524A5249534B09900F9211910E9311
S31500001EE06A460021002008F08AFC00B10120C0B239
S31500001EF013B000BD80B5002000F01AF828B100200C
S31500001F0000F005F808B1002002BDFF2002BD3748E9
S31500001F10354A0168137838204343C8188078022868
S31500001F201CBF1128432801D10120704700207047AB
S31500001F302E482D4A0168137838204343C818407844
S31500001F4001281CBF0228032801D101207047002068
S31500001F507047002070470020704770470020704788
S31500001F600120704770470020704770477047002077
S31500001F70704780B500F020F820B10020FFF7D8FFA9
S31500001F8000B1012002BD80B500F016F808B10020AE
S31500001F9002BDFF2002BD10B5044600F00DF848B1A1
S31500001FA000F019F84078012818BF022802D10CB9B0
S31500001FB0012010BD002010BD0020A8E780B5FFF766
S31500001FC0FBFF30B100F007F84178032901DA002061
S31500001FD002BDFF2002BD0548034A01681378382078
S31500001FE04343C81870470000D5FF002068B800209A
S31500001FF0C8BB0020C9BB002070B80020C0BB0020B1
S3150000200074B800206CB8002083840100DB14000043
S3150000201099850100C55A02009D83010053380100CD
S31500002020536C0100918701000021002008F0B9BD22
S31500002030002818BF09F082B8704709F011BC09F0F2
S31500002040E3BA33B585B005468DF8042005F0BAFC31
S315000020500446284605F0C6FC7CB10028BDF81800E9
S315000020600FD105F0C7FD8DF80000FF2804BF002141
S315000020708DF80010CDF808D016E0A8B106A8029099
S3150000208012E005F0B7FD8DF80000FF2804BF00211F
S315000020908DF800109DF80000BDF818108DF80C00A2
S315000020A003AAADF80E100292DDE901010A460146C7
S315000020B0284603F0C7FF07B030BD704709F0D4BB10
S315000020C010B584B00121214801F072F801220121E6
S315000020D0012001F03BFB0421072009F0C7FB1C4946
S315000020E01CC9684669461CC001208DF800000D20F9
S315000020F08DF8080003208DF8090001208DF80700EF
S31500002100144C204609F01CFC1349042008600220E8
S315000021106062042011490860A06A40F00200A062D3
S315000021201FBD0C4809F000BCA52803D100210948B1
S3150000213009F0E5BB70470748006800F001007047EA
S31500002140074800680028FBD17047000030253E0094
S31500002150E4E502000020054080E200E000E100E046
S31500002160082005402DE9F04F89B009F024FC08B19C
S31500002170C620D0E0DFF8B842DFF8B86220683168E0
S315000021800AF0B9FF05002CD03268516810689269D0
S315000021901268904731688969896804A88847316858
S315000021A08969C96802208847002506E00068096930
S315000021B002FB050088476D1CEDB23068059A43683E
S315000021C08169B3FBF2F39D42F0D3C96800208847CA
S315000021D03068806940688047316820680AF08BFF64
S315000021E005460026DFF85092DFF85082002D69D1AF
S315000021F0DFF84C02805DF8B1DFF8480250F826702F
S31500002200206801AB6A4639460BF07AF9404508D09A
S31500002210002857D10098012854D0206839460BF081
S31500002220AFF9DFF8240250F8260002682068394624
S315000022300BF0A9F8054645E0DFF8080250F826A09D
S31500002240DFF80802805D8DF80800002705E0019898
S3150000225019F80610884211D17F1C9DF808008742A4
S3150000226018DA00F05BF8404508D00028F4D1009851
S315000022700028ECD0206859460BF082F9DFF8C80137
S3150000228050F8262019F80630206859460AF0F5FF5E
S315000022900500E1D0DFF8B801805D98B1DFF8A40150
S315000022A09DF8087050F826A000E07F1C7F2F09D209
S315000022B000F034F8404505D0206859460BF060F927
S315000022C00500F2D0761C332E90DBDFF888011DB9AD
S315000022D001210170002515E00021002D0170F9D0C3
S315000022E0DFF874012D1A08D06D1E08D0AD1E08D077
S315000022F02D1F0CBFC125C52504E0C22502E0C3255C
S3150000230000E0C4252068007C20B1D321DFF84C0111
S31500002310FEF7DAFF284609B0BDE8F08F07EB0A0B97
S31500002320206801AB6A4659460BF0EAB870B5332906
S31500002330154620DADFF81C21127882B1DFF8F0208A
S31500002340DFF800611468DFF8F820525C42B10246FB
S3150000235056F8211020460BF05EF800B149E070BD3A
S3150000236002467F2D56F8210008BF00254119204658
S315000023700AF0C2FFF1E7FF2903D9BDE870400BF070
S31500002380B3B9BDE8704040F2011136E070B51546AC
S3150000239033281A4621DADFF8BC301B7883B1DFF820
S315000023A09030DFF8A0601C68DFF894301B5C43B106
S315000023B056F820102A6820460AF0E5FF00B118E01A
S315000023C070BD7F2956F8200008BF0021134641182A
S315000023D02A4620460AF051FFF0E7FF2804D929468D
S315000023E0BDE870400BF0A2B9BDE870404FF49A7199
S315000023F003E0BDE870400BF0F7B9DFF86000FEF7C8
S3150000240063BFDFF85010097801B9704780B5DFF86F
S31500002410341051F82010DFF81800006800220BF085
S315000024202DF818B1BDE802400BF0DEB901BD000081
S3150000243090B40020B0B40020A4EB02000BE000F042
S315000024403CEB020070EA020080EE0200D8EB0200CC
S3150000245070EB02008EFF002001E000F01CE6020097
S315000024602DE9F04786B00F9F109D0E9C02950197AF
S3150000247006468A46904699460094FFF749F818B1F1
S31500002480022803D002D310E001200EE00CBF012089
S3150000249000200021049103900295019700944B4679
S315000024A042465146304600F0FDF806B0BDE8F087DA
S315000024B010B586B00024049401240394099C029468
S315000024C0089C0194002400940FE010B586B000F03B
S315000024D002F8402309E000240494019301240394A4
S315000024E00023089C00930294704700F0DBF806B0C6
S315000024F010BD10B586B001240494002403940A9CF0
S315000025000294099C0194089C0094EEE71FB5089C70
S315000025100394079C0294069C0194002400940CE00A
S315000025201FB500F002F8402307E00024019303944E
S315000025300023069C00930294704700F06DF904B0E6
S3150000254010BD2DE9F44F84B01D46DDF838800646EF
S315000025508A4643462A46FEF774FB00240700BDF868
S3150000256010008DF80060A346D946ADF802A08DF89C
S315000025700450ADF80600ADF8088049D069463846E3
S31500002580FEF720FA002843D0DDF83C80DDF840A0B5
S31500002590002505E005F0C1FD641C09F101096D1C6B
S315000025A03989A8B288422BD27868ADB20C2169432A
S315000025B046183888B0F57C4F09DA3088ADF8060041
S315000025C06A4631463846FEF713FA0028E7D03088C7
S315000025D0BDF81020904238BF0BF1010BDDD3A1B23C
S315000025E04145DAD205F0A8FDB07805F096FD5FEA20
S315000025F00A00D1D03079C0074CBF07200520C9E7B3
S315000026001FFA8BF111FA84F01FFA89F1884201D181
S31500002610012000E0002005B0BDE8F08F70B5C6B01F
S3150000262015464B9C052C2FDB04AA0392FF2202922F
S3150000263005AA01924A9A00922A4600F0EDF8060091
S3150000264024D19DF81000FF2205A90BF0DFF8060043
S315000026501AD0201FB04217DB284605F06DFD00207A
S3150000266005F05BFD9DF810000C4C05F056FD258825
S31500002670C5F152018E4207DA094B324605A95819AF
S31500002680FFF742FB7019208046B070BD284605F062
S3150000269053FD304605F041FDF6E700004AFA0020FA
S315000026A084C500202DE9F04F89B0814600200490B2
S315000026B000908A46129C934698468DF81490ADF881
S315000026C016A08DF81880ADF81AB0ADF81C4000239E
S315000026D0002204A905A8FEF79EF9049808B98620E9
S315000026E08DE0159868B904999DF85000897888425C
S315000026F018BF8D20F4D104980079C00758BF8820F0
S315000027007DD504980079139D400725D504988068E7
S3150000271040680290049880688068019004988078E8
S31500002720FFF7D0FA06460498C0788DF80000032813
S315000027303346024629461DDA02A8FFF740FA074645
S315000027409DF800203346294601A8FFF738FA012FE5
S3150000275018BF10F1010F1CD0169800284ED104980E
S3150000276080784FF6FF7229460BF050F8060012D11A
S31500002770012044E00298FFF722FA012809D09DF8CB
S315000027800020019833462946FFF719FA10F1010F88
S31500002790E2D1872033E00395C0B200F033F8FEF7AC
S315000027A00CFF01002BD10395F0B200F02BF8FEF7D9
S315000027B02EF8010023D10120009000232A46002193
S315000027C005A8FEF728F9010019D1049B524649468F
S315000027D02846FEF7F5FB029500F015F803F0C0F960
S315000027E00395F6B2029600F00EF8FEF7E5FE0094A9
S315000027F043465A4651464846FDF7E9FF002009B0D0
S31500002800BDE8F08F0290009443469DF85000019079
S315000028105A4651464846704710B586B000248DF892
S3150000282008008DF80C30ADF80E20ADF80A100194B2
S31500002830009401A908980A9B099AADF8100002A80D
S31500002840FEF7E9F8010004D10B9911B1019A9278CB
S315000028500A7006B010BD704738B5FEF78DFCDFF87C
S3150000286060550446287828BBDFF858150860DFF85D
S3150000287058150860DFF8541508800AF0F3FF0120A8
S315000028800BF04BF80BF092F80200DFF844050260FB
S3150000289004D12046FEF776FC232032BDDFF834054E
S315000028A040F2E73100230BF09FF8DFF82C150860A3
S315000028B001202870204681E0F0B585B000F028F8A8
S315000028C00CB922200DE003A9204600F05FF89DF820
S315000028D00C0008B1032004E000F013F8002200F019
S315000028E022F805B0F0BDFEB504000D4616461F469B
S315000028F001D12220FEBD00F020F800F017F80022DA
S315000029000EE00B980290009733460A9801907047A4
S31500002910044600200D4616461F468DF80C007047EB
S3150000292000F001F8FEBD294620461CE209980290F7
S3150000293000973346089801907047F8B5044600257D
S315000029400CB92220F2BDFEF717FC064600F0F9F995
S31500002950DFF870743868A04208BF0125204600F0F1
S31500002960B7F9040003D000F0B4F82046F2BD386889
S315000029701DB118B100F0C7F903E010B902200AF042
S31500002980D9FF3046FEF7FEFB0020F2BD38B5040045
S315000029900D4618BF002D01D1222032BD002028701F
S315000029A0FEF7EAFBDFF81C14096800E0896829B124
S315000029B02A781AB9A142F9D101212970FEF7E2FB62
S315000029C0002032BD70B506000C4618BF002C01D1A0
S315000029D0222070BDFEF7D0FB054600F0B2F9706903
S315000029E02060DFF8E003006805E0B0B121684269C5
S315000029F0511821608068B042F7D10AF068FFDFF80D
S31500002A00C8633168401A216888420AD20AF05FFF1B
S31500002A102168081A3168081804E000F030F803202D
S31500002A2070BD0020206000F02AF8002070BDF8B5C7
S31500002A3007460C46FEF7A0FB0546DFF8880300684C
S31500002A40002600E08068B0B141698E19C188B9429C
S31500002A50F8D10AF03CFFDFF870733968401AB042CB
S31500002A6005D20AF034FF3968301A0E1800E0002645
S31500002A702660284686E700F002F81B20F2BD2846AD
S31500002A80FEF780BBDFF854030078704738B5FEF7D1
S31500002A9073FB04460AF01BFF05462046FEF772FB51
S31500002AA0284632BD70B5FEF767FB06460AF00FFFF3
S31500002AB00546DFF81803048801200AF04FFF18B115
S31500002AC00AF005FF0546641C00F003F82146284677
S31500002AD070BD3046FEF756BBDFF8F402006870475B
S31500002AE010B50C46BC49096881420CD3B84909683F
S31500002AF0A1FB00014FF47A7200230AF075FF401C17
S31500002B002060002010BD212010BD70B54FF47A71F1
S31500002B10A1FB0045AE480668304600F067F900287C
S31500002B202046294607D0B6FA86F2BDE87040C2F1C3
S31500002B301F020AF0D1BF3246BDE8704000230AF0FA
S31500002B4053BFF8B5A64B16469942A64A20D828BFC9
S31500002B5090421DD24FF47A72A2FB00459C4807684A
S31500002B6002FB0155384600F041F900282046294667
S31500002B7006D0B7FA87F2C2F11F020AF0ADFF03E0F2
S31500002B803A4600230AF030FFC6E900010020F2BDF4
S31500002B902120F2BD2DE9F0470546E807DFF824823B
S31500002BA00AD58A480188491C018000F0CAF8D8F87D
S31500002BB0000008B100F0A7F8A80763D50AF087FE61
S31500002BC0814F054638680024A2462E1A38E0314661
S31500002BD004463D604269914209D3037994F804C0E2
S31500002BE0634538BF04468068891A0028F2D14846F2
S31500002BF0FEF7C8FA6069A6EB000900206061FEF7DF
S31500002C00BBFA0646204600F063F8FFF762FF20692C
S31500002C1040B1FEF7B1FA06462169204600F034F8C5
S31500002C20FFF757FFE268100002D021682046904760
S31500002C300AF04DFE00EB09014E1B0AF1010A05469A
S31500002C40FEF79AFA8146D8F8000010B141698E4223
S31500002C50BDD2BAF1010F644A03BFE18802290121FE
S31500002C600021117030B14169891B41613D6000F05E
S31500002C704AF802E002200AF05DFE4846BDE8F04749
S31500002C80FEF780BABDE8F087F0B54E4A4161136899
S31500002C90D3B100245D69A94206D22DB14E1B09D1DC
S31500002CA01E790779BE4205D2491B41611C469B68C5
S31500002CB0002BEFD1002C14BFA06010601A0005D0C5
S31500002CC05C69611A596101E0106000228260F0BD02
S31500002CD03C4A1368002101E019469B68002B18BF87
S31500002CE08342F9D1834201D00220704783680029CC
S31500002CF014BF8B601360816819B14A6940698018F6
S31500002D0048610020704738B52E4C2F48216800686E
S31500002D1049690D1802200AF000FE28460AF0DAFD7D
S31500002D2020680021002283799B0701D5012205E056
S31500002D30806818B1436959180229F4D327480270EC
S31500002D4031BD10B50AF0C3FD1E491F4A096841B1DD
S31500002D5013684C69C31A9C422EBFE31A001B00235A
S31500002D604B61106010BD70B504460598207115467C
S31500002D700498206025610020A060E3600E46069856
S31500002D80E0804EB900206061E268100002D0216840
S31500002D90204690478DB12E46FEF7EEF90546FFF721
S31500002DA0D0FF31462046FFF76FFF06480068A04275
S31500002DB008BFFFF7A8FFFFF762FE002070BD000006
S31500002DC088FF0020E0D20020E4D2002022FF00206D
S31500002DD0DCD2002018FCFFFFE8D2002089FF00208B
S31500002DE037894100F0A7C64B8AFF002020B1411E5B
S31500002DF0084201D10120704700207047002807D4FF
S31500002E00012100F01F029140724A400942F8201049
S31500002E10704730B57048714D0FC887B003AC84E871
S31500002E200F0068460021002200230EC002208DF804
S31500002E30060001216A486B4C00F0BAF96A46002187
S31500002E4020460AF0AFFE4FF6FF70E06100208DF8D5
S31500002E500E0003A920460AF061FE634800F0D8F987
S31500002E609DF80E1001228A40491C8DF80E10B0FB09
S31500002E70F2F0C9B20B29286002DA5C498842E8D22E
S31500002E805B4800F0C5F95B492A68B1FBF0F35A4884
S31500002E900021E3FB0201594A00230AF0A5FD584927
S31500002EA00860002057490870A06920F01000A06152
S31500002EB00B20FFF7A3FF54494FF40060086007B0EA
S31500002EC0002030BD38B500F033F804460D4605E065
S31500002ED04FF6E85000F053F800F024F800218D4238
S31500002EE04FF6E950F4D88442F2D2A0B200F047F887
S31500002EF0002032BD38B500F01BF804460D4605E04B
S31500002F004FF6E85000F02AF800F00CF800218D4248
S31500002F104FF6E950F4D88442F2D2A0B200F01EF87F
S31500002F20002032BD39484FF0FF3124184D4170471B
S31500002F302A49314A09680023E0FB01231046194655
S31500002F402E4A00230AF050BD31480168C90604D54F
S31500002F501021816001202B4908707047010081B063
S31500002F600BD02C490A6892B20B68ADF80030BDF858
S31500002F7000309B1A9BB28342F6D301B0704738B536
S31500002F80050024D0FEF7F8F8234C1D4A2169126883
S31500002F90954238BF1546691889B22165102121600E
S31500002FA0616841F010016160FEF7ECF81B481549B5
S31500002FB004E0026822F00402026030BF0A78002AA8
S31500002FC0F7D000200870606820F01000606031BD06
S31500002FD00000000080E200E0B0D9020054D30020D7
S31500002FE000020400008001404041050081841E006B
S31500002FF07000020000B0710B20A1070040420F00D4
S3150000300058D300208CFF002000E100E01802FFFFEB
S315000030100C800140248001401480014010ED00E046
S31500003020890001EB401000F184400260704789007E
S3150000303001EB401000F184400068704710B5DFF8DE
S315000030406446A06B400605D412212046FFF7EFFF29
S315000030500028F9D110BD0122DFF8301610B58842DC
S3150000306032BF0022DFF82816884201D2144600E05B
S3150000307002241021DFF81C06FFF7D2FFDFF828062E
S31500003080016821F0807141EA0461016010BD70B5EC
S31500003090DFF80426DFF81C461368002304EBC3059B
S315000030A0CEB22D79B54203D154F83350854202D2BF
S315000030B05B1C052BF2D3052B0EBF032004EBC300CC
S315000030C04079116821F0407141EA0060106070BDDE
S315000030D038B500F013F841F6713020600AF0A9FD0A
S315000030E0002105E038B500F009F841F6713222609A
S315000030F0FFF7CDFF0DB10020206031BDDFF83C4663
S31500003100256805B101257047C01C0F2801D20007AC
S3150000311070474FF07040704738B50446002500F000
S315000031207DF9DFF88825DFF87415944208D0DFF8BA
S315000031308025944206D0DFF86825944204D006E044
S31500003140086802E0486800E0886800F00700401E52
S3150000315004281CD8DFE800F009030D0609000AF070
S31500003160A5FD04E00AF09FFD01E00AF099FD054681
S315000031700DE00AF061FDDFF830150968090E01F06F
S3150000318001010122491C02FA01F1B0FBF1F52846C2
S3150000319032BDDFF8AC154A68D20702D40A6802428B
S315000031A0FCD1704780B500F0E7F8401C02BD000076
S315000031B070B5020A0C4602F00F020021521E092ABF
S315000031C0DFF8845514D8DFE802F005141313071648
S315000031D019131C20DFF8BC54C0F3043611B108469D
S315000031E0FFF7D7FF224631462846BDE8704017E76D
S315000031F070BD1035F0E730350121EDE73835102187
S31500003200EAE740354FF48031E6E7DFF8A857E3E711
S31500003210F8B50646DFF8A004DFF890140768DFF873
S315000032209004DFF87C24DFF88044012516F4781337
S315000032307BD0B3F5003F33D0B3F5802F2AD0B3F55A
S31500003240202F72D0B3F5402F30D0B3F5602F64D065
S31500003250B3F5801F4AD0B3F5A01F30D0B3F5B01F29
S3150000326035D0B3F5D01F42D0B3F5F01F25D0B3F556
S31500003270001F4FD0B3F5101F4BD0B3F5381F2DD01C
S31500003280B3F5401F39D0B3F5481F51D0B3F5781FB9
S3150000329065D06DE00AF0D0FCE168C1F308210AE0D0
S315000032A00AF0CAFCA168C1F3082104E00AF0C4FCD4
S315000032B06169C1F30421491C28E008462AE010464A
S315000032C0FFF72AFF0746206B00F003000DE00846D3
S315000032D0FFF722FF216A01F00F0115E00846FFF70C
S315000032E01BFF0746206AC0F30110C74041E0FFF705
S315000032F013FFA16AC1F3011106E0FFF70DFFA16AF2
S31500003300090A01F00301091D05FA01F1B0FBF1F705
S315000033102FE01046FFF700FF1FE0DFF89C0600F0E5
S315000033207DF8072825D0092822D10AF085FC14E06B
S31500003330DFF8880600F072F804280CD0072818D0A9
S31500003340082815D10AF078FC2168C1F30421491C2C
S3150000335001FB00F70DE00AF08CFC074609E00AF0D5
S315000033606BFC04463046FFF71DFFB4FBF0F700E0A8
S3150000337000273846F2BD0000030903F00F030121C0
S315000033805B1E092BDFF8202345D8DFE803F005078D
S315000033900B1144441317263C106800E05069C0F333
S315000033A0042070471068000E00F00100401C26E063
S315000033B0D06800E09068C0F308207047DFF8003658
S315000033C0984204D0DFF8FC35984204D023E0106A16
S315000033D000F00F0013E0106A09E0DFF8EC359842C0
S315000033E004D0DFF8E835984204D014E0906AC0F3C0
S315000033F0011004E0906A000A00F00300001D01FAC3
S3150000340000F0401E7047DFF8C815884203D1106BE4
S3150000341000F003007047002070470000014601F0ED
S315000034200F010120491E0729DFF8A82554D8DFE837
S3150000343001F00415195327395341506A00F007006B
S31500003440801E052808D8DFE800F043270B03070590
S315000034500B2070470C20704705207047116910E05B
S3150000346002207047516901F00701491E042934D82A
S31500003470DFE801F0120304141600F1E70620704796
S31500003480916901F00701012906D00229E8D0042933
S3150000349004D0052904D07047032070470A207047DE
S315000034A00D207047116811F001010FD0012914D1C8
S315000034B009207047DFF82015096801F0300110294E
S315000034C004D0202904D0302904D070470720704743
S315000034D00420704708207047002070472DE9F84304
S315000034E0804600260324B8F1110F0F46A14612D1DB
S315000034F0042F02D10AF0BDFB08E0052F0BD1DFF83F
S31500003500DC04DFF8DC140068884204D306001CBF24
S3150000351000210AF025FD08F00F00401E0728DFF8FD
S31500003520B45414D8DFE800F004464C9D49819D8BC5
S31500003530022F56480CD0032F2ED0042F2FD0052F44
S3150000354032D00A2F03D00B2F30D00C2F30D088E08A
S3150000355004244FF0000901220121484600F0F6F844
S31500003560FFF7B6FD0EB1FFF769FD6C600AF054FB7C
S3150000357004460AF061FBFFF76EFDFFF75FFDDFF81B
S315000035802401006800F07CF8002E6AD1BDE8F443FF
S31500003590012100200AF0E4BC4FF00109DBE7022418
S315000035A0A146FFF758FDD6E70124FAE70524D2E73E
S315000035B00724D5E705F1100404E005F1180401E03D
S315000035C005F11404012F0AD0022F0BD0032F10D0BF
S315000035D0062F15D00A2F1FD00D2F1FD041E0002037
S315000035E020603EE001220121002000F0AFF8022019
S315000035F0F6E701220121012000F0A8F80120EFE7FB
S315000036000AF01AFBFFF727FD01220221DFF8380135
S31500003610FFF706FD0320E3E70420E1E7012201218D
S31500003620072000F093F80520DAE7072F02D0092FCC
S3150000363002D016E0002000E00120286011E0012FF2
S3150000364006D0042F16D0072F0DD0082F16D008E06D
S315000036500020DFF884130A6822F0300242EA0010E4
S315000036600860BDE8F18301220121042000F06EF814
S315000036700120EEE700F022F80220EAE70320E8E75F
S31500003680000C00F003012046FFF72CBD0148E801BD
S315000036900190D00300400E4004000E4080400E40D2
S315000036A00500240004300E4000410E4002001E00BA
S315000036B0030020002CD90200BCB400200122012105
S315000036C0022043E070B5044600F03CF801220021D8
S315000036D0022000F03BF8217CDFF81053002002297D
S315000036E0296808BF0120490840EA410028600821EE
S315000036F022782846FFF794FCA088617A41EAC02028
S31500003700A860EE68207AFFF7FFFCE28806F07F618A
S3150000371041EAC221A27A1143227A41EAC211084340
S31500003720E860A17B607B090141EA0030E17B084348
S31500003730217B40EA0140286170BD000040000E4038
S3150000374040410E40112069E6B0400E402DE9F84F89
S31500003750072883468A46914635D8DFE800F0504B65
S315000037604104468F8F570125022001260027BAF112
S31500003770000FDFF8D8819D4C72D0BBF1020F02BF5B
S315000037802068C0F3011000284FF0000A0CD19848B9
S3150000379000682068C0074FF0010A05D5206820F0B0
S315000037A0300040F010002060E563394600F069F80B
S315000037B00028FAD0B9F1000F60D000F061F80028B7
S315000037C0FBD0BBF1020F59D1BAF1000F56D02068D9
S315000037D0C0072ED501222021022000F0DAF82CE0C5
S315000037E00425082003260227C1E7102520200526E8
S315000037F00427BCE74025802007260627B7E74FF4B5
S3150000380080754FF4007009260827B0E768460AF06D
S31500003810EDFC9DF801000228BCBF9DF800000328BE
S3150000382006DB4FF480454FF400400F260E279EE737
S31500003830FEE70021022000F08BF8022000F024F8B9
S315000038400746012200210220FFF780FF39460220A9
S3150000385000F034F8E56300F013F80028FBD00DE023
S31500003860E063D8F80000F840C007FAD4B9F1000FB9
S3150000387004D0D8F80000F040C007FAD4BDE8F18FB4
S3150000388031464046FFF7D3BB401E0328554912D8A0
S31500003890DFE800F0020C06080869C0F3080070476C
S315000038A0086800E0886800F07F00704751480068AB
S315000038B0C0F30A00704700207047000070B5401E34
S315000038C00D46032805F07F01464C474E3DD8DFE8FC
S315000038D000F0022A101DC5F308051A213046FFF72D
S315000038E0A6FB0028F9D12069400A45EA402020615C
S315000038F070BD0D4618213046FFF799FB0028F9D117
S315000039002068C00945EAC010206070BD0D46192127
S315000039103046FFF78CFB0028F9D1A068C00945EABC
S31500003920C010A06070BD09480068606920F03000D2
S3150000393040F010006061C5F3C310FFF7E5FB216A94
S315000039402D4A114029430843206270BD90400E4025
S3150000395026480268C2F30112002A18BF002907D0C0
S31500003960202902D0302903D005E04FF4000103E0FE
S315000039704FF4400100E02149C26E0A408A42FBD161
S31500003980490204D5C06F800A00F00100704701208B
S31500003990704710B502280AD10B0004D0184B4FF41B
S315000039A080645C64196012B1BDE81040D0E7012064
S315000039B010BD000050410E4006000E00B800320057
S315000039C08006160080162E0090171A0090273000E9
S315000039D0A009140070400E405C410E40CCB400209B
S315000039E0012D310110400E4040410E4024400E4052
S315000039F03C300E409C400E4000F8FF0FFFF3E17F85
S31500003A0064400E4066480168090C090481606348F9
S31500003A100160704700280FD4624A410952F82120FC
S31500003A2000F01F00C240D20706D55F4A52F82110A7
S31500003A30C14001F0010070470020704780B50AF0D0
S31500003A40EFFB18B18C215948FDF73EFCBDE8044058
S31500003A50574958480AF0C5BC0000000070B5044636
S31500003A6020000D46544E2ED14B4900200860012DF2
S31500003A7008BF01200AF096FD6D1E032D45D8DFE82C
S31500003A8005F00212141F01210120FDF7AFFDFEF71C
S31500003A9052FB307010B1A520FEF746FBBDE8704022
S31500003AA001200AF07FBD022100E004210120FDF77C
S31500003AB09DFDFEF740FB40B3BDE87040FEF740BBFE
S31500003AC0052101201DE0307818B101213B4807F09F
S31500003AD016FF012C0CBF012000200AF064FD641EB5
S31500003AE0032C12D8DFE804F00207090B01200AF0C4
S31500003AF05AFD012104E0022102E0042100E0052133
S31500003B000020BDE87040FDF771BD70BD38B5244892
S31500003B10214DC1680068084084B22C600A20FFF776
S31500003B2079FF18B91220FFF775FF10B144F4803001
S31500003B3028601F20FFF76EFF18B1286840F4003098
S31500003B40286031BD38B50024012808BF01240CD0F7
S31500003B50022814BF0328022407D0042808BF032420
S31500003B6003D0052808BF0AF0E5F9154D2A460121BC
S31500003B7020460AF002FC0AF029FDFDF7C4FC0AF013
S31500003B807BFB0AF025FD2A462046BDE83840002189
S31500003B900AF0F3BBD6E700006CD3002070D30020F8
S31500003BA01CA4004000E200E000E100E00CE6020098
S31500003BB0D4B4002064D300208DFF002000200540EF
S31500003BC000E6020038B50D46AA88A968044605F045
S31500003BD09DFAE96841B1A8886A88121A2044BDE8AE
S31500003BE0384092B205F092BA31BD38B504460AF0B3
S31500003BF0F5FC0546DFF8840A83780178994212D0ED
S31500003C00DFF8C80A806A641E07D0641E08D0A41EA6
S31500003C1006D0A41E032C03D905E00022194600E0B5
S31500003C2000220AF000FD284632BD2DE9DC4FDFF800
S31500003C309C4A03EA010BD4E9086727EA010926EA48
S31500003C40000802EA000A49EA0B0948EA0A08B945E7
S31500003C5008BFB0450ED0CDE90023C4E90889024665
S31500003C60A06A0B460AF0B8FF20B1BDE8DC4F40F26F
S31500003C70751104E2BDE8D38F78B589B002A80FF6B6
S31500003C800021DFF8484A1C2205F050FAA08BC10734
S31500003C9000F190800121012000F0D1FF0A204FF4AD
S31500003CA028716073ADF80E10DFF8240A0FF6BD1107
S31500003CB0DFF8D05A0AF099FCA06218B940F2B9119F
S31500003CC000F07AF8A06A05210AF0ADFD18B140F2BD
S31500003CD0C11100F071F8A06A0AF0D1FFDFF8A80A56
S31500003CE00168A06A0BF038F800F04FFA0C2610FBBA
S31500003CF006F0ADF81A0000F048FA10FB06F0ADF831
S31500003D00160002A9A06A0BF04DF818B14FF4EB713A
S31500003D1000F052F8A06ADFF8741A00220BF0CBF814
S31500003D2018B14FF4ED7100F047F80320052120701B
S31500003D306170A170002601F055F8E07000F025FAD8
S31500003D40142110FB01F0A08000F01FFAC000E080F3
S31500003D50A6604FF0FF30DFF8382A40F2A113014683
S31500003D60FFF763FFA06ADFF82C1A0BF0F5F8A06ADC
S31500003D7001A90BF079F918B140F2052100F01CF801
S31500003D80A06A042269460AF05CFC042803D040F2CB
S31500003D90092100F011F8694601200BF086F906F0BA
S31500003DA017FC012000F0C5FF0AF016FC01F090F8A0
S31500003DB000F07DFE0AB070BD2846FDF785BA38B51D
S31500003DC0DFF80849A08B820703D54FF4097100F08C
S31500003DD0CAFA00212175FDF7CFF90546A08B4107E8
S31500003DE009D50BF031FB216B401A40F2C5329042E7
S31500003DF001D300F06FFA00F0F2FF607B042820D1B7
S31500003E00FDF7BAF90546A08B41072BD400F0E7FF72
S31500003E10FDF7B2F90546E06A401C0BF019FB00F00D
S31500003E2020000128ACBF062005206073012100F0A8
S31500003E3056FA00F0F8FF00F0D2FFE06AC17861742C
S31500003E4031BD062830D1DFF83408C179FF2937D1D2
S31500003E500BF008FB207C20B3FDF78EF90546A08BFE
S31500003E60410706D504F11400FCF7F4FA284600F0E1
S31500003E70F4BE00F0B4FF207C411E2174FDF77CF9EE
S31500003E800446012100F02BFA00F0CDFF2046FDF795
S31500003E9079F9BDE8384000224FF6FF710420FEF79D
S31500003EA0D0B86073402007E0012809D10020607374
S31500003EB0A06A0AF0C0FB3F20BDE8324000F09FBE7A
S31500003EC031BD70B5DFF80448607B0E46154618B163
S31500003ED040F29A2100F047FA2900E66203D0A17861
S31500003EE011B1012100E00021202000F0A8FEDFF83A
S31500003EF0AC0A01782174002D14BFE07B0020A0736A
S31500003F000420607304F11400FCF7A4FA00F026FA0A
S31500003F10BDE87040DFF8F00A0078FCF798BB2DE9A1
S31500003F20F041FDF729F9DFF8A4578046A88BC105B3
S31500003F3006D5687B10B900F0BAFD01E000F08AF8FA
S31500003F4000210020FFF751FEDFF83067B079FF2728
S31500003F50FF2818D0B07928B9B7710024687B0528E6
S31500003F6011D105E0B079B77101280CBF4C24332478
S31500003F70002068734046FDF705F9204600F03FFE35
S31500003F80FDF7FAF88046687B062833D1F079FF28DA
S31500003F9030D0F079022804D105F11400FCF75AFA62
S31500003FA028E0F07900281CBFF079012826D100F01E
S31500003FB058FE0446F079012818BF00200021002C85
S31500003FC0297518BF0028F77109D00120687364218C
S31500003FD005F11400FCF749FA00F0EDFC0BE06973FB
S31500003FE04046FDF7CFF8002C14BF3F20002000F01C
S31500003FF006FE03E0F7714046FDF7C4F8A88B0006FD
S31500004000C00F05D00021802000F019FE09F0EAFB60
S315000040100BF087FD0024E883D0B1687B012806D128
S315000040200021002029756873012406F05AFE687B7A
S3150000403008B900F03CFDE98B002006F084FE002064
S31500004040E8832CB1687B18B9BDE8F04106F079BE6B
S31500004050BDE8F08100214FF4807000F0F0BD80B51E
S315000040600BF06DFD80E080B500F019F80AF014FF42
S3150000407020B1BDE804404FF4697100E001BDDFF8EE
S315000040800407FDF721B980B500F009F80AF0F5FE3E
S3150000409020B1BDE8044040F2AB31F0E701BD104667
S315000040A00A46DFF8F4360146986A7047DFF8E806F4
S315000040B0417B481E8041C00F7047DFF8DC06417B1C
S315000040C0012901D1012070470020704780B5DFF833
S315000040D0FC15487B18B140F2CB3100F044F900F0F2
S315000040E0E6FC002002BD80B5DFF8AC36986A0A22ED
S315000040F011FB02F10AF0F5FD00B1212002BD80B5E9
S31500004100DFF89416886A0AF010FE0A2190FBF1F097
S3150000411040B202BDDFF864050079704738B5DFF8B4
S31500004120AC55687B002818BF01280C4603D04FF415
S315000041307B7100F018F92146002000F00FF808B94D
S31500004140212032BDDFF834150C71687B10B900F000
S31500004150AEFC01E000F02FFC002032BD80B5DFF898
S315000041606C05806A0AF0C4FB401E8041C00F02BD88
S3150000417080B5DFF82426906A01210AF0CCFA4110B6
S3150000418000EB91708005001602BD80B5DFF83C1586
S31500004190886A0AF06DFB00281FBFDFF8DC1BB1FB45
S315000041A0F0F080B2002808BF012002BD80B5DFF81C
S315000041B01C15886A0AF060FB00281FBFDFF8B81BD1
S315000041C0B1FBF0F080B2002808BF012002BD10B597
S315000041D00C46012100F020F8FFF7D7FF4443DFF833
S315000041E0B8050FF2C143806A012221460AF04AFA55
S315000041F0002010BD10B5DFF8A045A08BC20603D481
S3150000420040F2594100F0AFF800F005F8A06ABDE8A9
S3150000421010400AF045BA0021102000F010BD0BF046
S3150000422013B910B5DFF87045A06A0AF00CFFC00795
S3150000423004D5A06ABDE810400AF00ABF10BD80B5DB
S31500004240DFF85405806A012201210AF0F0F9002105
S315000042502C20FFF7CAFC00F0A3FB0BF043FFBDE8E0
S315000042600240002000F0D8BC38B5DFF8604448B101
S3150000427000F030F8607B01282BD1A06ABDE83240FF
S315000042800AF0D9B9A08B810723D50020A073DFF8E7
S31500004290EC53A879FF2803D040F2EB4100F063F815
S315000042A000F01CF80020A871617B062906D10121C7
S315000042B000F0B5F900212820FFF797FC607B052860
S315000042C006D100212B20FFF790FCA06A0AF0B3F973
S315000042D0C7E131BD0021042000F0B1BC002102205D
S315000042E000F0ADBC38B50C4610B1FFF7F3FF2AE07D
S315000042F0DFF8D853A88B810725D5012C14D1A87BCC
S3150000430090B1401EA873C0B218B90021202000F059
S3150000431096FCFFF7E3FF0420687305F11400FCF731
S3150000432099F800F01BF810E00020A873FFF7D6FFFD
S31500004330D24DA879FF2803D040F2225100F013F89D
S31500004340AC71FDF7D9F8012C07D1BDE83840002241
S315000043504FF6FF712020FDF774BE31BDDFF8A00BCC
S315000043600078FCF774B9DFF81C04FCF7ADBF2DE943
S31500004370F043D64EDFF80C84B06A8DB008AA03214C
S315000043800AF0E3FD0024050003D140F2425100F09B
S3150000439048F99DF82000072863D1B06A04AA294687
S315000043A00AF0DEFD18B140F24C5100F03AF9BDF8C2
S315000043B02210B06A891C04AA89B20AF0D5FD18B188
S315000043C040F2565100F02DF9B06A0094042303AA76
S315000043D029460AF0E7FD042803D040F25D5100F0BB
S315000043E020F90DF10D000BF033F800F0070002285C
S315000043F0A24F2CD100F045FD01460920FFF7F5FB41
S31500004400707B062802BF9DF80F00717C88421DD183
S315000044109DF8190018B940F26E5100F002F90DF13D
S315000044200D000BF015F800F010000128A8BF0124BC
S3150000443021462920FFF7D9FB00F0F0F8FC7100F0C7
S3150000444010FC002802D1B06A0AF0F5F8E0E0BDF8E9
S3150000445022000830012180B20BF0F2FAADF8060016
S3150000446030B900F00EFD01460420FFF7BEFBCFE099
S315000044700BF02BFA054608A9FFF7A4FB681C0AF007
S31500004480E7FF00F0200001282FDB00F0FAFC804651
S31500004490B06A0BF0ACFE002814BF0620052041468A
S315000044A0FFF7A3FB681C0AF0D3FF00F00700032800
S315000044B00AD10922012128460BF0A0FE285C042817
S315000044C008BF4FF0010800D0A0460121FFF703FF07
S315000044D00AF0BAFFB8F1000F306312D0B08B410674
S315000044E00FD500F098F801240BE000F0CAFC014655
S315000044F00920FFF77AFB707B012804BFB06A0AF037
S315000045009AF8BDF822002E18002006F08AFD002138
S315000045108DF8041081464FF6FF78ADF8088001212A
S3150000452028460AF035FF20B17A7901AB41460020D2
S3150000453009E002AA012128460AF05AFF28B97A7929
S31500004540BDF8081001AB06F091FD0BF03FFF4FF0F0
S31500004550010810B99DF8040030B99DF8040008FA66
S3150000456009F108438DF804000DF1060978793070D9
S315000045709DF81A10B170FF219DF81B00F070317183
S315000045800498000C70710498000AB071002C04980D
S31500004590F071687814BF40F0200000F0DF0068700A
S315000045A00027BDF806000BF0A8F9044628469DF83A
S315000045B0041008FA07F211421ED0B8B901212046AC
S315000045C00BF03EFAADF80A00C8B10BF07EF90546CD
S315000045D000200090E3B2BDF80610002228460CF039
S315000045E0CDF8BDF822000DF10A092E187770B9F83A
S315000045F000000BF087FA00207F1C012FD7DDFFF7A4
S31500004600ADFEDFF804040078FCF721F8FCF774FF30
S315000046100DB0BDE8F0830021402010E30021082002
S315000046200DE34046FCF750BE38B500F091FA6A7BC0
S31500004630062A03D040F25F6100F08FFAA88B0107CB
S3150000464003D44FF4CC6100F088FA297C2A20FFF7C6
S31500004650CCFAFFF7E3FF09490220C871A86A09F0FE
S31500004660EAFFBDE83140FCF747BF0000DFF89418C9
S315000046700020487301214FF48070E0E23CB900202D
S3150000468000000000010000000202020264000000B7
S3150000469064000000000000000B0000000FF6A400FC
S315000046A0FCF712BE80B5DFF85C08818BC80603D420
S315000046B040F28161FFF757FEFFF7ADFD002006F0DF
S315000046C00BFCBDE80140FCF717BF0000B8BF002097
S315000046D050B9002038B504468AB0FFF79CFF07A9F9
S315000046E020460AF0FBFB00284AD19DF8240000254D
S315000046F0022837D102A920460AF02BFCBDF80A0091
S3150000470006283DD3BDF80C000621ADF80A10062890
S3150000471024BFADF80C10059502A96846FFF752FABA
S315000047209DF805109DF8040000EB0122DFF8D8176C
S31500004730497992B2002006F0C6FCFF2804BF00208B
S3150000474006F06FFC05F0D3FFD0B9BDF81C0005F0EC
S31500004750B9FFFF2802D005F0B9FF00B1012505F029
S31500004760C8FF05E003280BD107A80CF038F9054669
S3150000477035B120460AF0B0FB10B90121FFF74CFF16
S315000047800BB030BD284F0000D0B40020B8F8002090
S315000047900A00A07FA94C0000B8BF00202DE9F04216
S315000047A0144614F0C00F81461D4605D000F069FB83
S315000047B001460120FFF719FAA00206D548460BF07C
S315000047C016FD10B94846FFF785FFA00305D500F092
S315000047D058FB01460320FFF708FA2002DFF824778A
S315000047E003D50020FFF740FD3BE005F0010300265E
S315000047F0787BB34208D006280CBF01210021262071
S31500004800FFF7F3F9012112E0210105D506280CBFB7
S3150000481001210021262007E014F0085F0BD00628AE
S315000048200CBF012100212720FFF7DFF9022100201C
S31500004830FFF758FD15E005F00401B14203D0002151
S315000048402320FFF7D2F905F00201B14203D000217F
S315000048502420FFF7CAF9002C03D500212520FFF7F5
S31500004860C4F9200748BFFFF782FDE00505D500F033
S3150000487008FB01460420FFF7B8F914F4863F05D07B
S3150000488000F0FFFA01460220FFF7AFF9E00108D574
S3150000489000F0F7FA01460820FFF7A7F90120FFF715
S315000048A0E3FC14F0884F05D000F0EBFA00F07CF83A
S315000048B000F07EF8E00007D500F0E3FA0146062096
S315000048C0FFF793F900F074F8A00704D5B98B080731
S315000048D048BFFFF7A9FE05F02001002399420BD03F
S315000048E000F05EF8B88B010748BFFFF79DFEB88B56
S315000048F0410701D500F05CF805F04001002399421C
S315000049001CBF012000F024FB05F080010023994222
S3150000491037D0484609F085FE022802D0032813D076
S315000049202BE0B88B410705D500F0ABFA00F03CF858
S3150000493000F03EF8B88B810723D5787B06280CBF9C
S3150000494001210021272011E0B88B410705D500F091
S3150000495098FA00F029F800F02BF8B88B810710D5EB
S31500004960787B06280CBF012100212620FFF73DF9A0
S3150000497001210020FFF7B6FC03E040F21771FFF7B4
S31500004980F2FC05F480710023994204D0BDE8F042A0
S315000049900121802053E1BDE8F0820000D3BB002056
S315000049A000210A20FFF721B901460720FFF71DB9AC
S315000049B0FF21012096E47FB56846002100220023EE
S315000049C080E80E00DFF84045DFF8386525788DF879
S315000049D00050FCF7D1FB054660792179884204D165
S315000049E0B06A09F022FE01280AD1217961716A466E
S315000049F0B06A09F083FE18B140F2FA71FFF7B3FC12
S31500004A0000F0EDF97FBD0000E5FF00202DE9F84339
S31500004A1081468846174609F101000AF019FDDFF8BC
S31500004A20E864002500F02000012870783072ACBFE1
S31500004A30012400242100376118BF01250AF010FD6A
S31500004A4030B10AF00BFD01280CBF082010200543E9
S31500004A50DFF8B074B86A8023424649460AF05BFA2A
S31500004A6031797171B86ABA8B930613D506F10802CB
S31500004A7000923B462A4609F02BFE48B121462620E5
S31500004A80FFF7B3F8BDE8F44340F65101FFF7F7BA74
S31500004A90BDE8F18306F108032A4609F009FE00285D
S31500004AA0EBD1BDE8F44300212520FFF79EB870B591
S31500004AB000F04EF8687B18B140F6580100F04DF84A
S31500004AC0FCF75AFB0646A88B10F0060F03D001210F
S31500004AD0FFF7C1FA3AE0FFF7BDFA002006F08CFABC
S31500004AE0022802D1A86A802208E0002006F084FA93
S31500004AF010B101280DD025E0A86A002280210BF014
S31500004B007AFF012000F088F80BF0EEFAFFF753FF6A
S31500004B101CE0A86A09F08FFDA86A09F086FD012845
S31500004B200AD0A86A0122012109F081FD00212C206A
S31500004B30FFF75BF8FFF734FF0BF0D4FA002000F024
S31500004B406BF803E040F6870100F007F830460FE106
S31500004B50DFF8B0530FF2D03470472046FCF7B4BBF1
S31500004B6070B501200BF062FFDFF898530FF2B836EC
S31500004B70A88B0024810703D440F6950100F03CF889
S31500004B80687B062818BF052803D040F6980100F078
S31500004B9033F8E86A18B940F69A0100F02DF8A88BA8
S31500004BA0810646BF4FF47A74012100212220FFF7C7
S31500004BB01CF8FFF7FBFAE96A0A780932504304EB5E
S31500004BC0C004687B06280BD1FFF7DFFA0C2101FB36
S31500004BD00044FFF7EBFA26460446602000FB046417
S31500004BE0E86A0178491EA2B2C9B2FFF70FFFBDE815
S31500004BF0704000200BF01ABF3046FCF765BB10B5BD
S31500004C000446FFF754FF2146002006F06AF8BDE887
S31500004C101040002006F095B810B50446002006F0B6
S31500004C20EBF901280AD1DFF8E4020278944205D0B4
S31500004C3004702046BDE810400BF05FBA10BD38B5D1
S31500004C4004460D46FCF798FADFF8B8128A8B002D59
S31500004C5014BF144322EA04048C83BDE83240FCF7F7
S31500004C6091BA10B5DFF89C42E06A18B940F6FF0128
S31500004C70FFF779FBE06A401C0AF0EAFB00F0070048
S31500004C8003280AD1E06A092201210BF0B7FAE16A8A
S31500004C90085C042801D1012010BD002010BDDFF8FA
S31500004CA070124008085C704710B50C464FF0FF3094
S31500004CB00BF0C0FEDFF84C12241A886A0BF0BAFE1D
S31500004CC0241A14F1630F01DA002010BD14F1240F29
S31500004CD001DBFF2010BD64342402601104EB9064F4
S31500004CE0A404200E10BD80B5FFF7D9F90AF0E3F849
S31500004CF028B1BDE8044040F64811FFF7C0B901BD30
S31500004D00704780B500F0C8F8012801D0012002BD27
S31500004D10002002BD10B5DFF8EC314C000146986A60
S31500004D20224609F08EFCA04201D0002010BD0120D1
S31500004D3010BD70B5DFF8DC510646FCF71DFA2E7083
S31500004D400446DFF8C061B08BC10710D5307B02285E
S31500004D5004DA28B109F03EFCC00501D5012103E0C3
S31500004D602878411E8941C90FB06A0BF037FA2046F0
S31500004D70BDE87040FCF706BA40420F0000207047BD
S31500004D8038B57F28044611D14FF6FF70624D298849
S31500004D90ADF8000002237F22684608F0A5FCBDF8A6
S31500004DA000006FF04A04C10558BF0446FCF7E4F959
S31500004DB005465848534A4470908BC1070CD5107B62
S31500004DC008B16FF07F04906A61B209F082FF18B1F2
S31500004DD040F6B321FFF7C7FA00F001F831BD2846C7
S31500004DE0FCF7D0B910B54B4C94F901107F2904BFDC
S31500004DF07F20FFF7C5FF94F9010010BD414AD17C21
S31500004E00002900D0704780B501231028D37403D041
S31500004E1040F6D721FFF7A7FA00212020FFF70FFF62
S31500004E20BDE801409CE638B5FFF792FEA88B8207E5
S31500004E3003D44FF42E61FFF790FE687B062818BF57
S31500004E40052803D040F6E221FFF787FEE86A18B985
S31500004E5040F6E321FFF781FE0020E87421202F4968
S31500004E60FEF7C3FE10B9BDE8314079E6012807D048
S31500004E70022805D1BDE8344002210020FFF732BAEE
S31500004E8031BD80B500F008F800F00300032801D119
S31500004E90012002BD002002BD1A48806A09F0C5BB88
S31500004EA038B509F099FB0024002510B11C4C0625E5
S31500004EB005E0154801788078814218BF194C2246D2
S31500004EC02B4601B0BDE8304015480621FEF7ADBEC1
S31500004ED038B50C4D0446A88BC10710D5FFF7E0FF87
S31500004EE0002C14BF00220822A86A08210BF083FDBB
S31500004EF028B1BDE8344040F67231FFF7C0B831BD85
S31500004F00D8FF0020B8BF00203CB90020DBFF0020FE
S31500004F10C4BA0020D4BB0020300E0300FD4D0000B3
S31500004F20C00D0380C88D01006C6F7765722D6D61B1
S31500004F30632D7261696C2D3830322E31352E342E48
S31500004F40630000006C69627261696C2E610000008A
S31500004F507047602080F3118870477047704770472C
S31500004F600120704709F022BB80B509F021FBC0B2D1
S31500004F7002BD09F021BB80B509F022FBC0B202BD1B
S31500004F8080B509F01FFBC0B202BD0CB480B50A465D
S31500004F90014602AB03480BF098FD02BC00205DF809
S31500004FA00CFB0000B5E5000009F00EBB10B5044689
S31500004FB0FFF7CFFF200A00280B4808BF24024FF254
S31500004FC00F0104804180BFF35F8FBFF34F8F074906
S31500004FD007480A6802F4E06202430A60BFF34F8F93
S31500004FE000BFFDE703487047000000200CED00E01D
S31500004FF00400FA0500AA002062F30F2262F31F42A2
S31500005000401810F0030308D0C91A1FD3DB0748BFA6
S3150000501000F8012D28BF20F8022D130030B41446E5
S315000050201546103928BF20E93C00FAD8490728BFA1
S3150000503020E90C0048BF40F8042D890028BF20F85D
S31500005040022D48BF00F8012D30BC7047C91818BFA3
S3150000505000F8012DCB0728BF00F8012D70477047D7
S315000050602DE9F24F0329044602DB180004D0052976
S31500005070C0F28E8042F0040201251800227003D08F
S31500005080180A6370A0700325FCF754FC6055691C70
S315000050900A9889B24D1C60544FF00008DDF830A024
S315000050A007E032464946601904F030F8751908F1F0
S315000050B001080B985FFA88F810F80800010069D01B
S315000050C0002774284FF0000BB94637DA4C285AF8F7
S315000050D0049B1CBF5328622814D15AF8046B4C2831
S315000050E007D1B6B2B3464FF6FF70834538D00227D4
S315000050F036E0532834D15FFA86FBBBF1FF0F2FD081
S3150000510001272DE06C2804D1484603F086F8861C5A
S3150000511026E0732804D1484603F07AF8461C1FE0BF
S31500005120A0F130010A2938BFA0F1300618D3A0F14A
S31500005130410107292CD2A0F1370611E00026752877
S3150000514008BF01270AD0762808BF022706D078288C
S3150000515008BF032702D077281AD104275AF804BBC0
S31500005160B6B2BDF8000016FA85F1C919884206DA0A
S315000051700EE004F805B06D1C4FEA1B2B7F1EF9B23A
S315000051800029ADB2F5D1002E91D0B9F1000F88D12A
S31500005190002000E0A8B2BDE8F28F10B52E4C2060CA
S315000051A02E4801802E4802602E48036010BD10B5BF
S315000051B084B00C4607A90291009313460699019103
S315000051C0024608E010B584B00C46009206A90246D5
S315000051D0029101930023214801881F480068FFF7C8
S315000051E03FFF1F49096808804FF4AA521D49096804
S315000051F04C80CA8004B010BD0346174802681848A0
S31500005200006801881748006803F07CB90020F3E7BE
S31500005210114802681248006801881248006803F0C5
S31500005220FDB800B583B001920B4A126800920C4A91
S31500005230126813880B4A126803F038F90EBD002273
S31500005240EFE7084800687047064A13681871106847
S315000052504171704700000000ECBF00207AF9002081
S3150000526070C5002074C5002030E0C64800780228CA
S3150000527001DB012070470020704738B5C14D044658
S315000052802878A04203D02146FCF772F92C7031BD74
S3150000529010B5BD4C207860B900F018F80BF046FD4B
S315000052A00121217028B10188B1F5817F24BF007DDD
S315000052B02070207810BDB349097818B1022904DAA4
S315000052C0022001E0022900DBD7E7704738B5FFF777
S315000052D0CCFF18BB0BF016FD0120FFF7ECFFAB4C23
S315000052E02078FF281AD10BF021FDB0B140880006C6
S315000052F0400E00F001052570FF221821A4480BF08E
S31500005300CBFD012D0AD1FFF7C3FF052806DBBDE85B
S315000053103440CC219F48FBF7D7BF207031BD80B504
S31500005320FFF7D4FFBDE801400BF000BD0C21984B00
S3150000533011FB00F0FF221844FFF75EBE2DE9F04F87
S3150000534089461646944987B0B1E80C10804603A8F2
S31500005350DFF838A28E4DA0E80C10FFF7B7FFFFF775
S3150000536097FF04469AF8000001284FF0000B55D12C
S31500005370022C53DBB8FBF4F004FB108000285BD052
S3150000538000200C2141436A5812F1010F04D069181C
S31500005390097A5118414503D0401C0228F1DB03E08D
S315000053A0C0B2FF28019005D140F22D117948FBF7D4
S315000053B08BFF33E00C21484302902F18387A211ACC
S315000053C0CAB2B24234BFC9B2F1B200913818009ADB
S315000053D04946001D03F09AFE00980099361A387A5D
S315000053E008183872C0B20099A042884413D103202D
S315000053F0FFF743FF029828582246391D0BF010FD8F
S3150000540000F0CCF8009881440198C0B2FFF78EFFF7
S315000054105FEA0B004DD1B0B200284AD09AF80000DE
S31500005420012809D1B8FBF4F004FB108020B14FF439
S31500005430AB715848FBF748FF9AF80000012817D1CE
S3150000544018FA86F0B0FBF4F104FB110282B104FBFA
S315000054501104E4B2001B0390B6B209EB06006142E8
S315000054600144224604A803F051FE8DF81440361B71
S31500005470B0B248B10320FFF700FFB2B2494640463A
S315000054800BF0CEFC00F08AF85FEA0B0011D103980E
S3150000549010F1010F0DD000200C2111FB00F3E9588B
S315000054A011F1010F09D0401CC0B20228F4DB4FF005
S315000054B0010B584607B0BDE8F08F0C2203A9E81887
S315000054C0FCF722FCF5E770B53048007801281DD1BD
S315000054D0FFF7FCFE00242E4D0C2000FB04F6A85915
S315000054E010F1010F0FD00320FFF7C7FEFFF7D0FE24
S315000054F00246A819011DA8590BF092FC064600F0B9
S315000055004EF8300003D1641C022CE5DB002070BD90
S3150000551070B504460D461646FFF7D8FE0420FFF781
S31500005520ACFE3246294620460BF084FC044600F0C9
S3150000553036F8204670BD2DE9F04104460D46FFF7CA
S31500005540C5FE0520FFF799FE294620460BF081FC93
S31500005550804600F024F800270D4E0C207843305882
