S01200004B4B48756D616E426F64792E733337C5
S31500004000689400203D880300312501008187030064
S31500004010A70A0A010042000004180FAC206900013B
S31500004020000000000000000000000000000000008A
S31500004030000000003C9A03000000000000000000A1
S315000040400000000000000000FFFFFFFFFFFFFFFF72
S31500004050FFFFFFFF0060050014000000006006007F
S31500004060FFFFFFFFFFFFFFFF8000000000000000D2
S31500004070000000000000000000000000000000003A
S315000040800000000000000000F0FF0020F0FF00200C
S31500004090689400204B0304000E890300088B00205F
S311000040A00029002000600600000000005F
S31500004200689400203D880300312501008187030062
S31500004210B1ED0200858703008987030000000000D6
S31500004220000000000000000000000000B7DB0000F6
S315000042308D8703000BD100008BEC00004F150100A9
S3150000424095870300958703009587030095870300EC
S3150000425095870300C7EE02002DBC000039800300DD
S31500004260098003001F800300D9140200BD1F02004D
S3150000427095870300E71F02009587030095870300D3
S315000042809587030095870300958703007F15010036
S3150000429095870300D9460300958703009587030099
S315000042A0958703003F4903003149030095870300C2
S315000042B09587030095870300958703001F62030017
S315000042C0E3610300E1610300C15C03001D620300BA
S315000042D0E5610300E9610300E7610300517C030027
S315000042E05162030095870300958703007D6A0000ED
S315000042F0958703004B42030095870300A31D010029
S31500004300958703009587030095870300958703002B
S31500004310958703009587030095870300958703001B
S31500004320958703009587030095870300958703000B
S3150000433095870300103730B54A4A4A4B4B4C2468E0
S31500004340650702D54FF0FF3030BDC50701D41C42CA
S3150000435005D100EA04058D4206D11C4202D06FF059
S31500004360010030BD002030BD521EE7D16FF0020EB5
S31500004370500970B50C463D4D6860E868403C400AFF
S3150000438070BD54F8040BA860161F03E00A104936E6
S315000043901F46B108210820FFF7CAFF0100F4D00428
S315000043A021296070BD0420286000F024F801000473
S315000043B0D100212120BDE87040B9E770BD38B5298C
S315000043C04CE168090C01F0010541F67131E1620129
S315000043D021264A1160606002202032120B3210073B
S315000043E001D100F007F80121211820060DB10021A6
S315000043F0E16232BD44400F99E72DE9F8430446894E
S315000044004616460020164F394822084812394812E7
S315000044101430102102E02C19A944761B76B104F55C
S315000044200050400B4003051BAE4238BF35462A46B6
S3150000443049462046FFF795A61003ECD00121092E28
S31500004440101BB8F1000F1CBF00213962BDE8F283D2
S31500004450000080969800020001001C000340100432
S31500004460130C1004000120034000000080B500205A
S3150000447000F0C5F800204C49087000F033F9BDE89B
S31500004480014000F0CAB870B504460D4616463046DF
S3150000449000F0BAF8002020703046A847BDE870400A
S315000044A000F0BBB8012241494148ECE701224149ED
S315000044B04148E8E7012241494148E4E780B5012047
S315000044C000F09AFA3F4800F02BFA3F49087001BD08
S315000044D080B500F0A9FA012805D03B480078BDE870
S315000044E0024000F008BA01BD30B5002400E0641CAB
S315000044F0E3B2364D2D88AB420FD2354BE4B20C25D4
S3150000450015FB04F52B441D78854201BF5D888D425D
S315000045101D799542EBD1184630BD002030BD80B5DF
S3150000452019B900F065F9002002BDB1F1004F02D2C1
S3150000453000F069F9F7E7022002BDB1F5000F3CBFB4
S315000045400902FFF7ECBF0220704770B504461D460E
S31500004550FFF7CAFF06000ED0204600F0ADFD50B1B1
S315000045602946B068FFF7DBFF28B9049870710598F3
S31500004570B071002070BD022070BD1CB5049C019472
S3150000458000931346012205E01CB5049C0194009398
S3150000459013460022FFF7D9FF16BD80B5002300930E
S315000045A0FFF7F2FF02BD000044A50020CF0F030075
S315000045B02CA50020F32D020034A500209B5A0200F2
S315000045C03CA50020D0950020A3FE0020889E002058
S315000045D0AC95002080B5FFF787FF20B100218068E9
S315000045E00170002002BD022002BD0122F2E7002276
S315000045F0F0E770470C480D4908600020704700B18D
S31500004600702070470020704780B500F013F8FF282F
S3150000461001D1A32002BD002002BD002070477047D3
S3150000462000BF0348007870473AE20300E0A9002083
S315000046304CA7002080B500F04AFDFF2818BF0020D7
S3150000464002BD00210170704700F0D2B8FFF775BFB8
S31500004650401CC0B20A2190FBF1F10A2202FB1100B4
S31500004660C0B2704710B584B0534C2478F4B18DF8BD
S3150000467000008DF801008DF802108DF803100798E0
S315000046800190002B14BF4FF480710021069808B1E9
S315000046904FF4007011430843ADF8080068464749D7
S315000046A0474A127801EB0211C96888471FBDF8B561
S315000046B00124414D2E780A2E12D0424F3C780FC865
S315000046C0DFF8F8C00CEB041C8CE80F002046FFF75F
S315000046D0BFFF3870701C287000243B48FFF7B4FFFA
S315000046E02046F2BDF0B583B0374C2046FFF7A9FF50
S315000046F0314D287820B3324E304F307807EB00101A
S31500004700027A4168007801F0D1F83D2818D00100FE
S3150000471016D0002101910121009101233178090170
S315000047207A5C0021FFF79EFF3078FFF791FF30702B
S315000047302878401E28702046BDE8FE40FFF784BF5B
S31500004740F7BD1CB50C460021019100910023002203
S31500004750014606E01CB51446019000200090002397
S315000047600122E0B2FFF77EFF13BD7CB50E46144C66
S31500004770124D0021019100910123217809016A5C03
S3150000478001463046FFF76EFF2078002E1FBF01015D
S31500004790695C012904290DD1074D2E78310009D015
S315000047A0FFF756FF2070701E28700748BDE8764058
S315000047B0FFF74ABF73BD000053FF0020B8AD0020CD
S315000047C051FF002052FF002044A5002038B5447850
S315000047D0456801F012F90C214C438A498A4B0A5963
S315000047E0521B9A4238BF0D51BDE8324001F00BB959
S315000047F010B5044601F03CF96060042020702046A4
S31500004800BDE81040E2E738B504460D4601F030F940
S315000048102D186560012020702046BDE83240D5E79E
S3150000482010B50446207860B1042806D001F020F9BE
S315000048306168754B421A9A4201D2002010BD081ACF
S3150000484010BD4FF0FF3010BD70B5044601F010F9F1
S31500004850054601F0D2F80646606800226FF0004176
S3150000486000F007F8451925603046BDE8704001F0B4
S31500004870CAB8F8B505460E46144601F0F9F80246E0
S3150000488000239CB1FF20207010E0087860B1042856
S3150000489011D048685C4F111AB9420CD3801AB04245
S315000048A002D2064604B123705B1C0835296800292C
S315000048B0EBD13046F2BD04B123700020F2BD70B5D5
S315000048C0054601F0D5F80646504C10E0017869B16E
S315000048D0042904D041684C4A711A914206D2042335
S315000048E003702060696888470020206008352868C2
S315000048F00028EBD170BD10B5044601F0B9F80C22C2
S315000049005443404A404B1159401A984207D2144426
S315000049106068FFF7D4FF2046BDE8104094E710BD5D
S3150000492070B504463A4E3B4A70781378984204D3E1
S315000049305FF0F60138A001F001F975780C20314AD4
S315000049402B464343691C7170D11801264C600E72C8
S3150000495000E0457054F8080B0028FAD10846FFF726
S3150000496073FF284670BD0000F8B50C244FF0FF31E8
S3150000497060430091234D05F1080100220A54244B9F
S3150000498093F8000068B301F0CDF920B940F22F1179
S3150000499021A001F0D3F801F06BF8024600261C4B6B
S315000049A0DFF864C05978F0B2884211D260432958C2
S315000049B0571A674515D305F10807385C891A80B977
S315000049C079B10098814288BF01460091761CE9E7DB
S315000049D0684601F0C9F910B9684601F06CF8012083
S315000049E0F2BD01F0CBF90020F2BD0C214843054B86
S315000049F0012218440272704705490870704703483F
S31500004A000068704764F7002001000080A0F70020CE
S31500004A10A1FE002002FF03006576656E742D636FAC
S31500004A206E74726F6C2E63000248007870470149FD
S31500004A300870704744FF002082B0DFF890080078C5
S31500004A408DF80300DFF888080088ADF80600DFF867
S31500004A5084080088ADF80400DFF87C0800788DF83B
S31500004A6002000020ADF800000120DFF87018087081
S31500004A70DFF86C089DF803100170BDF80610418040
S31500004A80BDF8041081809DF802108171DFF854187A
S31500004A909DF8012001EBC20181609DF800100173B1
S31500004AA00121417302B07047DFF830080078704783
S31500004AB0DFF82C1801EB0010407B00F00100704776
S31500004AC0412818BF422801D10120704700207047B5
S31500004AD0432818BF442801D10120704700207047A1
S31500004AE0F8B5044615461E46079B069A00F077FA67
S31500004AF060B1042100F05AFD070007D02046FFF7F9
S31500004B0083FD324629462046B8478FE0F1BD2DE9A0
S31500004B10F04383B004460D46160098461EBF0A9F12
S31500004B20002F5FEA08001ED0387800074CBF4022ED
S31500004B3080220C9B7188307900F051FA98B10821D7
S31500004B4000F034FD814670B13079FFF75DFD0B98BA
S31500004B50019000974346324629462046C847BDE89D
S31500004B60F743FFF75ABDBDE8F783F8B500F039F80B
S31500004B70D0B121000BD1022100F018FD040013D0A2
S31500004B802846FFF741FD31462846A0470BE0102195
S31500004B9000F00CFD070007D02846FFF735FD22463A
S31500004BA031462846B84741E0F1BDF8B500F019F89E
S31500004BB008B98620F2BD00278CB9202100F0F6FC4A
S31500004BC004000CD02846FFF71FFD09980090089BAB
S31500004BD0079A31462846A0470746FFF71EFD384686
S31500004BE0F2BD054616461A46069C2346F7E1F8B579
S31500004BF00446A5682078FFF707FD002612E028681E
S31500004C00F6B2142111FB06F147183988207801F015
S31500004C10C2F80121384600F0C9FC01001CBF20780B
S31500004C208847761C2979F0B28842E8D3BDE8F1407E
S31500004C30FFF7F3BC70B50024DFF8A456DFF89C66D6
S31500004C4008E0FFF735FF20B1E4B205EB0410FFF7EB
S31500004C50CEFF641C3178E0B28842F2D370BD10B545
S31500004C6086B0002401948DF80800ADF80A108DF87E
S31500004C700C30ADF80E200898ADF810000094002313
S31500004C80002201A902A800F094F8019806B010BD10
S31500004C902DE9F04782460E461746984697F8029049
S31500004CA0089C20000CBFFD7825464846FFF708FF04
S31500004CB030B16A1ED2B23146504601F00AFC1FE0FE
S31500004CC04846FFF705FF30B1AA1E92B2314650465C
S31500004CD001F017FC14E0B8F1000F06D1200004D053
S31500004CE0F878844238BF89200BD3F9781EB950462C
S31500004CF001F0EAFC04E00A463146504601F0E8FCC1
S31500004D000020BDE8F08710B5002301E0001D5B1C04
S31500004D109CB28C4204D204889442F7D1408810BDDC
S31500004D20002010BDDFF86019401A0C2190FBF1F04D
S31500004D3082B20021DFF85409E5E70288B2F57C4F1C
S31500004D40A8BF00F002B80846ECE7DFF84419401A9D
S31500004D50142190FBF1F082B20021DFF83809D2E786
S31500004D6010B50C460188638899420DD1027B2379E0
S31500004D701A4209D0B1F57C4F04DBFFF7E6FF218923
S31500004D80884201D1012010BD002010BD10B5144687
S31500004D900A88E3889A420AD10288B2F57C4F04DA7F
S31500004DA0FFF7CBFF2189884201D1012010BD0020E9
S31500004DB010BD2DE9FA4F83B0044693460025002620
S31500004DC003E0C0884519ADB2761CDFF810150978E6
S31500004DD0F0B2884280F0B880F6B23101DFF8000503
S31500004DE00844DFF8FC24515C227891428068E8D1BF
S31500004DF000903046FFF75CFE0028E5D04FF0000A31
S31500004E0005E0B8F80A004519ADB20AF1010A0099A1
S31500004E1009795FFA8AF08842D6D2009800685FFA6C
S31500004E208AFA142111FB0AF100EB010821464046DB
S31500004E30FFF796FF0028E4D04FF0000908E0387924
S31500004E403021084202D1F8782D18ADB209F10109D6
S31500004E50B8F808101FFA89F08842D6D2D8F80400AC
S31500004E601FFA89F90C2101FB09F147182246394638
S31500004E704046FFF78BFF0028E1D0039800B107609A
S31500004E803879800610D5DFF80008002106E002799F
S31500004E90920602D5C278891889B20C30B842F6D388
S31500004EA0DFF8F407461802E0DFF8F00746190E9D12
S31500004EB028001DD0DA4639464046FFF73EFF024637
S31500004EC03B886188207800F062FF20B33879C006FD
S31500004ED030D5002D394640461FD0FFF72EFF03463A
S31500004EE0CDF800B03A466188207800F065FF2CE0E6
S31500004EF0BBF1000F08BF002027D0B2465E463946F8
S31500004F004046FFF71AFF3B8802466188207800F08A
S31500004F103CFF0028DAD17E2017E0FFF70EFFF97874
S31500004F200191CDF800B003463A466188207800F03A
S31500004F3041FF0AE0BDF8100000902B463A46514664
S31500004F403046FFF7A5FE00E0862005B0BDE8F08FED
S31500004F502DE9F8450446884616469A46002503E09C
S31500004F60397B090616D46D1C2179E8B288421ED217
S31500004F702068EDB2142111FB05F147183888404529
S31500004F80F1D1310006D0802EEAD0402EEBD1397B0C
S31500004F904906E8D5B0F57C4F07DB3846FFF7D5FE66
S31500004FA0504518BF5FEA0A00DDD1384600E0002010
S31500004FB0BDE8F28580B5134607E080B5134640226A
S31500004FC004E080B51346802200E0002200F007F8D6
S31500004FD000B1012002BD80B500234022F6E770B57E
S31500004FE00C4615461E4600F072F8FF2801D1002037
S31500004FF070BD33462A462146DFF8E44204EB001032
S315000050008068BDE87040A3E770B50C4615461E469D
S3150000501000F05FF828B933462A462146DFF8C00279
S31500005020EEE7002070BD1346402201E00022FAE7B9
S315000050302DE9F84F8046894692469B460026FFF7A3
S31500005040CEFF08B9FF201AE00027DFF89442DFF808
S315000050508C5200E07F1C2978F8B288420ED2FFB24B
S315000050603801205C404509D05B4652464946FFF769
S31500005070CBFF0028EED0761CF6B2EBE73046BDE853
S31500005080F28F30B50022DFF8583200E0521CDFF80C
S315000050904C522D78D4B2AC420CD2D2B214011D5D62
S315000050A08542F3D10D0003D01C44647BE407EDD5A3
S315000050B0104630BDFF2030BD80B50021FFF7E1FF6F
S315000050C0FF2801D1002002BDBDE80240F0E4012125
S315000050D0D7E70021D5E782490001085C704738B55B
S315000050E00C46FFF7F4FF01460020FF291FBF7C4A4C
S315000050F002EB01118968002916D0002203E01B0685
S3150000510048BF2846521C0D79D3B2AB420BD20B686E
S31500005110D2B2142515FB02F52B441B7B451C002C33
S31500005120EDD05B06ECE7C0B232BDF8B50C461546CD
S31500005130FFF7CDFF01460022FF291DD0002301E025
S31500005140521C5B1C664800EB011080680779DEB2D2
S31500005150BE4211D20068DBB2142616FB03F63044B9
S31500005160067B2F0002D0760602D4EAE73606E8D59B
S31500005170D6B2A642E4D1F2BD0020F2BD002109E07C
S3150000518010B50446012100F005F82046BDE81040A0
S3150000519001F0F5BA2DE9F34F87B001F0BAFB06909E
S315000051A04E480078059000249DF81C000190DFF819
S315000051B0308100E0641CE4B205998C427BDA0199E7
S315000051C0FF2907D09DF81C00FFF781FF0446FF2C3E
S315000051D006D177E008EB0410007B06998842E9D1F6
S315000051E04FF0000A4FEA041901E00AF1010A08EB40
S315000051F00900806802795FFA8AF1914257D2006805
S315000052005FFA8AFA142111FB0AF145182889B0F5CC
S31500005210967FC8BF01F058FC002613E001200090DD
S3150000522000235A46002102A8FFF7C3FD9DF820007F
S3150000523038B13B46BDF80A2018F80910584600F068
S31500005240EEF8761C2989B0B28842CED26868B6B22A
S315000052500C21714347183879C006F2D418F80900B2
S315000052608DF808002888ADF80A00387940064CBF4A
S31500005270802040208DF80C003888ADF80E003946A5
S315000052802846FFF75AFDADF81000F8783979490736
S3150000529006D5D7F808B00328C0DBDBF800B0BDE7B9
S315000052A00328B4BF07F1080BD7F808B0B6E7019892
S315000052B0FF283FF47FAF9DF8200018B99DF81C0029
S315000052C000F012F809B0BDE8F08F0000FCFE030004
S315000052D046E1030036E20300FDFE030043FF002023
S315000052E04CA70020208F03003EB5044601F011FBB9
S315000052F0054601237F22282100F08AF800F084F871
S315000053004FF4004200F087F801237F22292100F0A4
S315000053107FF800F079F848F2010200F07CF80123EA
S315000053207F222A2100F074F800F06EF84EF2050292
S3150000533000F071F801237F222B2100F069F800F0BC
S3150000534063F84EF2060200F066F802237F222C2153
S3150000535000F05EF82120009001AB4EF2070200F04B
S315000053605AF801237F222D2100F052F800F04CF864
S315000053704EF2080200F04FF801237F222E2100F0A2
S3150000538047F800F041F84EF2090200F044F8012017
S31500005390FFF750F9012C03D0FF2C08BFA84232D1E9
S315000053A001237F22242100F033F83020009001AB46
S315000053B000224FF4A06100F02FF802237F2225215E
S315000053C000F026F83120009001AB01224FF4A061D5
S315000053D000F022F808237F22262100F019F8F02099
S315000053E0009001AB10224FF4A06100F015F80123E4
S315000053F07F22272100F00CF800F006F811224FF466
S31500005400A06100F009F837BD2020009001AB70477D
S3150000541001A801F060BC0021012001F020BDF0B51B
S3150000542083B004460D4616461F463879800740F17C
S31500005430B5800021CDE9001104B96C4630006FD16A
S315000054403888B0F5004F0AD100F0ADF838B9387990
S31500005450400604D400F0A3F8282001F06AFC38883E
S3150000546048F2010188420AD100F09DF838B938792E
S31500005470400604D400F093F8292001F05AFC38883D
S315000054804EF2050188420AD100F08DF838B9387914
S31500005490400604D400F083F82A2001F04AFC38883C
S315000054A04EF2060188420AD100F07DF838B9387903
S315000054B0400604D400F073F82B2001F03AFC38883B
S315000054C04EF2070188420BD100F06DF840B93879E9
S315000054D0400605D4022322467F212C2001F029FC18
S315000054E038884EF2080188420AD100F05CF838B9D3
S315000054F03879400604D400F052F82D2001F019FC4A
S3150000550038884EF2090188420AD100F04CF838B9C1
S315000055103879400604D400F042F82E2001F009FC48
S31500005520012D08BFB6F5A06F38D1388850B900F004
S315000055303AF838B93879400604D400F030F8242017
S3150000554001F0F7FB388801280BD100F02CF840B9A0
S315000055503879400605D4022322467F21252001F012
S31500005560E8FB388810280BD100F01DF840B93879CF
S31500005570400605D4082322467F21262001F0D9FBC8
S31500005580388811280AD100F00EF838B93879400663
S3150000559004D400F004F8272001F0CBFBF7BD01236B
S315000055A022467F2170473846FFF7BCBB30B5012243
S315000055B00023047B0C4205D1002030BD144218BFE5
S315000055C05B1C5200D5B28D42F8D30069DBB250F8AD
S315000055D0230030BD3249401A8003020C00213148B5
S315000055E0FFF791BB2DE9FE4F0C4600254FF0010A4F
S315000055F00028607D07D0010008BF022707D00128D8
S3150000560004D1012703E008B9082700E00427A846CB
S31500005610DDF83490DDF83CB0214800EB8806308890
S31500005620BDF80410884227D1F078384224D0B078EB
S315000056309DF8381088421FD3E07BF178C90607D55C
S31500005640D0B13046FFF7C6FF218A814201D013E070
S3150000565090B9AB4503D0BDF83000854202DB4FF070
S31500005660000A0EE0B07802994855B9F80000401CCF
S31500005670A9F800006D1CADB208F10108B8F10A0FD7
S31500005680CADB5046BDE8FE8FF88B03002C8F030063
S31500005690448E0300288F0300D4A300205CA70020BB
S315000056A0CC8B0300F48B0300DFF804030178022996
S315000056B004BF092202707047DFF8F80201F04CBE01
S315000056C00A2001F02AB910B5044602F0BBF908B960
S315000056D002F0BAF90B2120FA01F2D20705D4491CCF
S315000056E0CBB21B2BF7DB002010BDC9B2A142FAD109
S315000056F0012010BD2DE9F041804688B00D4600F02E
S315000057004DF801F012F9288868BB0FF2EC200088EA
S31500005710ADF81C0002F09BF9060008BF02203AD043
S3150000572001F001F9044601F0FEF8074601F0FBF826
S3150000573048214F4306940023A04A059304960393F9
S31500005740484302931744B7F8D630104400F1DA0103
S31500005750019300914FF6FF7307AA4CF60101FF2053
S3150000576002F078F928804046FFF7ADFF944D29787E
S3150000577018B1080018BF481E00D10520287001F096
S31500005780D5F84046FFF79FFF20B12878401E80419C
S31500005790C00F00E0012008B0BDE8F0810A2001F04A
S315000057A0BDB810B50C46208830B901F0BCF80146EA
S315000057B0002002F084FA2080012010BD38B500F0E8
S315000057C043F801F0B2F8E2B2E9B2082028E010B5D9
S315000057D00C46FFF7E3FF218821B90146002002F0BD
S315000057E087FA2080012010BD70B500F02DF801F079
S315000057F09CF86F4E3078042804D1707803F076FC5C
S31500005800002070703078E2B2E9B203F0D1FBCAE052
S3150000581038B500F019F801F088F8E2B2E9B20620CE
S3150000582003F0C6FBBDE8314001F080B838B500F0A2
S315000058300BF801F07AF8E2B2E9B2002003F0B8FB07
S3150000584000205B494860EDE704460D460A2001F05A
S3150000585065B880B5FFF7A2FF01F067F802F0E6F839
S31500005860BDE8014001F062B838B504461546FFF7B9
S3150000587095FF01F05AF801F055F84D48426829465F
S315000058802046002A01D0904701E004F0B1F901F06A
S315000058904DF8C7E738B5FFF7D7FF01F046F8E2B293
S315000058A0E9B20320BCE7012070470000FEB50546BB
S315000058B00E46144604F044FA08B13D20FEBD16F02B
S315000058C0784F05D0F00E1C38042801D33520FEBDD4
S315000058D0374F002078603D70042D05D1781C03F009
S315000058E0DBFD022003F002FCFFF7EAFE012D1CBFE0
S315000058F0062D042D01D104F0E1FB324A2E480A2D73
S315000059003ED8DFE805F015082933080F0631212BAC
S315000059101C002D4B00E02D4B0121019302910090BC
S31500005920032327E02A4A2146304604F0CDF925E034
S31500005930284B294A2146304604F0ACF91EE0274A96
S3150000594000F020F8264A15E0264A0121019202912C
S3150000595000900323244A0DE00220387000222349D8
S31500005960002005F04AFA09E07020FEBD204A00F04A
S3150000597009F8204A2146304604F0BFF9C0B2FEBD00
S315000059800120FEBD00210192029100900323704781
S3150000599080B507480178092908BF05F0B9FD04F06C
S315000059A0E6FA002002BDBDE8704000F0BFBF00006F
S315000059B000F90020EAF80020EDCC0100A8F900204B
S315000059C0EF9E0020CF57000011580000E957000055
S315000059D03D2203002D58000069580000535800006E
S315000059E0F5560000BD570000A3570000A956000059
S315000059F095580000A7580000FFFFEFF311803021F3
S31500005A0081F31188704780F3118870477FB500F0E5
S31500005A1011F818B900F015F805F0ACFD04B070BD2A
S31500005A207FB500F007F818B900F00BF805F0B9FDDE
S31500005A3004B070BD0446084615461E4602A905F088
S31500005A40ADBE0899099833460091029901902A46FD
S31500005A502046704780B500F00DF880B202BD80B5D3
S31500005A6000F008F8FA21B0FBF1F080B202BD0000A8
S31500005A7000BF0000E0B505F073FE6A4605F0BFFE04
S31500005A8018B14C2128A000F059F8DDE9000103B057
S31500005A9000BD000080B506F032F805F03BFD20B1F0
S31500005AA05FF0570120A000F049F8002002BD012058
S31500005AB0104908707047FEB504462168002501B9F3
S31500005AC01CE000F00CF808B100F002F8012019E023
S31500005AD001950095216800233A46301D96E7054E4C
S31500005AE03570054F0023019500933A46301D97E720
S31500005AF00000000098F80020AF5A000000F03EF9C0
S31500005B000020FEBD06F0D2F9307840B92146301D9E
S31500005B1005F0B6FD2068852505F055FE01E000205C
S31500005B20307020602846FEBD73797374656D2D74E0
S31500005B30696D65722E63000042DE704738B5044613
S31500005B400D4600F0C1FF06F0CBF92946204606F0C7
S31500005B50CCF92B4622466949012006F028FA294647
S31500005B602046BDE83440E7E72DE9F0474FF42068CA
S31500005B70634D2E1D634801687165016AB16562490E
S31500005B800A68F26549683166416A7166816AB1667A
S31500005B90C16AF166016B3167806B706796F83400F5
S31500005BA040074CBFF46BB46B274606F031FA01464A
S31500005BB031650022F26405F19003DFF850C1DFF889
S31500005BC050E1544A844224BFA2F1200AA24518D3C8
S31500005BD0A0693064E4697464746DC4F30804062C27
S31500005BE013D1704511D360450FD200884DF642643B
S31500005BF0A0420AD1306858607068986040F2017817
S31500005C0003E000273764776407464348814202D29F
S31500005C10014600E0091D0846904203D20C68B4F123
S31500005C20CD3FF7D03D49081AB0640020002105EBAE
S31500005C308004E167401C0628F9D3002003E0C0B2C7
S31500005C4005EB8004E167974223D252F8041D7145A3
S31500005C50F9D36145F7D2CC07F5D5002405EB8409C5
S31500005C60D9F87C90894502D0641C062CF6D3062C04
S31500005C70E9D1002814BF401E0520E0E7B16F0024DB
S31500005C8005EB8402D2F88070D767641C052CF7D325
S31500005C9019600146481EC9B20029EFD1706DC0F3E4
S31500005CA00800032810D0042811D0052812D0062891
S31500005CB013D00C2817D03B2818D119480068800744
S31500005CC019D540F2025816E040F6012813E040F6D6
S31500005CD0022810E040F603280DE0B8F5206F0AD13F
S31500005CE040F6042807E040F6052804E018B14D28E0
S31500005CF038BF40F607284046BDE8F087749B03008E
S31500005D000000002004ED00E000E300E00E8903003F
S31500005D106C440000689400209C00002068940020D9
S31500005D201880014AEFF31080C00706D4EFF3118004
S31500005D3030288041C043C00F70470120704770472C
S31500005D407047704770477047704770477047704795
S31500005D5070477047704700207047704700207047B3
S31500005D6070477047002070470020704770477047A3
S31500005D70704770477047704770477047002080F340
S31500005D801188704770470120704701207047012035
S31500005D907047704770477047002070470020704773
S31500005DA00020704700207047002070470020704791
S31500005DB0002070470120704701207047002070477F
S31500005DC00020704700207047002070470020704771
S31500005DD0B520704700207047704770478420704791
S31500005DE070477047704770477047704770477047F5
S31500005DF0012070470020704703480068007801289A
S31500005E0008BF022070470000E0A90020704700206C
S31500005E107047012181814FF6FE71C1810121016127
S31500005E200021017001207047704700207047002054
S31500005E307047002070477047B520704700207047B4
S31500005E4000207047704700207047704770477047C2
S31500005E5000207047704770477047002070477047B2
S31500005E60704770477047704780B5FFF730F9FF28D5
S31500005E7004D018B9DFF88807007802BD002002BDFB
S31500005E80F0B5044600260027059D092D02D3002003
S31500005E900021F0BDB4460FE03F0247EA16675FFAFD
S31500005EA08CFCA5EB0C00204410F8010C002110EB33
S31500005EB006264F410CF1010C5FFA8CF0A842EBD399
S31500005EC09F4206D828BF964203D2901B63EB070178
S31500005ED0F0BDB01A67EB0301F0BD10B50168DFF83D
S31500005EE024270B8813804B885380497911710168E8
S31500005EF0097951714FF4AA51D180016889798906CF
S31500005F0044BF4FF4AB51D180DFF8FC160A788369A1
S31500005F103BB9C088DFF8F436188002F0FD0008703F
S31500005F2010BD42F002020A70DFF8E44616228169CB
S31500005F30204600F0CDFB0020207010BD80B500206B
S31500005F40FEF75DFBFF20FFF719F9FEF766FBFEF78C
S31500005F50ABFD01220146DFF8A80606F063F8DFF87C
S31500005F60A436DFF8B0265221DFF8AC0606F046F973
S31500005F70FEF7A4FA06F0B0F906F08FFB07F0C4F8B6
S31500005F8007F0C4F8BDE80140FEF754BE704780B57F
S31500005F9001F0ADFF20B907F00DFA08B906F00CFEC6
S31500005FA0FFF749FFBDE80140FFF755BFF8B50446C6
S31500005FB020684079FFF78BF82268DFF86456FF28DF
S31500005FC00BD100F05CF8DFF85C16022007F0A1FAAE
S31500005FD020684279DFF8501640E0DFF8501601EBF2
S31500005FE00010DFF84C66017B237F994208D000F051
S31500005FF046F8DFF8403600F048F8227FA0A12DE0F1
S3150000600040881188DFF8307688420FD04FF6FF734C
S31500006010994202D1B0F5004F08DB00F030F8DFF806
S315000060201C3600F032F82068028816E02079022833
S3150000603018BF032817D111895079FFF7B9FE90B917
S31500006040E37C206842882946022007F062FADFF8DE
S31500006050F03500F01AF8206802893946022007F068
S3150000606052FA0020F2BDA07B0028204603D0BDE8EE
S31500006070F24007F05FBABDE8F24007F093BAE37C5E
S3150000608052882946022007F044BA206842793146F0
S31500006090022007F03EBA38B514461A4623785B0745
S315000060A04CBF052303239A422ED3069D28602971EF
S315000060B00498E880AC60AA81207800F00100A873FB
S315000060C02078800800F00100E8732078C00800F00E
S315000060D00100687501202875E87B30B10121204652
S315000060E007F03FFD297D891C29752882287D411CE2
S315000060F02975205CA874481C2875C9B2615CE974CE
S31500006100A989C0B2814201D2002032BD0598A8619A
S3150000611000F0FFFB2877012032BD2DE9FE430F4634
S315000061200025DFF82065DFF8201591EC080B86ECDA
S31500006130080BDFF8E8840B9C029601940A990091FB
S315000061403946FFF7A8FF002873D0C8F80060B07C76
S31500006150DFF8F81408703046FFF7BFFE304600F04F
S315000061600FFB98BBA4BB042F18BF052F03D0022F2B
S3150000617018BF032F01D1012200E000223068F18808
S3150000618001914188009103880121F07C00F04EF9CD
S3150000619008B33068817989061DD44288DFF8B014C7
S315000061A0022007F0B0F9DFF8AC5401202870012175
S315000061B0304600F039F938B10346DFF89C24DFF8A1
S315000061C09C14022007F09FF900202870012530E07A
S315000061D0207D80072DD530684079FF2825D10027FE
S315000061E0DFF82044FEF760FCF9B2814221D2F8B212
S315000061F0FEF771FF8146F8B2FEF75AFC98B1328A73
S31500006200306841884846FEF7D5FE60B13046FFF754
S3150000621064FE306880F8059084F804903046FFF7F5
S31500006220C5FE00B101257F1CDCE73046FFF7BEFE48
S31500006230054607F011FC1621DFF8D40307F0B8FC79
S315000062400020C8F800002846BDE8FE83DFF81004E9
S315000062500178491C017001F07F00704778B1DFF8C2
S3150000626004140978012903D1018841F0400105E0B1
S31500006270022904D101884FF6BF7211400180704790
S315000062802564000078B1DFF8E0130A78012A04D10A
S31500006290DFF8D82312780A7001E0022A03D10178C8
S315000062A041F01001017070472DE9FE43DFF85843B5
S315000062B02178CA0706D5DFF8B813022007F023F9BC
S315000062C0002068E0DFF854231268CE4D72B11268E0
S315000062D093799B0603D5EB8843F02003EB809279F4
S315000062E0520603D5EA8842F04002EA80CA4E327866
S315000062F05207DFF8582312784CBFF2707270C54F00
S3150000630089070CD54FF0490832463988C048FFF74F
S315000063105FFD8146207800F0FD0020701AE0BB4941
S315000063200C884FF6FC718C420ADA4FF05508019042
S3150000633000963B882A462146002007F071FD08E0BA
S315000063404FF04208009033463A882946204607F027
S3150000635055FD8146A87980064CBFC64C45A407F07A
S31500006360C5FF0294CDF80490CDF80080C24B0246DA
S31500006370C249022007F0C7F8C149022007F0C9F850
S3150000638001233A883146022007F0C9FF9BA102206B
S3150000639007F0B9F84846BDE8FE83002084E70A46C0
S315000063A001469E48006801E00021F8E770B5044602
S315000063B00E4615462079010018BF01280BD1A068AA
S315000063C00078C00601D5300005D0A07B002804BFA8
S315000063D0E07C0B2801D1002070BD00208D4908808B
S315000063E0607D00280CBF08200020E17B11B907F072
S315000063F048FB06E040F0040007F043FB208A07F064
S315000064004FFBA07C07F03DFB0B2007F03AFBE07C3E
S3150000641007F037FB304607F034FB2046FFF75DFDFB
S315000064202846BDE870403FE70022BFE770B5044646
S315000064301D4694480078874B012801D01E7816B176
S315000064400020187070BD82F001020A4301D10020BD
S3150000645070BD00281EBF04984FF65742904206D0E2
S3150000646023460A4601462846FFF796FC00B101205E
S3150000647070BD00000000000038B54FF6FD735224D1
S31500006480D288950648BF4924550544BF083CE4B266
S31500006490150544BF083CE4B2120444BFA41EE4B28E
S315000064A0032810D8DFE800F00204080D0B460AE0C6
S315000064B0C8B207F0DBFF02E0C8B208F001FA0346F3
S315000064C001E0641EE4B21846FFF780FC201AC0B251
S315000064D032BDB0B504460D0017460EBF0020287821
S315000064E0FF2801D12070B0BD284607F044FB874243
S315000064F088BF07463A46691C601C00F0E9F8277019
S31500006500B0BDF8B504460D00164603D100206070F4
S315000065102070F1BD2878FF2802BF6878FF28207018
S315000065200DD0284607F02CFB0746BE42B8BF3746BB
S315000065303A46A91CA01C00F0CBF8277038126070F0
S31500006540F1BDF0B5541E002B37D0052A48DA0025D8
S31500006550002600230CE0571EFF1AFF000CFA07FC6A
S315000065604CEA050511F80EC00CFA07F73E435B1C12
S31500006570DFB2974209D2DBB2A4EB030E00280CBFB0
S315000065804FF0000C10F80EC0E5E7042A0FDAD00031
S31500006590401E0121D2009140494245FA00F2D2073D
S315000065A048BF0D4346FA00F2D00748BF0E43AE423D
S315000065B00FDBB54214DA10E05B1CDDB295420FD258
S315000065C0DBB2E51A00280CBF0026465D4D5DB542DC
S315000065D001DA0120F0BDAE42EEDA4FF0FF30F0BD39
S315000065E00020F0BD0021284A01E0891CC9B2535C95
S315000065F08342FAD350184078704700005D000000CF
S3150000660048FF002080A900204DFF002076F90020D9
S3150000661068AA00208AF900208CA9002064AA00201C
S315000066206C9003008C900300A89003004CA70020F8
S31500006630B0900300D8900300E8900300E0900300B8
S31500006640F090030044AA0020BC910300B39E0020F2
S31500006650F890030049FF00204891030020910300B1
S31500006660B49E00204AFF00204BFF00204CFF002074
S31500006670509103009C9103009491030078910300CC
S31500006680AC910300B29E0020DC9103002838082854
S315000066908041C00F704710F0E00011D0802806D06E
S315000066A0A02806D0C02806D0E02806D007E01C2087
S315000066B070471D2070471E2070471F207047FF201F
S315000066C0704700F01F007047002205F0AFBC70470E
S315000066D081423ABF5318984208F09CBA801899072D
S315000066E007D0521E24BF13F8011D00F8011DF6D86D
S315000066F0704781071CD1103A07D330B433E9321002
S31500006700103A20E93210F9D230BC1032121F24BFE1
S3150000671053F8041D40F8041DF8D838BF121D521E48
S3150000672024BF13F8011D00F8011DF8D8704700BFFB
S31500006730083A07D333E90210083A40F804CD40F886
S31500006740041DF7D20832EAE780B508F09FFABDE8E3
S315000067500140FFF7F3BB80B5FFF73EFBFFF716FCE2
S315000067600AF0F6FEBDE8014006F0B0BC80B5FFF7C2
S3150000677034FB0AF002FFBDE801400AF02ABF704769
S315000067800AF066BF0BF09AB80020704738B5044689
S315000067900D46FFF764FB29462046BDE834400BF062
S315000067A01CBAFFF744BBFFF74EBB70472DE9F0421A
S315000067B07D4E002030707D4C20683821382507F04A
S315000067C0F7F933787A49087822686B43D0543078E1
S315000067D02168002268430844427030782168684383
S315000067E0084482700BF078FA327821686A430A44CA
S315000067F010720BF071FA327821686A430A445072BB
S31500006800317820686B4A6943014410786A4AC87037
S315000068103378216817686B43C818476167490A7857
S3150000682002763078D4F800C0654A074615FB07F3B0
S3150000683012680CEB0301CA61624AD2F800902C225E
S31500006840574309EB07020CF13407FA500BF056FADE
S315000068503078216815FB00F501F1340251594A6878
S315000068600968BDE8F0420BF0D0BC80B592B06A462C
S315000068700021002004F097FA08B1012018E05249DF
S31500006880524A0A910B925249524A0C910D9210911A
S315000068905148524A52490990524B0F9211910E9308
S315000068A06A460021002004F0A3F900B10120C0B21D
S315000068B013B000BD80B5002000F01AF828B1002002
S315000068C000F005F808B1002002BDFF2002BD364ADF
S315000068D036481378016838204343C8188078022860
S315000068E01CBF1128432801D10120704700207047A2
S315000068F02D4A2E481378016838204343C81840783B
S3150000690001281CBF0228032801D10120704700205E
S31500006910704700207047002070477047002070477E
S31500006920012070477047002070477047704700206D
S31500006930704780B500F020F820B10020FFF7D8FF9F
S3150000694000B1012002BD80B500F016F808B10020A4
S3150000695002BDFF2002BD10B5044600F00DF848B197
S3150000696000F019F84078012818BF022802D10CB9A6
S31500006970012010BD002010BD0020A8E780B5FFF75C
S31500006980FBFF30B100F007F84178032901DA002057
S3150000699002BDFF2002BD044A04481378016838206E
S315000069A04343C81870470000D8FF0020C49A00204F
S315000069B0D99E0020DA9E0020CC9A0020D19E00208D
S315000069C0D09A0020C89A0020C3CB01004F5D00007A
S315000069D0A9CC0100E9B60200DDCA01001B6E010068
S315000069E029A70100A1CE01000021002004F0D7BA9A
S315000069F07047002818BF0BF08EBC704703F00CB927
S31500006A0002F0D4BF33B585B005468DF8042006F0F4
S31500006A102BFC0446284606F037FC7CB10028BDF85E
S31500006A2018000FD106F03CFDFF288DF8000004BFCA
S31500006A3000218DF80010CDF808D016E0A8B106A800
S31500006A40029012E006F02CFDFF288DF8000003AA44
S31500006A5004BF00218DF800109DF80000BDF8181045
S31500006A6002928DF80C00ADF80E10DDE901010A4620
S31500006A700146284606F050FB07B030BD0BF058BD66
S31500006A8010B584B068461A491CC91CC001208DF88F
S31500006A9000000D208DF8060003208DF80700082160
S31500006AA024200BF07DFE694612480CF02CF94FF4B9
S31500006AB00060114908600221104A116010490860FF
S31500006AC00220104908601FBD0A480CF00BB9A52822
S31500006AD003D1002107480CF0F3B870470A48006854
S31500006AE000F001007047094800680028FBD1704794
S31500006AF070A803000080014A84E200E018A0014A61
S31500006B0004E100E01C90014A0480014A2480014A05
S31500006B102DE9F04F89B00CF028F908B1C620CBE07A
S31500006B20DFF8AC42DFF8AC62316820680DF0C7FCD4
S31500006B3005002CD032685168106892691268904737
S31500006B4004A831688969896888470220316889699B
S31500006B50C9688847002506E0006802FB0500096948
S31500006B6088476D1CEDB230688169059A4368B3FBAE
S31500006B70F2F39D42F0D30020C968884730688069E7
S31500006B8040688047316820680DF099FC054600266C
S31500006B90DFF84492DFF84482002D64D1DFF840022A
S31500006BA0805DF0B1DFF83C0250F8267001AB6A4612
S31500006BB0394620680DF087FE404507D0002852D19F
S31500006BC0009801284FD0394600F07AF8DFF818020D
S31500006BD050F826000268394620680DF0B8FD0546D3
S31500006BE041E00027DFF8FC0150F826A0DFF8FC01A1
S31500006BF0805D8DF8080005E0019819F806108842B6
S31500006C000FD17F1C9DF80800874216DA00F05BF86A
S31500006C10404506D00028F4D100980028ECD000F0BA
S31500006C204EF819F80630DFF8C00150F8262059460C
S31500006C3020680DF006FD0500E3D0DFF8B401805DA5
S31500006C4088B19DF80870DFF89C0150F826A000E096
S31500006C507F1C7F2F07D200F036F8404503D000F0A6
S31500006C602EF80500F4D0761C3A2E95DBDFF8840169
S31500006C701DB901210170002515E000210170002DCC
S31500006C80F9D0DFF874012D1A08D06D1E08D0AD1E9C
S31500006C9008D02D1F0CBFC125C52504E0C22502E082
S31500006CA0C32500E0C4252068007C20B1D321DFF88D
S31500006CB04C01FEF743FF284609B0BDE8F08F594660
S31500006CC020680DF045BE07EB0A0B01AB6A46594634
S31500006CD020680DF0F8BD70B515463A2920DADFF8C0
S31500006CE01421127882B1DFF8E8201468DFF8F46026
S31500006CF0DFF8EC20525C42B1024656F821102046DD
S31500006D000DF06AFD00B144E070BD7F2D08BF00257F
S31500006D10024656F82100411920460DF0D2FCF1E753
S31500006D20FF2903D9BDE870400DF0C1BE40F2011144
S31500006D3033E070B515461A463A2820DADFF8B43043
S31500006D401B787BB1224B1C68DFF89860DFF8903027
S31500006D501B5C43B12A6856F8201020460DF0F7FC5C
S31500006D6000B116E070BD7F2908BF002113462A46F0
S31500006D7056F82000411820460DF063FCF0E7FF2886
S31500006D8004D92946BDE870400DF0DCBE4FF49A7177
S31500006D9003E0BDE870400DF04CBFDFF86000BDE8D1
S31500006DA07040FEF7CBBEDFF84C10097801B970478A
S31500006DB080B50022DFF82C1051F820100448006836
S31500006DC00DF03EFD18B1BDE802400DF032BF01BD29
S31500006DD020990020409900205CDD03000BE000F0C4
S31500006DE0E4DC0300FCDB030048E0030098DD03005D
S31500006DF020DD03008CFF002001E000F018AA03004C
S31500006E002DE9F04786B006468A46904699460E9C7E
S31500006E100F9F109D029501970094FEF7B4FF18B1DD
S31500006E20022803D002D310E001200EE00CBF01209F
S31500006E3000200021049103900295019700944B468F
S31500006E4042465146304600F003F906B0BDE8F087E9
S31500006E5010B586B000F019F80024009411E010B5C2
S31500006E6086B000F003F8009340230AE0002404945F
S31500006E7001240394089C0294019300237047009315
S31500006E80802300F0E5F806B010BD00240494012428
S31500006E900394099C0294089C0194704710B586B02F
S31500006EA001240494002403940A9C0294099C0194EE
S31500006EB0089C0094E5E71FB5089C0394079C029480
S31500006EC0069C0194002400940CE01FB500F001F824
S31500006ED006E000240394069C029401930023704765
S31500006EE00093402300F06BF904B010BD2DE9F44F78
S31500006EF084B006468A461D460024A346D946DDF8D8
S31500006F00388043462A46FEF76AF807008DF8006087
S31500006F10ADF802A08DF80450BDF81000ADF80600DB
S31500006F20ADF8088049D069463846FDF719FF0028B4
S31500006F3043D00025DDF83C80DDF840A005E006F0F2
S31500006F40A0FD641C09F101096D1C3989A8B28842AB
S31500006F502BD27868ADB20C21694346183888B0F553
S31500006F607C4F09DA3088ADF806006A463146384665
S31500006F70FDF70CFF0028E7D03088BDF810209042BE
S31500006F8038BF0BF1010BDDD3A1B24145DAD206F0D1
S31500006F9087FDB07806F075FD5FEA0A00D1D030793A
S31500006FA0C0074CBF07200520C9E71FFA8BF111FA6D
S31500006FB084F01FFA89F1884201D1012000E0002007
S31500006FC005B0BDE8F08F70B5C6B015464B9C052CD4
S31500006FD02FDB04AA0392FF22029205AA01924A9A83
S31500006FE000922A4600F0EBF8060024D1FF2205A9FC
S31500006FF09DF810000DF02EFE06001AD0201FB0429C
S3150000700017DB284606F04CFD002006F03AFD9DF8F9
S31500007010100006F036FD0C4C2588C5F152018E4253
S3150000702007DA324605A9094B5819FFF751FB7019C3
S31500007030208046B070BD284606F032FD304606F088
S3150000704020FDF6E7000000008AF900208CA9002048
S315000070502DE9F04F89B081468A469346984600202E
S3150000706004908DF81490ADF816A08DF81880ADF840
S315000070701AB0129CADF81C4000900023002204A90F
S3150000708005A8FDF796FE049808B986208AE01598AB
S3150000709068B99DF8500004998978884218BF8D20F8
S315000070A0F4D104980079C00758BF88207AD5139D7B
S315000070B004980079400725D50498806840680290B6
S315000070C0049880688068019004988078FFF7DEFA5B
S315000070D006460498C0788DF8000003283346024619
S315000070E029461DDA02A8FFF72CFA074633469DF813
S315000070F00020294601A8FFF724FA012F18BF10F136
S31500007100010F1CD0169800284BD14FF6FF72294666
S31500007110049880780DF09EFD060012D1012041E012
S315000071200298FFF70EFA012809D033469DF8002091
S3150000713029460198FFF705FA10F1010FE2D18720E1
S3150000714030E00395C0B200F030F8FEF76EFE0100A5
S3150000715028D10395F0B200F028F8FDF726FD0100CE
S3150000716020D10120009000232A46002105A8FDF722
S3150000717020FE010016D1049B524649462846FEF7DA
S315000071804EF9029500F012F805F026FD0395F6B2C9
S31500007190029600F00BF8FEF747FE00F00AF8FDF73E
S315000071A0E4FC002009B0BDE8F08F02909DF8500085
S315000071B00190009443465A4651464846704710B5DA
S315000071C086B0002401948DF80800ADF80A108DF8F9
S315000071D00C30ADF80E200898ADF8100000940A9B0C
S315000071E0099A01A902A8FDF7E4FD010004D10B9953
S315000071F011B1019A92780A7006B010BD10B5DFF889
S31500007200EC070068DFF8E017DFF8E427C8601368CA
S3150000721048615B0800EB43040C6118B100F00AF802
S31500007220652806D2B0210FF2EC70BDE81040FEF7DB
S3150000723085BC10BD10B5DFF8B04720696269904281
S3150000724002D2C62100F088FA2069626900E0E2688D
S315000072504FF6FE71801A084010BDDFF88C17CA6819
S31500007260904203D34969884200F037BB002070473B
S3150000727080B510B1FFF7F1FF00B1012002BD30B1BA
S31500007280DFF86427D168401A4010401C80B270476E
S31500007290010001D100207047DFF84C17CA6802EBE5
S315000072A04000801E70474088C0F30C00C01C800858
S315000072B04000001D80B2704710B50446FFF7F3FF8B
S315000072C004EB4000DFF820174A694FF6FF7490423E
S315000072D004D20388A34208BF801CF8D010BD2DE954
S315000072E0F8438046DFF80047E08898B3B8F8020014
S315000072F001042FD4DFF8FC7638680FF20C710FF218
S3150000730014790DF0CDFC20B940F28D114846FEF7F8
S3150000731015FC002504E00DF0C3FC88B16D1CADB270
S31500007320E088854204DB40F28F114846FEF706FCF2
S31500007330A069396800EBC50630680028EBD13160DA
S31500007340B088401CB0804046FFF7ADFFF18801EBE6
S315000073504000F080BDE8F18370B50446DFF888068A
S31500007360007801281AD12088FFF792FF050027D060
S3150000737002262C462046FFF7B2FF608840F4004004
S31500007380608034F81600FFF783FF040002D060889F
S315000073900104EFD5761C042E12D2EAE702280FD19B
S315000073A0FEF72BFB05462088FFF772FF18B1008811
S315000073B0C0F30E0020802846BDE87040FEF723BBD0
S315000073C070BD38B504460D46FFF76DFF6188400471
S315000073D0020CC1F30D01618021462846BDE8384004
S315000073E0FFF776B910B50C46A04205D241880A04CB
S315000073F002D4FFF761FFF7E710BD2DE9F14FDFF883
S31500007400E855002092B0A880FEF7F7FA6A880121B5
S315000074102970ADF800206A69002169800192FEF7A3
S31500007420F2FAE988A869C90006F0C2FB6846FFF7C8
S3150000743093FF129848B1002401E08047641C12981B
S31500007440E1B250F821000028F7D10024EF684FF090
S3150000745001080DF1080938E024B1641EE4B259F8B8
S3150000746024A004E03846BA46FFF726FF0746BAF8D6
S31500007470020000F44041B1F5004F26D140F48040AF
S31500007480AAF802004FF0020B26465FFA8BF03AF894
S315000074901000FFF7FDFE040010D0608801040DD433
S315000074A040F4004060802046FFF719FF102EBDBF54
S315000074B049F82640761CF6B24FF000080BF1010B96
S315000074C05FFA8BF00428E0D33446019EB742C3D35B
S315000074D0002CC1D1B8F1000FB7D0EF68BB46B84653
S315000074E015E03846FFF7DFFE0446788801040BD521
S315000074F05846FFF7C4FE39880BEB440B07EB4408EC
S3150000750001F400410843388000F078FA0746B74294
S31500007510E7D3022028706846FFF71EFF129848B18D
S315000075200026044601E08047761CF0B254F820009D
S315000075300028F8D1EC68274613E04FF0020937F827
S315000075401900FFF7A5FE20B10088C0F30E0027F84A
S31500007550190009F10109B9F1040FF0D300F04EFA50
S3150000756007464745E9D30AE00446FFF7A5FE41462C
S31500007570FFF738FFB842F7D3B7422ED154464445F9
S315000075804AD22046FFF798FE8246002CF6D0608845
S315000075900104F3D500F05AF8A04204D16088C0F384
S315000075A00D006080EAE704D201462046FFF709FF96
S315000075B0E4E7264607E05046FFF77EFE414654467E
S315000075C0FFF710FF8246C24507D2BAF80000C0F3A3
S315000075D00E00FFF75DFE8245EDD334B100F036F8BC
S315000075E001001CBF2046FFF7ECFE27463046C1E7E8
S315000075F02046FFF758FE06465846FFF740FE074668
S31500007600720021465846FFF763F80022394668465D
S315000076100DF086FB0BEB460BFEF7EFF90646002155
S31500007620A81C0DF0D3FBFFF733FE040006D1BDF80E
S3150000763000000021C5F814B0688029703046FEF7B6
S31500007640E2F9002CD4D113B0BDE8F08F2088C0F346
S315000076500E001DE680B5FFF71BFEBDE8024007E6FB
S3150000766010B5040012D0FFF7F5FF18B940F27A41C1
S3150000767000F072F82046FFF70BFE38B101880A04C5
S3150000768002D5D0F80A0010BD083010BD002010BD8C
S3150000769010B5010013D0FFF7FBFD0446FFF7E8FD28
S315000076A018B940F2944100F057F844B1208801041B
S315000076B001D5208910BD6088C0F30C0010BD0020E4
S315000076C010BD2DE9F04100F044F804003FD00FF260
S315000076D04437FFF7CDFD18B940F2A74100F078F81E
S315000076E02846FFF7D5FF80462046FFF7E5FD05460D
S315000076F046452CD003DB40F2AF4100F069F8208804
S31500007700010448BF268122D466802046FFF7CBFDC0
S3150000771004EB4004FEF771F9DFF8CC124A692E1B20
S31500007720B6B2954204BF4C610026FEF76CF9082EEE
S3150000773006D231462046FF22BDE8F04104F072BC75
S3150000774008212046FEF7C0FFA6F108006080BDE8CC
S31500007750F08105460E469BE50FF2B820FEF7EEB91E
S3150000776038B50D46FFF794FD04000AD0FFF780FDFB
S3150000777018B940F2EC41FFF7EFFF04EB45008088B3
S3150000778032BD002032BDF8B50D461646FFF780FD26
S3150000779004000FF2802714D0FFF76AFD18B940F2F3
S315000077A0F74100F015F83046FFF772FDFFF760FD70
S315000077B018B94FF49F6100F00BF804EB4500868082
S315000077C0F1BD384640F2FB41BDE8F440FEF7B6B9DC
S315000077D03846FEF7B3B92DE9F84F8846C11C89082B
S315000077E04900091D0027DFF8005204461FFA81F9F7
S315000077F02E690FF2202AB0F5005F04D340F227511C
S315000078005046FEF79BF9FEF7F8F88346E869696982
S3150000781008B9711A03E05FEA080202D0411A4E1055
S3150000782009E0301A4010064680B220B940F24D51A8
S315000078305046FEF783F9B6B24E4514DB6F6907EB87
S3150000784049006861E86928B1B8F1000F04BF00EB90
S315000078504900E86100207C80B880F880388029895A
S31500007860083464182C815846FEF7CDF83846BDE832
S31500007870F24F04E570B504460D4611462846FFF75B
S31500007880AAFF06463CB1300005D0FFF7E9FE2A46BE
S315000078902146FEF71DFF304670BD38B50446FEF79B
S315000078A0ACF805460022214653480DF039FA284621
S315000078B0BDE83240FEF7A7B838B5FEF79EF8044695
S315000078C000214D480DF082FA05462046FEF79BF84A
S315000078D0284632BD44484188481E8041C00F704743
S315000078E02DE9FE4F04462088884616469B46FFF73C
S315000078F0CFFC0746FFF7BCFC18B940F28D61FFF7D5
S315000079002BFF38883546010403D538892D183D816B
S3150000791067E000F077F8019000F070F88146FEF716
S315000079206CF800968246304E706981451DD1FFF78E
S3150000793081FCA84203D25046FEF765F821E0019883
S315000079402D187D80BBF1000F08D02088FFF788FE38
S31500007950019B009A4146184407F05CF900F04EF886
S3150000796070615046FEF74FF83BE05046FEF74BF885
S3150000797000F048F82D180021A8B2FFF72CFF0700E9
S3150000798001D11A202EE000F03DF805462088FFF7C9
S3150000799067FE06463846FFF763FE2A46314607F07D
S315000079A039F9BBF1000F384609D0FFF759FE00F050
S315000079B028F8009A4146284407F02CF907E0FFF71B
S315000079C04FFE00F01EF800992844FEF77DFE208841
S315000079D00121FFF7C5FE024601213846FFF7D3FE17
S315000079E027800020BDE8FE8FA4F70020949A00208F
S315000079F0989A0020F49A0020A6F700203846FFF750
S31500007A005BBC0546208843E6756E636C61696D65EF
S31500007A10640000006275666665722D6D616E616751
S31500007A20656D656E742E6300704770470020704761
S31500007A30704700207047002070477047704700204D
S31500007A40704770470020704700207047704700203D
S31500007A50704770472DE9FE4F93461F468246002326
S31500007A60ADF800307E20884608F44062019200217D
S31500007A70FFF7B1FE08F440445FEA000900F0928087
S31500007A80FFF7EEFD7E21FEF71FFE4846FFF7E8FDF5
S31500007A9002904846FFF7E4FD0025BAF1FF0F18BF34
S31500007AA048F0030880F800804FEA18214170C61C90
S31500007AB0019818B137703F0A7770B61C019859467D
S31500007AC0B0F5006F30460CBF022708273A46FEF78E
S31500007AD0FFFDF6193CB15FEA486004D40D9830709A
S31500007AE0000A7070B61CB4F5004F08BF022704D018
S31500007AF0B4F5404F0CBF082700270C99119C3A4655
S31500007B003046FEF7E5FDF019029E861B210015D0D2
S31500007B10DFF834130A78871C02704A7842702046D0
S31500007B20FFF79EFD83462046FFF7B2FDC5B22A4603
S31500007B305946384607F06EF87819AD1C0F9CBAF115
S31500007B40FF0F06D00E9900F801AB2246761C07F00F
S31500007B5061F854FA86F050FA85F1484689B2FFF783
S31500007B60B0FD0C21BAF1FF0F129A109C08BF082134
S31500007B705FEAC8604CBF80200020014300200DF062
S31500007B805FFAADF800004846FFF782FD0546484615
S31500007B90FFF766FD01460123EAB26846FFF7A0FE3D
S31500007BA000F04BF9BDF80000BDE8FE8FF6B50022E7
S31500007BB0DFF8984287B0059204924FF4B8725043AA
S31500007BC00691012522184820414303950EAE501810
S31500007BD04FF6FF7700F1DA0502960197009508AA9D
S31500007BE04CF620010120D3E070B588B00C980D4604
S31500007BF0DFF858428DF81E00482045438DF81C30AA
S31500007C00069160191B0A0021032407AD00F1DA066C
S31500007C108DF81D300591049103940295019100960B
S31500007C20B0F8D6304CF660410220FFF713FF08B0DB
S31500007C3070BD4820DFF81422F8B50B46434388B0E0
S31500007C404FF6FF771A4402F1D600438802F1DA04B0
S31500007C504FF6FE75ADF81C3003888089ADF81E001E
S31500007C60BDF81E60BDF81C00BE420FD0A8420691AA
S31500007C700DF11E02BABF07AC48F660004CF6600074
S31500007C8000F014F80420FFF7E5FE0DE0A842069187
S31500007C90BABF07AC48F660404CF6604000F006F804
S31500007CA0E4320420FFF7D6FE09B0F0BD00210591AD
S31500007CB00491039102910191014600947047482076
S31500007CC0002210B588B006914143059204920392B2
S31500007CD002925E4A50184FF6FF7300F1DA04ADF8CF
S31500007CE01C300193009407AA4FF4484106201CE07B
S31500007CF00B464822534310B5544888B0C218B2F810
S31500007D00D840069100210DF11E004FF6FF73059134
S31500007D1004910391029101910090ADF81E40ADF8D7
S31500007D201C3007AA4FF400610720FFF793FE08B046
S31500007D3010BD00004820F0B50D464543434C89B0C0
S31500007D402C4404F1D4067588B7888DF81E70280A6D
S31500007D503F0A8DF81C508DF81D008DF81F7036787F
S31500007D6000208DF82130059004908DF820601B0AC4
S31500007D7004F1DA008DF822300691072607AF00904D
S31500007D800396029701954FF6FF734FF44C41082076
S31500007D90FFF760FE09B0F0BD48202DE9F841164610
S31500007DA08846424642432949A1B011441C4601F186
S31500007DB0D6025088DA314FF6FE73128801AF984228
S31500007DC004D100258DF80450C02503E000258DF868
S31500007DD0045080257D70FA70120A3A71984207D1D4
S31500007DE008220DF10900FEF773FC0DF1110705E0FD
S31500007DF07871000A8DF80A000DF10B073E70360AFD
S31500007E0000207E70B870F870ADF8000042460C2174
S31500007E100DF016F9ADF8000060B13A1D01A8121A6E
S31500007E200123D2B201A96846FFF75AFD00F005F812
S31500007E30BDF8000022B0BDE8F081BDF80000224682
S31500007E400121FFF7A0BC0000A89E0020A8F9002091
S31500007E50DFF8C419C873704770B5DFF8C0592978C0
S31500007E603824DFF8BC693068614301448A78112AF6
S31500007E7004D0B421DFF8AC09FDF760FE287831683C
S31500007E80412214FB00F40819827070BD10B502205F
S31500007E90FEF744FDFEF749FDDFF88039DFF880097B
S31500007EA01C78016838204443DFF86C2908194178AA
S31500007EB0042903D1107C401D107405E04FF47A713B
S31500007EC002F11800FCF79FFCBDE81040FEF72EBD3E
S31500007ED080B5DFF85409FFF73FFADFF85009FFF7DE
S31500007EE03BFA0DF0DDF8BDE8014002F0EEB8DFF830
S31500007EF02C29DFF82C091378016838204343C81869
S31500007F00807833281CBF4328532801D101207047AD
S31500007F10002070472DE9FF4E0DF0DCF80DF029FB2F
S31500007F20002867D0DFF8F04800202076DFF8000947
S31500007F3001790C3001F07CF9207D18B102F0BEF811
S31500007F40002020750021217300F056F80FF01FFB6A
S31500007F500DF033F9DFF8DC0800274825DFF8BC68A8
S31500007F60DFF8D4B800F1E40900F1E20A9BF800104A
S31500007F70F8B288423ED2FEF7D8FC30784FF6FF7250
S31500007F8068433AF80010914218BF012107D1002238
S31500007F900821484405F029FA411E8941C90F94F881
S31500007FA0202002F001020A4220D0307808226843DD
S31500007FB03AF80010ADF8081009EB00016846FEF724
S31500007FC087FB0A230A2201F087F9DFF8540896F89E
S31500007FD000C00168382010FB0CFC02230B2201EBC9
S31500007FE00C0000F12C0100200FF0E4FCFEF79EFCD3
S31500007FF07F1CBBE7BDE8FF8E10B5DFF820080178CF
S31500008000DFF81C283820136810FB01F0184440786C
S31500008010032818BF04280CD148204143DFF8142850
S315000080205018B0F8E2104FF6FF72914208BF0320D5
S3150000803008D005F039F9044605F03FF9214606F067
S31500008040D2FB022005F05EF90FF062FD00F096FF0C
S315000080500FF0C9FA01F0D8F920B10020BDE81040B0
S3150000806002F016BE10BDF8B5DFF8B077DFF8A84706
S31500008070E07339783825DFF8A8673068694301442A
S315000080808878032818BF002823D0332818BF432830
S3150000809019D100F01FF83978306815FB01F542193F
S315000080A05178032918BF042907D10321801C4155A3
S315000080B0E07BBDE8F240FEF7A3BCE07BFEF7A0FC48
S315000080C0BDE8F14098E721208870BDE8F1400FF047
S315000080D08EBFF1BDE37B13223FA1032010F03DB913
S315000080E038B5DFF8383701F003FA00214FF6FE7095
S315000080F01519A97010F015FB4FF6FF7010F02DFB47
S31500008100DFF81447FFF7E6FFE07BBDE83240FEF7F5
S3150000811077BC00002DE9F8430546DFF8380B09F077
S315000081203BFE80462B4618222BA10320DFF8EC6687
S3150000813010F013F9002088F8000031783827DFF8AE
S31500008140E096D9F800007943702408444178032961
S3150000815018BF042924D00024290007D1416B91F8C7
S315000081602400E8B181F824409D2017E0FF2D06D0B9
S315000081704FF47A70454340462946FCF744FB327873
S31500008180D9F8001017FB02F701F13400C15991F834
S31500008190240028B9012281F824209C20FEF730FC17
S315000081A000F0ECFE2046BDE8F28338B5FCF727FC6C
S315000081B00446DFF8A01A09F0F0FD0546FF2818BFAF
S315000081C0FEF7B3FB00202070FFF7A4FFFF2D01D0C0
S315000081D001F03BBA31BD00004242000038B588B01C
S315000081E004460D46686916220790297C0691E8899F
S315000081F00590297B0491E87A039095F90A100320EB
S3150000820002912B89CDF800500BA10193234610F063
S31500008210A4F8012001F07EFF287B00280CBF4FF652
S31500008220FE7010F072FA2B462246014609B0012074
S31500008230BDE83040ABE0000042423870574242424F
S31500008240574244002DE9F047DFF8D09599F800C071
S315000082508846DFF8CC653824316814FB0CFC1D46D3
S3150000826082468B1C13F80C0000284BD1170049D00E
S31500008270042F47DC01F064FD002843D1FEF757FBCD
S3150000828000283FD1FEF755FB08B1042F3ADB287BC7
S31500008290032817D14FF6FE71884515D1012F08BF67
S315000082A04FF0000810D0022F2CD110F02EFA4FF606
S315000082B0FC71884202DA10F028FA01E010F010FB97
S315000082C0804601E0012F1DD0BAF1000F0CD0287BAB
S315000082D0032838460CBF01210021012F18BF0020BA
S315000082E010F0CAFD010030D12946404600F03BFFA0
S315000082F001002AD1FEF717FBFEF7FAFA20B1FEF7C6
S3150000830018FB08B1702020E099F80020306814FBB3
S3150000831002F4811C085D332818BF532803D00020BF
S31500008320DFF8F4148873384600F0E0FE00214FF6BB
S31500008330FF7001F0E7F8DFF86017087820B1FEF764
S31500008340F8FA08B911F0FFFF0020BDE8F08738B54C
S315000083500446DFF8C45408222146281DFEF7B8F962
S31500008360207BDFF8B8340228C8BF002028702878A0
S315000083709421E9730028DFF8A8041C780CBF0121BA
S3150000838031210268382044431019817031BD38B557
S315000083901C46FFF757FF010032D1207B03282046F9
S315000083A002D1BDE8324062E0FFF7D1FFDFF8680492
S315000083B00021818105F06AF8014640094FF001036A
S315000083C005D1DFF8E80B027803FA01F108E001F0C5
S315000083D01F0140F0180003FA01F1052241EAC061CD
S315000083E00620FDF763FA01000AD0DFF83044DFF813
S315000083F0301425780B6838214D43002259198A70AC
S3150000840032BD10B50446DFF81424DFF814041378DF
S31500008410016838204343C8184078032818BF042849
S3150000842006D1E079C10744BF94F9050012F01FF8A0
S31500008430207801F017F801F052F822896189034685
S31500008440002012F091F8040004D09420FFF70BFEF0
S31500008450204610BDDFF8C0439420E0730220FEF7EB
S315000084605CFA00F081FD03202074002010BD10B5D9
S3150000847004460022082104F0B8FF08B1012010BD0F
S3150000848010F043F900224FF6FF7100F0A7FE217CA1
S31500008490204600F0CDFE6269E189207C0FF081FB69
S315000084A0DFF87823DFF87803137801683820434330
S315000084B0C8184178012908BF11F006FBFFF79CFD9B
S315000084C0002010BD2DE9FC4100F0A6F804460A4440
S315000084D0907810B901F034FC08B1702094E001F0F6
S315000084E022FEDFF834832CB10222214608F1200057
S315000084F0FEF7EEF8684600F0CFFF08B1932083E060
S315000085009DF80030142274A103200FF026FF00F01E
S31500008510E7FE010078D19DF8000000F0E7FD327813
S3150000852038686A43411C885C012818BF022808D0B5
S31500008530032818BF042842D1002001F029F800289A
S315000085403DD000F0E4FE327838686A43411C885C0E
S31500008550032814BF042812F006F9FFF74DFD012089
S3150000856012F026F901004FD13078396868434A1C69
S31500008570125C032A18BF042A0ED198F820309C07F3
S3150000858008D50522DFF8C816012000F04FF80100D3
S3150000859039D039E0032A01D0042A34D1084400F145
S315000085A02C0102230B2201200FF004FA00F02EF812
S315000085B091F82C20500726D50CF02DFF23E03178BA
S315000085C03868132215FB01F5012441198A70002031
S315000085D088F80D0004F05AFF400903D104F056FF55
S315000085E084400BE004F052FF450904F04FFF00F011
S315000085F01F0045F01805844044EAC564052221465B
S315000086000820FDF753F90020BDE8F6813178386877
S3150000861015FB01F541197047804E32783825804F99
S3150000862039686A437047FF2200E000002DE9FC41EB
S3150000863016468046794A0D4600F0F0FD3FD0877811
S31500008640022F07D0032F3AD15FEA080102D1007941
S31500008650810734D4332004F055FE0CF03BFD15F0B1
S31500008660784F294612BF0522DFF840090278062016
S31500008670FDF71CF90446A0B9674F3873012001F0D5
S3150000868049FD10F05EF878805FEA080014BF02200A
S3150000869001203870381D00F017FF00207873BE7374
S315000086A002E0384604F02EFE5FEA0800314628460E
S315000086B002D0FDF75DFB03E0FDF759FB00E07024F7
S315000086C00194009543462C2204A103200FF045FE99
S315000086D02046BDE8F6810000424200004242444284
S315000086E00000000010B5FEF7BBFF00F110042046A5
S315000086F012F060F84FF6FF5101402046BDE81040E9
S3150000870012F05EB82DE9FF470646444D0FF0FDFF17
S315000087102A788246DFF808913824D9F800006243A7
S31500008720411C885C032818BF042806D1F079C107CC
S3150000873044BF96F9050011F09AFE3078DFF8347CD4
S315000087404FF0480800F08EFE7089002100F0DAFE36
S3150000875004F05DFE78B1BAF1000F03D04FF6F87160
S315000087608A4508DB10F0BCF82978824618FB01F12F
S315000087707A5A9042F6D050460FF0D3FF30890FF068
S31500008780ECFF06208DF8080000F0A9FE8DF8090020
S315000087900020019000902878022302AA18FB00F01E
S315000087A00121385A12F057F9064620B91820FFF76A
S315000087B05AFC182022E0287818FB00F8304637F8D3
S315000087C00810154F0CF099FB387802281CBF30466C
S315000087D0FFF788FF00F06DF8C8B19420F873022007
S315000087E0FEF79BF82A78D9F8000000F0B6FC08D10D
S315000087F0C82100F031FA03203874002004B0BDE827
S31500008800F0874FF4167100F027FA0020F4E7942061
S31500008810FFF729FC0120F1E7D8F70020D8FF002058
S31500008820C49A00208C9600002AFF00202CFF00200E
S31500008830FCF70020A8F90020D09E002078B587B06C
S315000088400C4616461D4630B9204609F092FB03A990
S3150000885011F0A2FC03A80C99019007238DF809607A
S3150000886001208DF80830360A8DF80B1000908DF82F
S315000088700A60042302AA0121204612F0ECF8060041
S3150000888014D021460CF039FB15B93046FFF72AFF04
S315000088900D9808B930460AE0204609F097FC18B151
S315000088A0304612F0E6FA01E000F003F8002008B0C6
S315000088B070BD00220021304612F0BFBE2DE9F64FF2
S315000088C085B08A461C4610460CF0DFFB0546BDF80F
S315000088D0180003A9002712F0FAF8002C4FF6FF79CA
S315000088E0B84614BF4FF0010BBB460026BBF1000F84
S315000088F007D008B10DF10C086678760806F0010677
S3150000890004E0BDF818000CF034FB8046DFF8F01BDD
S315000089100978DFF8782C382012684143531C585CDC
S31500008920032818BF042800F0B38010986B1C11446C
S315000089301D5C8DF808A0680800F001008DF809009C
S315000089402806887858BF45F08005022807D15FEAD7
S315000089500A0002BF496B91F82400002801D10227C2
S3150000896030E040460FF042FEADF80000BDF81800BA
S315000089700CF015FB814608B94FF0010930000CBF19
S315000089804FF0050A4FF0010ABBF1000F04D0201D7D
S3150000899011F010FF834601E0BDF800B0BDF81800E5
S315000089A00CF079FACDF80490CDF800A02B465A4683
S315000089B0414600F0010011F0CFFA00F06FF8814651
S315000089C008BF01279CB19DF8080018B9484600F079
S315000089D065F802D1201D11F0EDFE0121019101463D
S315000089E0009733464A464046FFF728FF0AE0BDF89F
S315000089F018000CF050FA3B464A46414600F001008A
S31500008A0011F0A3FD9DF8090020B94FF6FF7140460D
S31500008A1013F06CF9002F3BD19DF8090028B14146AF
S31500008A20484613F08EF913F0F1F930001EBF4846A0
S31500008A304FF6FF71884219D009F09BFAFF2815D02E
S31500008A40DFF8BC7A97F800C0DFF8401B0A683821C7
S31500008A5011FB0CFC02F134034BF6FF7153F80C20AA
S31500008A60526832F810300B4022F8103084B10FF003
S31500008A704CFE0EB1002405E09DF80810002914BF35
S31500008A8003240124014643464A46204613F0CEFB02
S31500008A9007B0BDE8F08F0000E39E00204FF6FF719F
S31500008AA0884270472DE9FE4F81460F46144601A9BC
S31500008AB0384612F00CF883460020009038460CF039
S31500008AC0E4FA8246DFF8445B5FEA090108D0BBF1AD
S31500008AD0000F18BF0DF1040B11F0EEFF064604E07F
S31500008AE038460CF046FA83462E4638460CF0CDFA48
S31500008AF002590DF10100009211F05CFE80469DF8CE
S31500008B0003405FEA090006D008222946304613F0E2
S31500008B10E3FE002823D1DFF8E86931783825DFF84D
S31500008B20342B15FB01F112685318D87818B19AF84E
S31500008B300100830714D55FEA090011D0901C415C3F
S31500008B40022908BF002C0BD140460FF0EAFD0EF0BB
S31500008B501EFD9923FFF7BFFA9920FDF751FF6EE03E
S31500008B6004F055FC0028DFF8F07A18BF002C05D079
S31500008B709420FFF778FA0020387660E004F047FC8E
S31500008B8000285CD0584612F0F0FEFF28DFF8E447D4
S31500008B9018BF5FEA090106D1327848205946424398
S31500008BA0A05A13F0CEF813F031F9317848205A461E
S31500008BB041434046615ADFF89C4A00F00FFBDFF85C
S31500008BC09C0A90F90210090279843078216815FB15
S31500008BD000F08A1C125C012A16BF312A1122432298
S31500008BE0891C0A540220FDF798FEDFF8740A016812
S31500008BF000F032F811F0B7FD00203874317815FB1B
S31500008C0001F521684A19D07820B907F11800FBF759
S31500008C10EFFD12E0B9F1000F06D09AF801008207C5
S31500008C2002D5FFF777F908E0481C415D042904D115
S31500008C30052100F011F809203874AD21F97300F010
S31500008C40E3FB10B1002002F023F8BDE8F78F000027
S31500008C5000F8FF071CF7002007F11800FBF7D3BD4B
S31500008C602DE9F04F88468DB040460CF00EFA83464B
S31500008C700922002113F062FE054640460CF079F900
S31500008C80814602AB052205A9404613F0AFFE8DF8DA
S31500008C90000002282BD09DF8080000234519EDB2EC
S31500008CA00BEB050A9AF8001005F11002D2B28DF806
S31500008CB001104146012013F0B3FE002817D09DF89D
S31500008CC001003826DFF83878DFF8884901280FD008
S31500008CD0022819D0042800F0CF80062822D00728C1
S31500008CE000F0958008283AD07C2800F09780E9E0CB
S31500008CF040460CF0D0F8009500234246002100F0D3
S31500008D000100FFF7DBFDDDE000F0DFF8012B02BF1D
S31500008D10DFF844190878002803D12A464146FFF7B0
S31500008D20C1FECFE0484609F0D4F84FF6FF7105467C
S31500008D30884208D040460CF0AEF82A46494600F074
S31500008D40010011F0EDFB00F0C0F8022B06D1FDF793
S31500008D50E9FD4846FDF701F8FDF7E8FDB2E00AF146
S31500008D60010011F027FDADF800000AF1030011F033
S31500008D7021FD05460AF1060011F01CFD4FF6FF71B4
S31500008D8082468842EAD011F0EEFC3A7820687243B7
S31500008D90811C8B5C132B08D100F0B9FA40460CF00D
S31500008DA0E8F80146284612F0CCFF3A78206872436C
S31500008DB0811C885C022818BF132821D150460FF069
S31500008DC0B0FCBDF800000FF0C8FC0021002000F048
S31500008DD02FFA4946284600F095FBDFF88008C07850
S31500008DE0DFF880180F28B4BF401C0F20087000F071
S31500008DF0C5F8387816FB00F62068811C8A5D132AB0
S31500008E0060D12321801C8155FCF7C2FD5AE09DF8F4
S31500008E10001005AA404601F093F953E09AF80100C4
S31500008E20652802BF0BF10201485D6D284AD1404614
S31500008E301335FEF72DFCE9B2814243D2082249469A
S31500008E4003A8FDF745FC6A46E9B2404611F0BCFCB2
S31500008E50C0BBBDF80000A8B3DFF80C4801202070A5
S31500008E60FDF760FDBDF8001003A8FCF76CFFFDF7E9
S31500008E705DFD0020207025E006220021584613F0F3
S31500008E805DFD584411F096FC04460FF6100000886C
S31500008E9000210191ADF80A00009102230DF10A02AA
S31500008EA00121204611F0D7FD06000BD021460CF01B
S31500008EB024F840460BF0EFFF0022314600F0010097
S31500008EC013F0C1FD0DB0BDE8F08F3A78206816FBAF
S31500008ED002F6811C8B5D7047F8B50220FDF71EFD7A
S31500008EE0FDF723FDDFF87047002020763825DFF8F0
S31500008EF01066DFF860770CF03CFB40B132783968D9
S31500008F006A430A44D07810B9FFF704F82BE00CF056
S31500008F1030FB10B904F07BFA68B1207C58B100F040
S31500008F2023F8207C411E2174FDF7FDFC014600203C
S31500008F3002F035F817E0327838686A43811C8B5C9A
S31500008F40132B0DD004F063FA50B93278386815FB4C
S31500008F5002F5811C485D11281CBF4328412802D117
S31500008F60E07BFFF780F84BE2C82104F11800FBF71D
S31500008F704ABC0020DFF8E0160874704780B5FDF79C
S31500008F80FDFCFF2807D000F065FA416B91F824003C
S31500008F9010B1012000E0002011F06CFADFF8B806ED
S31500008FA000214180001DC0E9001101BDE49E0020A2
S31500008FB02DE9F8430F460446DFF89C560121DFF8F9
S31500008FC09C8684B091466973404601F082F8FEF7AC
S31500008FD02DFD00287CD1012C18BF042C00D084B9AB
S31500008FE0CDF800903B462622AEA103200FF0B5F93E
S31500008FF0FDF798FC4946384600F0EDFDFDF796FC76
S3150000900066E0DFF8FC442278DFF8486638273068E7
S315000090107A43811C885C23280DD104F045F9044667
S3150000902004F04BF9214605F0DEFB022004F06AF954
S315000090300CF0C3F84CE0B9F1000F49D121281CBF50
S315000090400428532802D10EF0D2FF41E004F0DFF9E4
S31500009050E0B101F05BF828B9287B00280CBFAB20F3
S31500009060942030E0404601F034F828B140F2CF6158
S315000090700FF21860FCF762FD28780028404602D1FE
S31500009080FFF7BFF924E0FFF73DFB21E022783068C7
S315000090907A43811C8B5C132B1AD100F019F9BDF8A9
S315000090A000000FF05AFB00F032F9207817FB00F7AA
S315000090B03068C1194978032918BF042906D133211C
S315000090C0801CC1559620FEF7CEFF01E0FEF794FF07
S315000090D01020002109F05CF810B912F0F9FA10B16D
S315000090E0002001F058FF05B0BDE8F083F8B507464B
S315000090F0DFF80C542878DFF85C6538243168604363
S315000091004A1C135CBB4204D0491C0F543846FDF779
S3150000911070FCFEF794FC60B13FB90020FEF791FCAD
S31500009120FDF701FC0146012212E00120FEF789FC51
S3150000913000E027B12A78306800F00FF804D1FDF777
S31500009140F2FB0146002203E0FDF7EDFB012201469A
S315000091500020BDE8F84013F0B3BE14FB02F4411C36
S315000091600B5D042B704770B592B006460C46FDF7B2
S31500009170D0FBE17A0546002014F087F908B98A2069
S315000091802AE094F90A0004F061F908B18B2023E083
S3150000919000F07BF9E17A00F8D41FA27A29464270E2
S315000091A06A46002001F0FFFD4FF6FE708642ADF8DC
S315000091B004606A460CBF4FF6FF702089ADF80200C6
S315000091C02946002001F014FD08B1022004E02089A0
S315000091D0DFF884144880002012B070BD38B50C4604
S315000091E015460FF09EFA0FF033FB2946204600F095
S315000091F089F900F08BFF38B1DFF86004C0780F28DA
S31500009200ACBF0F20401C05E0BD4A00F007F80CBFBC
S3150000921000200120DFF84C14087031BDDFF834045B
S315000092201378016838204343C818417801297047EC
S315000092307FB504460E4600F04BF8B14DC4B1DFF8D9
S315000092402C24002130460EF0ACFC29783820CF4A79
S31500009250414310680822435C08448DF80430417885
S3150000926002A88DF805102146FDF732FA15F0D0F860
S315000092702A784820DFF8F8134243881810F8D41FDC
S315000092808DF8031041788DF802100FF05AFAADF8F8
S3150000929000000FF03AFAADF8060000F01BF87FBDAB
S315000092A000000000424242001FB5044600F010F8DC
S315000092B01CB100208DF8050007E00FF026FAADF886
S315000092C006000FF03EFAADF8000000F003F81FBDEF
S315000092D0684651E010230722694600200EF06ABB5B
S315000092E080B58AB0FFF7F4FFBDF8000004A9ADF819
S315000092F018009DF803008DF81B009DF802008DF8FC
S315000093001A00BDF80600FFF72EFF0BB000BD70B5C2
S3150000931086B0012000F03CF90FF28431D1E9002338
S315000093204FF6FF7504002E46CDE900230ED0744992
S315000093300A784820DFF838634243B018B0F8E26094
S3150000934000F1E40108226846FDF7C2F915F071F84C
S3150000935002A800F011F8002CBDF80E000EBF002286
S315000093606A4635462946FFF739FF15F066FB06B013
S3150000937070BD00008AFA0020014610230722012052
S315000093800EF018BBF8B504460820FDF7C7FAFDF73E
S31500009390CCFA5B4DDFF8DC022B780178482043439A
S315000093A0DFF8CC22D01880F8D41000F02DF810B1D8
S315000093B0002001F06DFC00210020FFF739FF29781D
S315000093C03826724F3868714301444878032818BF1D
S315000093D0042802D111F04CF801E010F0E4FF204619
S315000093E001F024FD9B23FEF776FE9B20FDF708FB8C
S315000093F029783868002216FB01F63044028542853A
S31500009400BDE8F140FDF792BA002013F0E7BF10B5B2
S3150000941004462146002014F038F808B98A2010BD09
S3150000942000F018F88078022818BF032801D07020B1
S3150000943010BD904804700820FDF76FFA00F080FC1C
S3150000944008B13D2010BD8C4A8C4901F0D6FC00B114
S31500009450A12010BD2A4A7F4813780168382043436B
S31500009460C818704710B5044600F06AFC08B13D20E4
S3150000947010BD00F00AF880F8D440FFF7C5FF10B120
S31500009480002001F005FC002010BD1D4A137848207D
S3150000949077494343C818704738B584B004466846D0
S315000094A0FFF76AFF9DF8050040B1042806DC00F0CE
S315000094B09AF89DF80410525D8A4201D0932001E08B
S315000094C02070002005B030BD1FB504466846FFF782
S315000094D053FF082202A92046FDF7FAF81FBD084BE4
S315000094E010B500F005F8664910194278885C10BD81
S315000094F058481C7802683820444370470000000032
S31500009500D8FF00202DE9F84381465E4E3078482585
S315000095100C466843564F92B0391807F1E408A1F893
S31500009520E29040441CB90821FDF7CEF803E008227A
S315000095302146FDF7CDF8FDF7ECF901466A46002015
S3150000954001F031FC30780822684308EB000104A8DA
S31500009550FDF7BEF8ADF80E90FDF7DBF901466A4659
S31500009560002001F045FB30784FF6FF7115FB00F542
S315000095707819B0F8E20088421EBF002C08EB0501FE
S31500009580FCF7F9FB13B0BDE8F0830000C49A002095
S315000095903EB50446304890F820104FF6FF75C807D0
S315000095A008D500F01AF8BDF80800A84202D000F06D
S315000095B00FF828B100212846FFF7A4FF00203EBD82
S315000095C024B1BDF808006946FFF79CFF01203EBDA7
S315000095D00822FF21684603F008BF0A230A226946CB
S315000095E001200EF0E7B9274B1A491D780A68382181
S315000095F04D437047234A1748137801683820434380
S31500009600C818416B91F826007047000014F8002036
S3150000961038B5FBF7F4F905461B4908F0BEFB0446CE
S31500009620FF2818BFFDF781F9164B002028701D781A
S31500009630084938200A6845435019416B0020FF2C21
S3150000964081F8260000D000E031BDBDE83140FDF7CD
S315000096506DB90000C49A0020D8F70020FCF700205E
