:10400000089500204561030011010100896003004B
:10401000A70A0A010042000004180FAC2069000141
:104020000000000000000000000000000000000090
:1040300000000000447303000000000000000000C6
:104040000000000000000000FFFFFFFFFFFFFFFF78
:10405000FFFFFFFF00600500100000000060060089
:10406000FFFFFFFFFFFFFFFF8000000000000000D8
:104070000000000000000000000000000000000040
:104080000000000000000000ECFF0020ECFF00201A
:1040900008950020B0DE030016620300A88B002004
:0C40A00064160020006006000000000014
:104200000895002045610300110101008960030049
:104210002DEC02008D60030091600300000000009F
:1042200000000000000000000000000047AC00009B
:10423000956003006389000023BD000097E400003F
:104240009D6003009D6003009D6003009D6003006E
:104250009D60030043ED0200857400007D2503008E
:104260004D25030063250300AD29010091340100B1
:104270009D600300BB3401009D6003009D6003004E
:104280009D6003009D6003009D600300C7E4000083
:104290009D600300F9FB02009D6003009D60030028
:1042A0009D6003005FFE020051FE02009D6003005E
:1042B0009D6003009D6003009D6003000B3E0300B2
:1042C000CF3D0300CD3D0300AD380300093E0300A0
:1042D000D13D0300D53D0300D33D03003D5803000D
:1042E0003D3E03009D6003009D600300ED650000FE
:1042F0009D6003006BF702009D60030007ED000066
:104300009D6003009D6003009D6003009D600300AD
:104310009D6003009D6003009D6003009D6003009D
:104320009D6003009D6003009D6003009D6003008D
:104330009D600300103730B54A4A4A4B4B4C246805
:10434000650702D54FF0FF3030BDC50701D41C42D0
:1043500005D100EA04058D4206D11C4202D06FF05F
:10436000010030BD002030BD521EE7D16FF0020EBB
:10437000500970B50C463D4D6860E868403C400A05
:1043800070BD54F8040BA860161F03E00A104936EC
:104390001F46B108210820FFF7CAFF0100F4D0042E
:1043A00021296070BD0420286000F024F801000479
:1043B000D100212120BDE87040B9E770BD38B52992
:1043C0004CE168090C01F0010541F67131E162012F
:1043D00021264A1160606002202032120B32100741
:1043E00001D100F007F80121211820060DB10021AC
:1043F000E16232BD44400F99E72DE9F84304468954
:104400004616460020164F394822084812394812ED
:104410001430102102E02C19A944761B76B104F562
:104420000050400B4003051BAE4238BF35462A46BC
:1044300049462046FFF795A61003ECD00121092E2E
:10444000101BB8F1000F1CBF00213962BDE8F283D8
:10445000000080969800020001001C000340100438
:10446000130C1004000120034000000038B504467E
:104470000D46104600F0D9F800202070A847BDE88E
:10448000314000F0E0B800224D494E48EEE70022EE
:104490004D494E48EAE700224D494E48E6E770B5DF
:1044A00004460D461646304600F0C4F80020207041
:1044B0003046A847BDE8704000F0C5B80122464923
:1044C0004648ECE7012246494648E8E701224649CA
:1044D0004648E4E780B5012000F0ECF9444800F0DC
:1044E0007DF94449087001BD80B500F0FBF9012851
:1044F00005D040480078BDE8024000F05AB901BD3F
:1045000030B5002400E0641CE3B23B4D2D88AB4283
:104510000FD23A4BE4B20C2515FB04F52B441D7861
:10452000854201BF5D888D421D799542EBD11846C9
:1045300030BD002030BD80B519B900F0B7F80020BB
:1045400002BDB1F1004F02D200F0BBF8F7E7022044
:1045500002BDB1F5000F3CBF0902FFF7ECBF02201E
:10456000704770B504461D46FFF7CAFF06000ED01F
:10457000204600F0FFFC50B12946B068FFF7DBFF92
:1045800028B9049870710598B071002070BD0220A0
:1045900070BD1CB5049C019400931346012205E0F4
:1045A0001CB5049C0194009313460022FFF7D9FF29
:1045B00016BD80B500230093FFF7F2FF02BD000097
:1045C000270C02006CA5002055E4000074A5002013
:1045D0007D8002007CA500202FE2020054A500206F
:1045E0003BE301005CA500209F15020064A50020AC
:1045F00070960020A7FE0020DC9E00204C96002034
:1046000080B5FFF77DFF20B1002180680170002098
:1046100002BD022002BD0122F2E70022F0E770474E
:104620000C480D4908600020704700B170207047A9
:104630000020704780B500F013F8FF2801D1A320B7
:1046400002BD002002BD00207047704700BF034834
:1046500000787047AADA030018AA002084A7002077
:1046600080B500F092FCFF2818BF002002BD002199
:1046700001707047007800B10120704700F016B853
:10468000FFF759BFFFF765BF38B54478456800F0BC
:1046900069FF0C214C438A498A4B0A59521B9A42A2
:1046A00038BF0D51BDE8324000F062BF10B504467E
:1046B00000F094FF6060042020702046BDE81040A8
:1046C000E2E738B504460D4600F088FF2D18656016
:1046D000012020702046BDE83240D5E710B50446E1
:1046E000207860B1042806D000F078FF6168754B2F
:1046F000421A9A4201D2002010BD081A10BD4FF094
:10470000FF3010BD70B5044600F068FF054600F0AC
:1047100029FF0646606800226FF0004100F007F8AC
:10472000451925603046BDE8704000F021BFF8B55E
:1047300005460E46144600F051FF024600239CB188
:10474000FF20207010E0087860B1042811D048687C
:104750005C4F111AB9420CD3801AB04202D20646FD
:1047600004B123705B1C083529680029EBD1304661
:10477000F2BD04B123700020F2BD70B5054600F013
:104780002DFF0646504C10E0017869B1042904D091
:1047900041684C4A711A914206D20423037020608A
:1047A0006968884700202060083528680028EBD118
:1047B00070BD10B5044600F011FF0C225443404A6E
:1047C000404B1159401A984207D214446068FFF7D1
:1047D000D4FF2046BDE8104094E710BD70B50446F4
:1047E0003A4E3B4A70781378984204D35FF0F60152
:1047F00038A000F059FF75780C20314A2B4643430E
:10480000691C7170D11801264C600E7200E0457071
:1048100054F8080B0028FAD10846FFF773FF284622
:1048200070BD0000F8B50C244FF0FF3160430091DB
:10483000234D05F1080100220A54244B93F800008F
:1048400068B301F025F820B940F22F1121A000F043
:104850002BFF00F0C3FE024600261C4BDFF864C0AD
:104860005978F0B2884211D260432958571A6745E7
:1048700015D305F10807385C891A80B979B1009819
:10488000814288BF01460091761CE9E7684601F045
:104890001FF810B9684600F0C4FE0120F2BD01F017
:1048A00020F80020F2BD0C214843054B012218449A
:1048B00002727047054908707047034800687047E6
:1048C000C8F700200100008004F80020A5FE0020A9
:1048D000D6DA03006576656E742D636F6E74726F41
:1048E0006C2E6300024800787047014908707047D9
:1048F00042FF002082B0DFF8900800788DF80300B6
:10490000DFF888080088ADF80600DFF88408008822
:10491000ADF80400DFF87C0800788DF80200002074
:10492000ADF800000120DFF870180870DFF86C089F
:104930009DF803100170BDF806104180BDF8041009
:1049400081809DF802108171DFF854189DF80120D4
:1049500001EBC20181609DF80010017301214173D8
:1049600002B07047DFF8300800787047DFF82C1885
:1049700001EB0010407B00F001007047412818BF98
:10498000422801D10120704700207047432818BFFA
:10499000442801D10120704700207047F8B5044633
:1049A00015461E46079B069A00F077FA60B104216F
:1049B00000F05AFD070007D02046FFF73BFE3246C5
:1049C00029462046B8478FE0F1BD2DE9F04383B07A
:1049D00004460D46160098461EBF0A9F002F5FEA48
:1049E00008001ED0387800074CBF402280220C9B64
:1049F0007188307900F051FA98B1082100F034FD47
:104A0000814670B13079FFF715FE0B980190009741
:104A10004346324629462046C847BDE8F743FFF7DC
:104A200012BEBDE8F783F8B500F039F8D0B1210027
:104A30000BD1022100F018FD040013D02846FFF727
:104A4000F9FD31462846A0470BE0102100F00CFD8F
:104A5000070007D02846FFF7EDFD224631462846DD
:104A6000B84741E0F1BDF8B500F019F808B9862063
:104A7000F2BD00278CB9202100F0F6FC04000CD018
:104A80002846FFF7D7FD09980090089B079A314602
:104A90002846A0470746FFF7D6FD3846F2BD054633
:104AA00016461A46069C2346F7E1F8B50446A56863
:104AB0002078FFF7BFFD002612E02868F6B2142127
:104AC00011FB06F147183988207800F017FF012103
:104AD000384600F0C9FC01001CBF20788847761CCE
:104AE0002979F0B28842E8D3BDE8F140FFF7ABBDC9
:104AF00070B50024DFF8A456DFF89C6608E0FFF7E5
:104B000035FF20B1E4B205EB0410FFF7CEFF641CC3
:104B10003178E0B28842F2D370BD10B586B000247F
:104B200001948DF80800ADF80A108DF80C30ADF83E
:104B30000E200898ADF8100000940023002201A96F
:104B400002A800F094F8019806B010BD2DE9F047D6
:104B500082460E461746984697F80290089C200019
:104B60000CBFFD7825464846FFF708FF30B16A1EA6
:104B7000D2B23146504601F060FA1FE04846FFF7D6
:104B800005FF30B1AA1E92B23146504601F06DFACF
:104B900014E0B8F1000F06D1200004D0F878844268
:104BA00038BF89200BD3F9781EB9504601F040FB7D
:104BB00004E00A463146504601F03EFB0020BDE8C5
:104BC000F08710B5002301E0001D5B1C9CB28C42F5
:104BD00004D204889442F7D1408810BD002010BD53
:104BE000DFF86019401A0C2190FBF1F082B200212D
:104BF000DFF85409E5E70288B2F57C4FA8BF00F062
:104C000002B80846ECE7DFF84419401A142190FB7B
:104C1000F1F082B20021DFF83809D2E710B50C4676
:104C20000188638899420DD1027B23791A4209D009
:104C3000B1F57C4F04DBFFF7E6FF2189884201D103
:104C4000012010BD002010BD10B514460A88E3886D
:104C50009A420AD10288B2F57C4F04DAFFF7CBFF03
:104C60002189884201D1012010BD002010BD2DE90D
:104C7000FA4F83B0044693460025002603E0C0881F
:104C80004519ADB2761CDFF810150978F0B28842EC
:104C900080F0B880F6B23101DFF800050844DFF893
:104CA000FC24515C227891428068E8D10090304623
:104CB000FFF75CFE0028E5D04FF0000A05E0B8F8E9
:104CC0000A004519ADB20AF1010A009909795FFAA3
:104CD0008AF08842D6D2009800685FFA8AFA1421D6
:104CE00011FB0AF100EB010821464046FFF796FF51
:104CF0000028E4D04FF0000908E03879302108425C
:104D000002D1F8782D18ADB209F10109B8F80810F0
:104D10001FFA89F08842D6D2D8F804001FFA89F920
:104D20000C2101FB09F14718224639464046FFF79E
:104D30008BFF0028E1D0039800B107603879800626
:104D400010D5DFF80008002106E00279920602D5AE
:104D5000C278891889B20C30B842F6D3DFF8F4076C
:104D6000461802E0DFF8F00746190E9D28001DD016
:104D7000DA4639464046FFF73EFF02463B886188E7
:104D8000207800F0B7FD20B33879C00630D5002D6B
:104D9000394640461FD0FFF72EFF0346CDF800B03E
:104DA0003A466188207800F0BAFD2CE0BBF1000F94
:104DB00008BF002027D0B2465E4639464046FFF77E
:104DC0001AFF3B8802466188207800F091FD002898
:104DD000DAD17E2017E0FFF70EFFF9780191CDF8C8
:104DE00000B003463A466188207800F096FD0AE05C
:104DF000BDF8100000902B463A4651463046FFF76A
:104E0000A5FE00E0862005B0BDE8F08F2DE9F8454D
:104E10000446884616469A46002503E0397B090673
:104E200016D46D1C2179E8B288421ED22068EDB2FA
:104E3000142111FB05F1471838884045F1D13100A4
:104E400006D0802EEAD0402EEBD1397B4906E8D53A
:104E5000B0F57C4F07DB3846FFF7D5FE504518BF4D
:104E60005FEA0A00DDD1384600E00020BDE8F285A7
:104E700080B5134607E080B51346402204E080B5B4
:104E80001346802200E0002200F007F800B1012064
:104E900002BD80B500234022F6E770B50C461546EA
:104EA0001E4600F072F8FF2801D1002070BD334685
:104EB0002A462146DFF8E44204EB00108068BDE892
:104EC0007040A3E770B50C4615461E4600F05FF82B
:104ED00028B933462A462146DFF8C002EEE7002013
:104EE00070BD1346402201E00022FAE72DE9F84F99
:104EF0008046894692469B460026FFF7CEFF08B9BA
:104F0000FF201AE00027DFF89442DFF88C5200E01F
:104F10007F1C2978F8B288420ED2FFB23801205C9B
:104F2000404509D05B4652464946FFF7CBFF002873
:104F3000EED0761CF6B2EBE73046BDE8F28F30B526
:104F40000022DFF8583200E0521CDFF84C522D7876
:104F5000D4B2AC420CD2D2B214011D5D8542F3D161
:104F60000D0003D01C44647BE407EDD5104630BD32
:104F7000FF2030BD80B50021FFF7E1FFFF2801D100
:104F8000002002BDBDE80240F0E40121D7E7002186
:104F9000D5E782490001085C704738B50C46FFF739
:104FA000F4FF01460020FF291FBF7C4A02EB0111DC
:104FB0008968002916D0002203E01B0648BF284656
:104FC000521C0D79D3B2AB420BD20B68D2B214256E
:104FD00015FB02F52B441B7B451C002CEDD05B061A
:104FE000ECE7C0B232BDF8B50C461546FFF7CDFF71
:104FF00001460022FF291DD0002301E0521C5B1C4A
:10500000664800EB011080680779DEB2BE4211D21B
:105010000068DBB2142616FB03F63044067B2F0033
:1050200002D0760602D4EAE73606E8D5D6B2A64222
:10503000E4D1F2BD0020F2BD002109E010B5044624
:10504000012100F005F82046BDE8104001F04FB9FD
:105050002DE9F34F87B001F014FA06904E4800781E
:10506000059000249DF81C000190DFF8308100E0DD
:10507000641CE4B205998C427BDA0199FF2907D0C0
:105080009DF81C00FFF781FF0446FF2C06D177E056
:1050900008EB0410007B06998842E9D14FF0000A22
:1050A0004FEA041901E00AF1010A08EB09008068DF
:1050B00002795FFA8AF1914257D200685FFA8AFA60
:1050C000142111FB0AF145182889B0F5967FC8BF55
:1050D00001F0B2FA002613E00120009000235A46A6
:1050E000002102A8FFF7C3FD9DF8200038B13B4620
:1050F000BDF80A2018F80910584600F0EEF8761CA2
:105100002989B0B28842CED26868B6B20C21714308
:1051100047183879C006F2D418F809008DF808004D
:105120002888ADF80A00387940064CBF802040201E
:105130008DF80C003888ADF80E0039462846FFF788
:105140005AFDADF81000F8783979490706D5D7F837
:1051500008B00328C0DBDBF800B0BDE70328B4BF0C
:1051600007F1080BD7F808B0B6E70198FF283FF41D
:105170007FAF9DF8200018B99DF81C0000F012F8D0
:1051800009B0BDE8F08F0000D0DA030012BD0300C3
:10519000A8DA0300D1DA030041FF002084A7002031
:1051A000286803003EB5044601F06BF9054601236B
:1051B0007F22282100F08AF800F084F84FF40042A2
:1051C00000F087F801237F22292100F07FF800F00A
:1051D00079F848F2010200F07CF801237F222A21AD
:1051E00000F074F800F06EF84EF2050200F071F86D
:1051F00001237F222B2100F069F800F063F84EF2C2
:10520000060200F066F802237F222C2100F05EF8EF
:105210002120009001AB4EF2070200F05AF8012362
:105220007F222D2100F052F800F04CF84EF20802D7
:1052300000F04FF801237F222E2100F047F800F004
:1052400041F84EF2090200F044F80120FFF708FA95
:10525000012C03D0FF2C08BFA84232D101237F22AA
:10526000242100F033F83020009001AB00224FF4ED
:10527000A06100F02FF802237F22252100F026F8FC
:105280003120009001AB01224FF4A06100F022F820
:1052900008237F22262100F019F8F020009001ABAE
:1052A00010224FF4A06100F015F801237F2227217E
:1052B00000F00CF800F006F811224FF4A06100F0A5
:1052C00009F837BD2020009001AB704701A801F01C
:1052D000BABA0021012001F07ABBF0B583B00446D0
:1052E0000D4616461F463879800740F1B5800021EB
:1052F000CDE9001104B96C4630006FD13888B0F5A3
:10530000004F0AD100F0ADF838B93879400604D41E
:1053100000F0A3F8282001F0C4FA388848F201010F
:1053200088420AD100F09DF838B93879400604D493
:1053300000F093F8292001F0B4FA38884EF2050104
:1053400088420AD100F08DF838B93879400604D483
:1053500000F083F82A2001F0A4FA38884EF2060102
:1053600088420AD100F07DF838B93879400604D473
:1053700000F073F82B2001F094FA38884EF2070100
:1053800088420BD100F06DF840B93879400605D459
:10539000022322467F212C2001F083FA38884EF226
:1053A000080188420AD100F05CF838B93879400623
:1053B00004D400F052F82D2001F073FA38884EF230
:1053C000090188420AD100F04CF838B93879400612
:1053D00004D400F042F82E2001F063FA012D08BF3A
:1053E000B6F5A06F38D1388850B900F03AF838B91E
:1053F0003879400604D400F030F8242001F051FA46
:10540000388801280BD100F02CF840B938794006D3
:1054100005D4022322467F21252001F042FA388854
:1054200010280BD100F01DF840B93879400605D49A
:10543000082322467F21262001F033FA38881128DC
:105440000AD100F00EF838B93879400604D400F0DB
:1054500004F8272001F025FAF7BD012322467F2119
:1054600070473846FFF7BCBB30B501220023047BF0
:105470000C4205D1002030BD144218BF5B1C520005
:10548000D5B28D42F8D30069DBB250F8230030BDAD
:105490003249401A8003020C00213148FFF791BBCA
:1054A0002DE9FE4F0C4600254FF0010A0028607DD3
:1054B00007D0010008BF022707D0012804D1012727
:1054C00003E008B9082700E00427A846DDF8349077
:1054D000DDF83CB0214800EB88063088BDF80410A8
:1054E000884227D1F078384224D0B0789DF838101F
:1054F00088421FD3E07BF178C90607D5D0B130468A
:10550000FFF7C6FF218A814201D013E090B9AB4575
:1055100003D0BDF83000854202DB4FF0000A0EE0F8
:10552000B07802994855B9F80000401CA9F800006D
:105530006D1CADB208F10108B8F10A0FCADB504684
:10554000BDE8FE8F00650300346803004C6703006C
:10555000306803001CA4002094A70020D46403003A
:10556000FC640300EFF31180302181F31188704750
:1055700080F31188704770477FB500F011F818B9B3
:1055800000F015F801F022FC04B070BD7FB500F00A
:1055900007F818B900F00BF801F02FFC04B070BD4B
:1055A0000446084615461E4602A901F023BD089987
:1055B000099833460091029901902A462046704787
:1055C00080B500F00DF880B202BD80B500F008F89B
:1055D000FA21B0FBF1F080B202BD000000BF000074
:1055E000E0B501F0E9FC6A4601F035FD18B14C2147
:1055F00028A000F059F8DDE9000103B000BD00006B
:1056000080B501F0A8FE01F0B1FB20B15FF05701B9
:1056100020A000F049F8002002BD012010490870C8
:105620007047FEB504462168002501B91CE000F072
:105630000CF808B100F002F8012019E0019500957E
:10564000216800233A46301D96E7054E3570054F18
:105650000023019500933A46301D97E700000000B3
:10566000F4F800201B56000000F03BF90020FEBDBE
:1056700002F048F8307840B92146301D01F02CFC8A
:105680002068852501F0CBFC01E00020307020600F
:105690002846FEBD73797374656D2D74696D6572EE
:1056A0002E63000042DE704738B504460D4600F018
:1056B000C3FF02F041F82946204602F042F82B468B
:1056C00022466949012002F09EF829462046BDE89D
:1056D0003440E7E72DE9F0474FF42068634D2E1D75
:1056E000634801687165016AB16562490A68F265DB
:1056F00049683166416A7166816AB166C16AF1665C
:10570000016B3167806B706796F8340040074CBFBF
:10571000F46BB46B274602F0A7F80146316500220E
:10572000F26405F19003DFF850C1DFF850E1544A0C
:10573000844224BFA2F1200AA24518D3A069306494
:10574000E4697464746DC4F30804062C13D17045C5
:1057500011D360450FD200884DF64264A0420AD1B1
:10576000306858607068986040F2017803E0002764
:105770003764776407464348814202D2014600E01D
:10578000091D0846904203D20C68B4F1CD3FF7D012
:105790003D49081AB0640020002105EB8004E16750
:1057A000401C0628F9D3002003E0C0B205EB8004BA
:1057B000E167974223D252F8041D7145F9D3614540
:1057C000F7D2CC07F5D5002405EB8409D9F87C90F5
:1057D000894502D0641C062CF6D3062CE9D100289A
:1057E00014BF401E0520E0E7B16F002405EB8402E2
:1057F000D2F88070D767641C052CF7D31960014676
:10580000481EC9B20029EFD1706DC0F3080003280B
:1058100010D0042811D0052812D0062813D00C2847
:1058200017D03B2818D119480068800719D540F2D5
:10583000025816E040F6012813E040F6022810E076
:1058400040F603280DE0B8F5206F0AD140F6042891
:1058500007E040F6052804E018B14D2838BF40F6AF
:1058600007284046BDE8F087C4750300000000200B
:1058700004ED00E000E300E0166203006C44000069
:10588000089500209C000020089500201880014AFF
:10589000EFF31080C00706D4EFF311803028804169
:1058A000C043C00F70470120704770477047704772
:1058B00070477047704770477047704770470020C7
:1058C000704770470020704770477047002070474E
:1058D00000207047704770477047704770477047A7
:1058E0007047002080F3118870477047012070478F
:1058F00001207047012070477047704770470020B3
:10590000704700207047002070470020704700203B
:105910007047002070470020704701207047012029
:10592000704700207047002070470020704700201B
:10593000704700207047B5207047002070477047BF
:105940007047842070477047002070477047704749
:1059500070470020704700207047704770477047BD
:1059600070470120704700207047034800680078A6
:10597000012808BF0220704718AA002070470020A5
:105980007047012181814FF6FE71C18101210161C2
:1059900000210170012070477047002070470020EF
:1059A0007047002070477047B5207047002070474F
:1059B000002070470020704770477047704770475D
:1059C00070470020704770477047704770477047B6
:1059D00080B5FFF7DAFAFF2804D018B9DFF8880796
:1059E000007802BD002002BDF0B504460026002765
:1059F000059D092D02D300200021F0BDB4460FE023
:105A00003F0247EA16675FFA8CFCA5EB0C002044C6
:105A100010F8010C002110EB06264F410CF1010C8F
:105A20005FFA8CF0A842EBD39F4206D828BF96427B
:105A300003D2901B63EB0701F0BDB01A67EB0301C3
:105A4000F0BD10B50168DFF824270B8813804B8860
:105A50005380497911710168097951714FF4AA5144
:105A6000D18001688979890644BF4FF4AB51D18058
:105A7000DFF8FC160A7883693BB9C088DFF8F43692
:105A8000188002F0FD00087010BD42F002020A709A
:105A9000DFF8E44616228169204600F0CDFB0020A5
:105AA000207010BD80B50020FEF7BFFDFF20FFF77E
:105AB000C3FAFEF7C8FDFEF755FF01220146DFF8E5
:105AC000A80601F0DBFEDFF8A436DFF8B02652218D
:105AD000DFF8AC0601F0BEFFFEF7FCFC02F028F890
:105AE00002F007FA02F03CFF02F03CFFBDE8014083
:105AF000FEF7FEBF704780B503F031F820B904F01F
:105B0000A5FC08B902F084FCFFF74DFFBDE8014099
:105B1000FFF755BFF8B5044620684079FFF735FA1E
:105B20002268DFF86456FF280BD100F05CF8DFF83C
:105B30005C16022004F035FD20684279DFF850162B
:105B400040E0DFF8501601EB0010DFF84C66017BF7
:105B5000237F994208D000F046F8DFF8403600F085
:105B600048F8227FA0A12DE040881188DFF8307628
:105B700088420FD04FF6FF73994202D1B0F5004F23
:105B800008DB00F030F8DFF81C3600F032F820684F
:105B9000028816E02079022818BF032817D111893E
:105BA0005079FFF7B8FE90B9E37C20684288294617
:105BB000022004F0F6FCDFF8F03500F01AF8206857
:105BC00002893946022004F0E6FC0020F2BDA07BE9
:105BD0000028204603D0BDE8F24004F0F3BCBDE845
:105BE000F24004F027BDE37C52882946022004F0ED
:105BF000D8BC206842793146022004F0D2BC38B5C6
:105C000014461A4623785B074CBF052303239A42A8
:105C10002ED3069D286029710498E880AC60AA8183
:105C2000207800F00100A8732078800800F00100BF
:105C3000E8732078C00800F001006875012028751D
:105C4000E87B30B10121204604F0D3FF297D891C77
:105C500029752882287D411C2975205CA874481C60
:105C60002875C9B2615CE974A989C0B2814201D2C8
:105C7000002032BD0598A86100F003FC28770120C0
:105C800032BD2DE9FE430F460025DFF82065DFF821
:105C9000201591EC080B86EC080BDFF8E8840B9CD0
:105CA000029601940A9900913946FFF7A8FF00284F
:105CB00073D0C8F80060B07CDFF8F8140870304684
:105CC000FFF7BFFE304600F013FB98BBA4BB042FC8
:105CD00018BF052F03D0022F18BF032F01D10122B7
:105CE00000E000223068F18801914188009103882A
:105CF0000121F07C00F04EF908B330688179890603
:105D00001DD44288DFF8B014022004F044FCDFF810
:105D1000AC54012028700121304600F039F938B127
:105D20000346DFF89C24DFF89C14022004F033FCC7
:105D300000202870012530E0207D80072DD53068B7
:105D40004079FF2825D10027DFF82044FEF70AFE1E
:105D5000F9B2814221D2F8B2FFF71BF98146F8B2BD
:105D6000FEF704FE98B1328A306841884846FFF752
:105D70007FF860B13046FFF764FE306880F8059028
:105D800084F804903046FFF7C5FE00B101257F1C62
:105D9000DCE73046FFF7BEFE054604F0A5FE1621FF
:105DA000DFF8D40304F04CFF0020C8F800002846B8
:105DB000BDE8FE83DFF810040178491C017001F092
:105DC0007F00704778B1DFF804140978012903D106
:105DD000018841F0400105E0022904D101884FF615
:105DE000BF721140018070472564000078B1DFF870
:105DF000E0130A78012A04D1DFF8D82312780A7058
:105E000001E0022A03D1017841F0100101707047CE
:105E10002DE9FE43DFF858432178CA0706D5DFF89D
:105E2000B813022004F0B7FB002068E0DFF8542329
:105E30001268CE4D72B1126893799B0603D5EB8838
:105E400043F02003EB809279520603D5EA8842F0B2
:105E50004002EA80CA4E32785207DFF8582312789F
:105E60004CBFF2707270C54F89070CD54FF04908CE
:105E700032463988C048FFF75EFD8146207800F041
:105E8000FD0020701AE0BB490C884FF6FC718C4273
:105E90000ADA4FF05508019000963B882A462146C1
:105EA000002005F005F808E04FF042080090334666
:105EB0003A882946204604F0E9FF8146A879800601
:105EC0004CBFC64C45A405F05DFA0294CDF8049091
:105ED000CDF80080C24B0246C249022004F05BFBB1
:105EE000C149022004F05DFB01233A8831460220BB
:105EF00005F061FA9BA1022004F04DFB4846BDE885
:105F0000FE83002084E70A4601469E48006801E0BF
:105F10000021F8E770B504460E46154620790100C9
:105F200018BF01280BD1A0680078C00601D5300049
:105F300005D0A07B002804BFE07C0B2801D1002005
:105F400070BD00208D490880607D00280CBF0820AE
:105F50000020E17B11B904F0DCFD06E040F0040014
:105F600004F0D7FD208A04F0E3FDA07C04F0D1FD0D
:105F70000B2004F0CEFDE07C04F0CBFD304604F0B5
:105F8000C8FD2046FFF75DFD2846BDE870403FE7AD
:105F90000022BFE770B504461D4694480078874B41
:105FA000012801D01E7816B10020187070BD82F053
:105FB00001020A4301D1002070BD00281EBF0498D1
:105FC0004FF65742904206D023460A4601462846DD
:105FD000FFF795FC00B1012070BD0000000000003B
:105FE00038B54FF6FD735224D288950648BF492430
:105FF000550544BF083CE4B2150544BF083CE4B273
:10600000120444BFA41EE4B2032810D8DFE800F055
:106010000204080D0B460AE0C8B205F073FA02E06C
:10602000C8B205F099FC034601E0641EE4B21846CC
:10603000FFF77FFC201AC0B232BDB0B504460D0098
:1060400017460EBF00202878FF2801D12070B0BD70
:10605000284604F0D8FD874288BF07463A46691CA7
:10606000601C00F0E9F82770B0BDF8B504460D00DB
:10607000164603D1002060702070F1BD2878FF28FB
:1060800002BF6878FF2820700DD0284604F0C0FDBC
:106090000746BE42B8BF37463A46A91CA01C00F0CE
:1060A000CBF8277038126070F1BDF0B5541E002B8C
:1060B00037D0052A48DA0025002600230CE0571EB9
:1060C000FF1AFF000CFA07FC4CEA050511F80EC098
:1060D0000CFA07F73E435B1CDFB2974209D2DBB2F2
:1060E000A4EB030E00280CBF4FF0000C10F80EC0FC
:1060F000E5E7042A0FDAD000401E0121D2009140CA
:10610000494245FA00F2D20748BF0D4346FA00F271
:10611000D00748BF0E43AE420FDBB54214DA10E0A1
:106120005B1CDDB295420FD2DBB2E51A00280CBF32
:106130000026465D4D5DB54201DA0120F0BDAE425C
:10614000EEDA4FF0FF30F0BD0020F0BD0021284A0C
:1061500001E0891CC9B2535C8342FAD350184078DD
:10616000704700005D00000046FF0020B8A9002035
:106170004BFF002076F90020A0AA002002FA0020A0
:10618000C4A900209CAA002074690300946903003C
:10619000B069030084A70020B8690300E069030028
:1061A000F0690300E8690300F86903007CAA002095
:1061B000C46A0300059F0020006A030047FF002017
:1061C000506A0300286A0300069F002048FF002051
:1061D00049FF00204AFF0020586A0300A46A030018
:1061E0009C6A0300806A0300B46A0300049F0020D5
:1061F000E46A0300283808288041C00F704710F077
:10620000E00011D0802806D0A02806D0C02806D0F3
:10621000E02806D007E01C2070471D2070471E2094
:1062200070471F207047FF20704700F01F00704725
:10623000002201F027BB704781423ABF53189842B1
:1062400005F034BD8018990707D0521E24BF13F8FB
:10625000011D00F8011DF6D8704781071CD1103AC6
:1062600007D330B433E93210103A20E93210F9D2B2
:1062700030BC1032121F24BF53F8041D40F8041D17
:10628000F8D838BF121D521E24BF13F8011D00F8A4
:10629000011DF8D8704700BF083A07D333E9021050
:1062A000083A40F804CD40F8041DF7D20832EAE776
:1062B00080B505F037FDFFF7F5FBBDE8014007F0BD
:1062C000D3BF80B5FFF73BFBFFF714FC08F096F84F
:1062D00008F0E2F8BDE8014002F024BB80B5FFF70A
:1062E0002FFB08F0EEF8BDE8014008F016B9704742
:1062F00008F052B908F050BB0020704738B504468A
:106300000D46FFF760FB29462046BDE8344008F003
:1063100012BDFFF744BBFFF74DBB70472DE9F042BC
:106320007D4E002030707D4C20683821382504F0E7
:1063300087FC33787A49087822686B43D0543078E8
:10634000216800226843084442703078216868431D
:106350000844827008F06EFD327821686A430A446E
:10636000107208F067FD327821686A430A4450725F
:10637000317820686B4A6943014410786A4AC870D2
:106380003378216817686B43C818476167490A78F2
:1063900002763078D4F800C0654A074615FB07F34B
:1063A00012680CEB0301CA61624AD2F800902C22F9
:1063B000574309EB07020CF13407FA5008F04CFD83
:1063C0003078216815FB00F501F1340251594A6813
:1063D0000968BDE8F04208F0A4BD80B592B06A46F5
:1063E0000021002008F005FF08B1012018E0524903
:1063F000524A0A910B925249524A0C910D921091B5
:106400005148524A52490990524B0F9211910E93A2
:106410006A460021002008F011FE00B10120C0B240
:1064200013B000BD80B5002000F01AF828B100209C
:1064300000F005F808B1002002BDFF2002BD364A79
:1064400036481378016838204343C81880780228FA
:106450001CBF1128432801D101207047002070473C
:106460002D4A2E481378016838204343C8184078D5
:1064700001281CBF0228032801D1012070470020F9
:106480007047002070470020704770470020704719
:106490000120704770470020704770477047002008
:1064A000704780B500F020F820B10020FFF7D8FF3A
:1064B00000B1012002BD80B500F016F808B100203F
:1064C00002BDFF2002BD10B5044600F00DF848B132
:1064D00000F019F84078012818BF022802D10CB941
:1064E000012010BD002010BD0020A8E780B5FFF7F7
:1064F000FBFF30B100F007F84178032901DA0020F2
:1065000002BDFF2002BD044A044813780168382008
:106510004343C81870470000D5FF0020509B00205F
:10652000299F00202A9F0020589B0020219F0020A7
:106530005C9B0020549B002063C30100B7580000FF
:1065400079C4010059B102007DC20100AF710100A0
:1065500071AA010071C601000021002008F045BFAA
:10656000002818BF09F00BBA704709F0CDBD09F03B
:1065700095BC33B585B005468DF8042003F0C0FE08
:106580000446284603F0CCFE7CB10028BDF8180074
:106590000FD103F0CDFFFF288DF8000004BF0021CC
:1065A0008DF80010CDF808D016E0A8B106A802902A
:1065B00012E003F0BDFFFF288DF8000003AA04BF1E
:1065C00000218DF800109DF80000BDF8181002920F
:1065D0008DF80C00ADF80E10DDE901010A46014608
:1065E000284602F0C5F907B030BD704709F090BDEC
:1065F00010B584B068461A491CC91CC001208DF82A
:1066000000000D208DF8060003208DF807000821FA
:10661000242009F0B5FE694612480AF064F94FF4E7
:106620000060114908600221104A11601049086099
:106630000220104908601FBD0A480AF043B9A52886
:1066400003D1002107480AF02BB970470A480068B7
:1066500000F001007047094800680028FBD170472E
:10666000C08203000080014A84E200E018A0014AD1
:1066700004E100E01C90014A0480014A2480014AA0
:106680002DE9F04F89B00AF060F908B1C620CBE0DF
:10669000DFF8AC42DFF8AC62316820680BF0FFFC39
:1066A00005002CD0326851681068926912689047D2
:1066B00004A8316889698968884702203168896936
:1066C000C9688847002506E0006802FB05000969E3
:1066D00088476D1CEDB230688169059A4368B3FB49
:1066E000F2F39D42F0D30020C96888473068806982
:1066F00040688047316820680BF0D1FC05460026D1
:10670000DFF84492DFF84482002D64D1DFF84002C4
:10671000805DF0B1DFF83C0250F8267001AB6A46AC
:10672000394620680BF0BFFE404507D0002852D103
:10673000009801284FD0394600F07AF8DFF81802A7
:1067400050F826000268394620680BF0F0FD054637
:1067500041E00027DFF8FC0150F826A0DFF8FC013B
:10676000805D8DF8080005E0019819F80610884250
:106770000FD17F1C9DF80800874216DA00F05BF805
:10678000404506D00028F4D100980028ECD000F055
:106790004EF819F80630DFF8C00150F826205946A7
:1067A00020680BF03EFD0500E3D0DFF8B401805D0A
:1067B00088B19DF80870DFF89C0150F826A000E031
:1067C0007F1C7F2F07D200F036F8404503D000F041
:1067D0002EF80500F4D0761C3A2E95DBDFF8840104
:1067E0001DB901210170002515E000210170002D67
:1067F000F9D0DFF874012D1A08D06D1E08D0AD1E37
:1068000008D02D1F0CBFC125C52504E0C22502E01C
:10681000C32500E0C4252068007C20B1D321DFF827
:106820004C01FEF741FF284609B0BDE8F08F5946FC
:1068300020680BF07DBE07EB0A0B01AB6A46594698
:1068400020680BF030BE70B515463A2920DADFF823
:106850001421127882B1DFF8E8201468DFF8F460C0
:10686000DFF8EC20525C42B1024656F82110204677
:106870000BF0A2FD00B144E070BD7F2D08BF0025E4
:10688000024656F82100411920460BF00AFDF1E7B7
:10689000FF2903D9BDE870400BF0F9BE40F20111A9
:1068A00033E070B515461A463A2820DADFF8B430DE
:1068B0001B787BB1224B1C68DFF89860DFF89030C2
:1068C0001B5C43B12A6856F8201020460BF02FFDC0
:1068D00000B116E070BD7F2908BF002113462A468B
:1068E00056F82000411820460BF09BFCF0E7FF28EB
:1068F00004D92946BDE870400BF014BF4FF49A71DB
:1069000003E0BDE870400BF084BFDFF86000BDE835
:106910007040FEF7C9BEDFF84C10097801B9704726
:1069200080B50022DFF82C1051F8201004480068D0
:106930000BF076FD18B1BDE802400BF06ABF01BD57
:10694000C0990020E099002028B903000BE000F076
:10695000B0B80300C8B7030014BC030064B9030057
:10696000ECB803008BFF002001E000F06884030016
:106970002DE9F04786B006468A46904699460E9C19
:106980000F9F109D029501970094FEF7AFFF18B17D
:10699000022803D002D310E001200EE00CBF01203A
:1069A00000200021049103900295019700944B462A
:1069B00042465146304600F003F906B0BDE8F08784
:1069C00010B586B000F019F80024009411E010B55D
:1069D00086B000F003F8009340230AE000240494FA
:1069E00001240394089C02940193002370470093B0
:1069F000802300F0E5F806B010BD002404940124C3
:106A00000394099C0294089C0194704710B586B0C9
:106A100001240494002403940A9C0294099C019488
:106A2000089C0094E5E71FB5089C0394079C02941A
:106A3000069C0194002400940CE01FB500F001F8BE
:106A400006E000240394069C0294019300237047FF
:106A50000093402300F06BF904B010BD2DE9F44F12
:106A600084B006468A461D460024A346D946DDF872
:106A7000388043462A46FEF710FA07008DF800607A
:106A8000ADF802A08DF80450BDF81000ADF8060076
:106A9000ADF8088049D069463846FEF7BFF80028AF
:106AA00043D00025DDF83C80DDF840A005E004F08F
:106AB00030F8641C09F101096D1C3989A8B28842BB
:106AC0002BD27868ADB20C21694346183888B0F5EE
:106AD0007C4F09DA3088ADF806006A463146384600
:106AE000FEF7B2F80028E7D03088BDF810209042B9
:106AF00038BF0BF1010BDDD3A1B24145DAD204F06E
:106B000017F8B07804F005F85FEA0A00D1D03079C0
:106B1000C0074CBF07200520C9E71FFA8BF111FA07
:106B200084F01FFA89F1884201D1012000E00020A1
:106B300005B0BDE8F08F70B5C6B015464B9C052C6E
:106B40002FDB04AA0392FF22029205AA01924A9A1D
:106B500000922A4600F0EBF8060024D1FF2205A996
:106B60009DF810000BF066FE06001AD0201FB04200
:106B700017DB284603F0DCFF002003F0CAFF9DF876
:106B8000100003F0C6FF0C4C2588C5F152018E425F
:106B900007DA324605A9094B5819FFF74DFB701962
:106BA000208046B070BD284603F0C2FF304603F097
:106BB000B0FFF6E70000000002FA0020C4A90020A0
:106BC0002DE9F04F89B081468A46934698460020C9
:106BD00004908DF81490ADF816A08DF81880ADF8DB
:106BE0001AB0129CADF81C4000900023002204A9AA
:106BF00005A8FEF73CF8049808B986208AE01598A5
:106C000068B99DF8500004998978884218BF8D2092
:106C1000F4D104980079C00758BF88207AD5139D15
:106C200004980079400725D5049880684068029050
:106C3000049880688068019004988078FFF7DAFAF9
:106C400006460498C0788DF80000032833460246B3
:106C500029461DDA02A8FFF728FA074633469DF8B1
:106C60000020294601A8FFF720FA012F18BF10F1D4
:106C7000010F1CD0169800284BD14FF6FF72294601
:106C8000049880780BF0D6FD060012D1012041E077
:106C90000298FFF70AFA012809D033469DF8002030
:106CA00029460198FFF701FA10F1010FE2D1872080
:106CB00030E00395C0B200F030F8FEF76EFE010040
:106CC00028D10395F0B200F028F8FDF7CCFE0100C2
:106CD00020D10120009000232A46002105A8FDF7BD
:106CE000C6FF010016D1049B524649462846FEF7CE
:106CF000F4FA029500F012F801F09AFB0395F6B24F
:106D0000029600F00BF8FEF747FE00F00AF8FDF7D8
:106D10008AFE002009B0BDE8F08F02909DF8500077
:106D20000190009443465A4651464846704710B574
:106D300086B0002401948DF80800ADF80A108DF893
:106D40000C30ADF80E200898ADF8100000940A9BA6
:106D5000099A01A902A8FDF78AFF010004D10B9945
:106D600011B1019A92780A7006B010BD38B5FEF7DD
:106D7000F9FB0446DFF85C55287828BBDFF8581586
:106D80000860DFF858150860DFF8541508800BF02C
:106D90007DFD01200BF0DAFD0BF036FE0200DFF87E
:106DA0004405026004D12046FEF7E2FB232032BDF9
:106DB000DFF8340540F2E73100230BF031FEDFF855
:106DC0002C15086001202870204681E0F0B585B0C0
:106DD00000F028F80CB922200DE003A9204600F0AD
:106DE0005FF89DF80C0008B1032004E000F013F8F0
:106DF000002200F029F805B0F0BDFEB504000D46F4
:106E000016461F4601D12220FEBD00F020F800F0FA
:106E100014F800220EE00B9802900A980190009757
:106E20003346704704460D4616461F4600208DF82F
:106E30000C00704700F008F8FEBD09980290089811
:106E400001900097334670472946204615E2F8B571
:106E5000044600250CB92220F2BDFEF783FB06464E
:106E600000F0F9F9DFF870743868A04208BF012516
:106E7000204600F0B7F9040003D000F0B4F8204633
:106E8000F2BD38681DB118B100F0C7F903E010B9C0
:106E900002200BF068FD3046FEF76AFB0020F2BDD1
:106EA00038B504000D4618BF002D01D1222032BD97
:106EB00000202870FEF756FBDFF81C14096800E07C
:106EC000896829B12A781AB9A142F9D1012129701A
:106ED000FEF74EFB002032BD70B506000C4618BF11
:106EE000002C01D1222070BDFEF73CFB054600F0CE
:106EF000B2F970692060DFF8E003006805E0B0B126
:106F000021684269511821608068B042F7D10BF0C6
:106F1000F2FCDFF8C8633168401A216888420AD25F
:106F20000BF0E9FC2168081A3168081804E000F049
:106F300030F8032070BD0020206000F02AF8002007
:106F400070BDF8B507460C460026FEF70BFB05465C
:106F5000DFF88403006800E08068B0B141698E19F1
:106F6000C188B942F8D10BF0C6FCDFF870733968FC
:106F7000401AB04205D20BF0BEFC301A39680E1828
:106F800000E000262660284686E700F002F81B2075
:106F9000F2BD2846FEF7ECBADFF8540300787047DC
:106FA00038B5FEF7DFFA04460BF0A5FC054620468F
:106FB000FEF7DEFA284632BD70B5FEF7D3FA064674
:106FC0000BF099FC0546DFF81803048801200BF04C
:106FD000DEFC18B10BF08FFC0546641C00F003F8D2
:106FE0002146284670BD3046FEF7C2BADFF8F402EB
:106FF0000068704710B50C46BC49096881420CD343
:10700000B8490968A1FB00014FF47A7200230BF024
:1070100007FD401C2060002010BD212010BD70B570
:107020004FF47A71A1FB0045AE480668304600F087
:1070300067F900282046294607D0B6FA86F2C2F141
:107040001F02BDE870400BF063BD32460023BDE86F
:1070500070400BF0E5BCF8B51646A64AA64B99421F
:1070600020D828BF90421DD24FF47A72A2FB00456F
:1070700002FB01559B480768384600F041F900289B
:107080002046294606D0B7FA87F2C2F11F020BF05C
:107090003FFD03E03A4600230BF0C2FCC6E90001C5
:1070A0000020F2BD2120F2BD2DE9F0470546DFF8B2
:1070B0002882E8070AD58A480188491C018000F027
:1070C000CAF8D8F8000008B100F0A7F8A80763D5FF
:1070D0000BF011FC05460024A246804F38682E1A9A
:1070E00038E0314604463D604269914209D3037954
:1070F00094F804C0634538BF0446891A80680028A4
:10710000F2D14846FEF734FA6069A6EB0009002088
:107110006061FEF727FA0646204600F063F8FFF7A5
:1071200062FF206940B1FEF71DFA0646216920463C
:1071300000F034F8FFF757FFE268100002D0216832
:10714000204690470AF1010A0BF0D5FB00EB09013C
:107150004E1B0546FEF706FA8146D8F8000010B12E
:1071600041698E42BDD2BAF1010F03BFE188022905
:1071700001210021614A117030B14169891B4161CF
:107180003D6000F04AF802E002200BF0ECFB4846BC
:10719000BDE8F047FEF7ECB9BDE8F087F0B5416116
:1071A0004D4A1368D3B100245D69A94206D22DB1BE
:1071B0004E1B09D11E790779BE4205D2491B416198
:1071C0001C469B68002BEFD1002C14BFA060106000
:1071D0001A0005D05C69611A596101E01060002253
:1071E0008260F0BD00213C4A136801E019469B68AB
:1071F000002B18BF8342F9D1834201D0022070478F
:107200008368002914BF8B601360816819B14A69D3
:107210004069801848610020704738B52E4C2F48CF
:107220000068216849690D1802200BF08FFB284681
:107230000BF067FB20680021002283799B0701D5B2
:10724000012205E0806818B1436959180229F4D376
:107250002748027031BD10B50BF04DFB1E4909687F
:107260001E4A41B11368C31A4C699C422EBFE31AEF
:10727000001B00234B61106010BD70B504460E4624
:10728000154605982071049820600020A0602561B3
:10729000E3600698E0804EB900206061E26810006B
:1072A00002D02168204690478DB12E46FEF75AF94C
:1072B0000546FFF7D0FF31462046FFF76FFF06482F
:1072C0000068A04208BFFFF7A8FFFFF762FE00209A
:1072D00070BD000084FF0020DCBA0020E0BA00206E
:1072E00010FF0020D8BA002018FCFFFFE4BA0020ED
:1072F00085FF0020F0A7C64B3789410086FF00209C
:1073000020B1411E084201D1012070470020704782
:10731000002807D4012100F01F0291407E4A400955
:1073200042F8201070477D4988420FBF4FF0FF316F
:107330004FF6FF717A4A90420BD07A4B01D09842B7
:1073400007D0904218BF984202D0774A904200D0AE
:1073500000210846704730B589B074480FC86C46A4
:1073600084E80F0072480FC804AC84E80F000220C4
:107370008DF81600694C04AA002120460BF059FC38
:107380002046FFF7D0FF206B4FF6FF70E061002032
:10739000ADF80200674D694620460BF0F6FB06206B
:1073A00008F0B8FEBDF902104A1CB0FBF2F02860EC
:1073B000491CADF8021009B2B1F5806F02DA5E49DE
:1073C0008842E8D20F2008F0A5FE2A685B49B1FB8D
:1073D000F0F35B480021E3FB02015A4A00230BF063
:1073E0001FFB594908600020584900F0BDF80620ED
:1073F000FFF78EFF402056490860002009B030BDDD
:1074000038B500F033F804460D4605E04FF6E85075
:1074100000F054F800F024F84FF6E95000218D42B6
:10742000F4D88442F2D2A0B200F048F8002032BD75
:1074300038B500F01BF804460D4605E04FF6E8505D
:1074400000F02BF800F00CF84FF6E95000218D42C7
:10745000F4D88442F2D2A0B200F01FF8002032BD6E
:107460003D484FF0FF3124184D41704731490968BC
:10747000334A0023E0FB012310461946314A00231A
:107480000BF0CEBA35480068C00605D5102031494A
:10749000086001202D490870704781B001000BD0B1
:1074A0002F490A6892B20B68ADF80030BDF8003081
:1074B0009B1A9BB28342F6D301B07047F8B5060021
:1074C00028D0FEF74FF80546144C676A1E4800683E
:1074D000864238BF06462046FFF725FF206BF0198D
:1074E00080B2A06610201B490860A06940F010001F
:1074F000A0612846FEF73CF81A48144904E00268E7
:1075000022F00402026030BF0A78002AF7D000207F
:1075100000F02AF8F1BD000080E200E000800440A5
:1075200000C0044000000540004005408075030095
:107530009075030070BB002081841E0000B0710BA9
:1075400020A1070040420F0074BB002089FF0020EB
:1075500000E100E014A004401802FFFF1480044082
:107560002480044010ED00E00870A06920F01000B5
:10757000A061704766480068000C00046549086017
:1075800062490860704700280FD44109624A52F8E6
:10759000212000F01F00C240D20706D55F4A52F8F2
:1075A0002110C14001F0010070470020704780B5F4
:1075B0000BF0A2FB18B18C215948FEF775F8594918
:1075C0005948BDE804400BF078BC000070B5044693
:1075D0000D46564E20002ED100204B490860012D4B
:1075E00008BF01200BF085FF6D1E032D45D8DFE895
:1075F00005F00212141F01210120FEF7E7F9FFF741
:1076000025F8307010B1A520FFF719F80120BDE86A
:1076100070400BF06EBF022100E004210120FEF754
:10762000D5F9FFF713F840B3BDE87040FFF713B882
:10763000052101201DE0307818B101213C4809F0F6
:107640002FF9012C0CBF012000200BF084FF641ED9
:10765000032C12D8DFE804F00207090B01200BF01D
:107660007AFF012104E0022102E0042100E005216B
:107670000020BDE87040FEF7A9B970BD38B52448B8
:1076800041680068084084B21F4D2C601A20FFF743
:107690007AFF18B91920FFF776FF10B144F4803053
:1076A00028600A20FFF76FFF18B1286840F4003007
:1076B000286031BD38B50024012808BF01240CD052
:1076C000022814BF0328022407D0042808BF03247B
:1076D00003D0052808BF0CF0EBF9164D2A4601210E
:1076E00020460BF0B6FB0CF025FAFEF7FAF80BF08B
:1076F0002FFB0CF021FA2A4600212046BDE8384035
:107700000BF0A7BBD6E7000088BB00208CBB002095
:1077100020C4034020E4034000E200E000E100E078
:10772000588403002C9A002080BB00208AFF002090
:107730000080014A4C840300302080F31188704798
:1077400070477047704770472DE9F04194B0044688
:107750000F4690461E460125012806D002281ED05D
:10776000202802D021281AD029E068462C49282256
:1077700004F0ACFA012C18BF202C08D0022C18BF42
:10778000212C04D0032C1CBF222C232C24D10197A4
:10779000ADF81080012E14D14FF4805015E00AA8E6
:1077A0002049242204F092FA68460AA9242204F00F
:1077B0008DFA1020ADF82400ADF82600DAE701209C
:1077C0000BE0022E03D14FF44050ADF80E00694695
:1077D00020460BF010FF0546E8B214B0BDE8F0817A
:1077E0000BF0D6BF80B50BF0DEFFC0B202BD0CF0CF
:1077F00025B880B50CF03EF8C0B202BD80B50CF0E3
:10780000D5F8C0B202BD0CB480B502AB0A46014641
:1078100005480CF0D2F9002002BC5DF80CFB00001A
:10782000B06B0300D86B0300293901000CF00EB9CE
:1078300010B50446FFF780FF200A00280B484FF2DE
:107840000F0108BF240204804180BFF35F8FBFF3A4
:107850004F8F07490A68074802F4E06202430A6052
:10786000BFF34F8F00BFFDE70348704700000020C3
:107870000CED00E00400FA05A88B002062F30F2253
:1078800062F31F42401810F0030308D0C91A1FD337
:10789000DB0748BF00F8012D28BF20F8022D130098
:1078A00030B414461546103928BF20E93C00FAD8F8
:1078B000490728BF20E90C0048BF40F8042D890083
:1078C00028BF20F8022D48BF00F8012D30BC7047BA
:1078D000C91818BF00F8012DCB0728BF00F8012DEB
:1078E000704770472DE9F34F81B0032903DB18007F
:1078F00008D0052904DA8649022002F04CFEA4E0F3
:1079000042F00402019802700124180005D0019889
:107910004370180A019988700324FEF74BFA019905
:107920000855611C0C98019A89B250544C1C4FF0B8
:10793000000ADDF838B008E03A464146019B1819C4
:1079400004F0B4F93C190AF1010A0D985FFA8AFAB9
:1079500010F80A60002E7AD04FF000090025C846C2
:10796000742E38DA5BF8048B4C2E1CBF532E622E1B
:1079700014D15BF8047BBFB24C2E06D1B9464FF64A
:10798000FF70814535D0022533E0532E31D15FFAA7
:1079900087F9B9F1FF0F2CD001252AE06C2E04D114
:1079A000404603F035F9871C13E0732E04D140469E
:1079B00003F029F9471C0CE0A6F130000A2838BF73
:1079C000A6F1300705D3A6F14100072820D2A6F181
:1079D0003707BFB20DE00027752E08BF012506D07E
:1079E000762E08BF022502D0782E0DD103255BF834
:1079F000049BBDF8080017FA84F16918884214DA6C
:107A00003346EA1943491DE0772E08BF0425EED01E
:107A100032464149022002F0BEFD16E0019901F80C
:107A20000490641C4FEA19296D1EA4B2E9B2002922
:107A3000F4D1002F87D0B8F1000F7FF47DAF33462B
:107A40003A463649022002F0A6FD002000E0A0B22E
:107A5000BDE8FE8F10B5324C2060324801803248BC
:107A600002603248036010BD10B584B00C4607A90F
:107A70000291069901910093134607E010B584B076
:107A80000C4606A902910193009200230246254864
:107A9000018823480068FFF725FF2349096808800B
:107AA000224909684C804FF4AA52CA8004B010BD24
:107AB00003461B4802681C48006801881B48006890
:107AC00003F01FBA0020F3E7154802681648006863
:107AD00001881648006803F0A0B900B583B0019290
:107AE0000F4A12680092104A126813880F4A1268EF
:107AF00003F0DEF90EBD0022EFE70C480068704786
:107B00000A4A13681871106841717047000000003C
:107B1000386803007C68030060680300B0680300F5
:107B2000ACA9002032F90020B0A90020B4A900209F
:107B300030E0C8480078022801DB012070470020AF
:107B4000704738B50446C34D2878A04203D021467B
:107B5000FDF7FEFE2C7031BD10B5BF4C207860B92A
:107B600000F018F80CF05AF90121217028B10188B1
:107B7000B1F5817F24BF007D2070207810BDB5490C
:107B8000097818B1022904DA022001E0022900DB99
:107B9000D7E7704738B5FFF7CCFF40BB0CF02AF9A8
:107BA0000246AE49012002F0F6FC0120FFF7E7FF94
:107BB000AB4C2078FF281AD10CF030F9B0B14088D6
:107BC0000006400E00F001052570FF221821A5488F
:107BD0000CF0D6F9012D0AD1FFF7BEFF052806DB10
:107BE000CC21A148BDE83440FDF75EBD207031BD19
:107BF00080B5FFF7CFFFBDE801400CF00FB9FF22C1
:107C00000C21984B11FB00F01844FFF737BE2DE90B
:107C1000F04F87B08046894616464FF0000B03A808
:107C20009249B1E80C10A0E80C10FFF7B3FFFFF782
:107C300093FF04468B4DDFF828A29AF80000012834
:107C400055D1022C53DBB8FBF4F004FB1080002864
:107C50005BD000200C2141436A5812F1010F04D07F
:107C60006918097A5118414503D0401C0228F1DBFC
:107C700003E0C0B20190FF2805D140F22D117A48EF
:107C8000FDF712FD33E00C21484302902F18387A9B
:107C9000211ACAB2B24234BFC9B2F1B20091009AFD
:107CA00049463818001D04F001F80098361A387A51
:107CB00000990818387200998844C0B2A04213D1C4
:107CC0000320FFF73EFF2246391D029828580CF08A
:107CD00029F900F0CDF8009881440198C0B2FFF76F
:107CE0008EFF5FEA0B004DD1B0B200284AD09AF85F
:107CF0000000012809D1B8FBF4F004FB108020B18A
:107D00004FF4AB715848FDF7CFFC9AF800000128FA
:107D100017D118FA86F0B0FBF4F104FB110282B11E
:107D200004FB1104E4B2001B03902246B6B209EB37
:107D300006006142014404A803F0B8FF8DF8144026
:107D4000361BB0B248B10320FFF7FBFEB2B2494682
:107D500040460CF0E7F800F08BF85FEA0B0011D119
:107D6000039810F1010F0DD000200C2111FB00F33E
:107D7000E95811F1010F09D0401CC0B20228F4DB10
:107D80004FF0010B584607B0BDE8F08F0C2203A955
:107D9000E818FEF751FAF5E770B531480078012888
:107DA0001DD1FFF7F7FE00242E4D0C2000FB04F63A
:107DB000A85910F1010F0FD00320FFF7C2FEFFF703
:107DC000CBFE0246A819011DA8590CF0ABF80646D7
:107DD00000F04FF8300003D1641C022CE5DB0020DA
:107DE00070BD70B504460D461646FFF7D3FE04205D
:107DF000FFF7A7FE3246294620460CF09FF80446BE
:107E000000F037F8204670BD2DE9F04104460D46DC
:107E1000FFF7C0FE0520FFF794FE294620460CF030
:107E200099F8804600F025F800270E4E0C20784384
:107E3000305810F1010F07D0A04205D3291988420C
:107E40003CBFF8B2FFF7DBFE7F1C022FEEDB4046A3
:107E5000BDE8F0818CFF00208DFF00207C840300B2
:107E60000E9F002090BB00207084030090840300CC
:107E70008346022065E680B5FFF78CFEBDE8014031
:107E80000CF074B810B582B0059C1CB1049C009431
:107E900003F02FF813BD10B5DFF85C2A002305E0CE
:107EA000C45C6240DFF8544A62435B1C8B42F7DBE0
:107EB000104610BD10B50C460F2807DA1423C2B2C5
:107EC0002F212046BDE81040FEF7BDBC10BD0F2895
:107ED00005DA14230A46C1B22F20FEF7E2BC704730
:107EE00080B5902804D10CF069F8BDE801405BE34F
:107EF00001BD30B585B00024DFF8045A00208DF8AC
:107F0000010069462046FFF7D5FF9DF8010050B1FA
:107F10009DF8000018B91821614329440874641CB5
:107F2000A4B20F2CEADBDFF8DC09048000F03CFB94
:107F300005B030BDDFF8CC09008870472DE9F04F5F
:107F4000CFB00024A046A146A24600250CE0FAB21C
:107F5000092A07D20020C6E90200194606F10800E6
:107F6000FEF76AF96D1CADB2DFF89809008885420A
:107F700080F2D38005A92846FFF79CFFFDF72EFB72
:107F8000DFF87C1918226A438E183168471A9DF869
:107F900014000028E6D19DF815000100E2D0FCF79E
:107FA000E9FF0028DED0BDF820004FF47A71484385
:107FB0008742D7D3307C40B9BDF822000100D1D030
:107FC0004FF47A7148438742CCD304A80390FF2032
:107FD00002900EA80190BDF81C0000909DF81A3088
:107FE000BDF81820BDF816109DF81500FEF79FFE8D
:107FF0000028B7D19DF81000FCF7C8FC0028B1D1CB
:10800000FF220EA99DF810000AF014FC0700A9D069
:10801000FA1CDCB1618820799DF81530834204BFD9
:10802000BDF816308B420FD19DF81A30DB094B4555
:1080300004BFBDF81C30434506D1DFF8CC381B889F
:10804000D2B2D218924543DA00F071F8FFF755FD2D
:1080500004469DF81A005FEAD01914BF00200820DA
:108060008EA100910A23BDF81C20BDF81610FFF761
:10807000FBFC9DF8150020714FF4AA50E080BDF87C
:108080001C804FF0FF0A4FF0000B0AA9584603F07E
:1080900069FC002802BF9DF829009DF81510884250
:1080A00002BFBDF82A00BDF8161088420BD1224647
:1080B0009DF835109DF82800FDF792FF5246824644
:1080C000924588BF92460BF1010BBBF10C0FDCDB34
:1080D000BDF8180002F02CFD9DF8100002F019FD0B
:1080E00039460EA802F055FD00203074FDF776FAEF
:1080F0003060002000900EAB9DF81000412818BFA2
:1081000042287FF424AF791EC9B20DF13900FFF780
:10811000C2FE00906B4604221CE71CB161882079E6
:1081200000F005F800F040FA4FB0BDE8F08F10B550
:108130000C46FDF74DFC08B9032C0BD1DFF8CC073A
:10814000FFF7B6FCB42808BFFFF7BCFCBDE8104041
:10815000FFF7BABC10BD2DE9F04F87B00446277D6C
:108160000025607D002807BF0820402100208021D5
:108170008DF8041049A10091072300F044F9A28969
:10818000BFB2F81C904280F28480A068C15D8DF877
:1081900005107F1CB9B202F02CFD8046BF1C9DF873
:1081A000050010B1012867D071E04FF0000BA06806
:1081B000BFB2C65D7F1CA289B9B202F01AFD81462A
:1081C000BF1C00F06DF88246BF1C3046FDF7BEFFB5
:1081D00070B930460AF01EFB8DF800000346A289F4
:1081E000B9B2A06802F0EAFC83469DF800003F188F
:1081F0002068218A00919DF80430424641884079E8
:10820000FCF78BFC00281EBF8078B0428D2625D15C
:10821000482E18BF4C2E03D0502E18BF512E01D11E
:108220008C261BE0206840798DF809002068408882
:10823000ADF80A00ADF80C809DF804008DF80E0032
:10824000208AADF81000ADF81490ADF816A0CDF866
:1082500018B002A800F03EFA060090D0304602F0B6
:1082600058FC9DF8050002F054FC404602F060FC0A
:108270000125852E83D110E000F012F8BF1C0346C3
:108280009DF804204146204600F0C9FAE4E785261F
:10829000E4E715B9002002F03CFCAEE0000000006D
:1082A000A289B9B2A06802F0A4BC2DE9F04F87B052
:1082B0000446267D607D002807BF08204FF0400857
:1082C00000204FF08008B7A10091092300F09BF82F
:1082D000DFF8309608E0862002F01BFC284602F00A
:1082E00018FC384602F024FCA289B6B2F01C824287
:1082F000C0F28380A068855D761CB1B202F079FC83
:108300000746B61C012D0ED82068218A00914346ED
:108310003A4641884079FCF700FC5FEA000ADAD06F
:108320004FF0000B03E08520D6E70BF1010B5FFA5D
:108330008BFB5846B9F80020904259D201A9FFF7AB
:10834000B9FD9DF80400A84201BF20689DF8051002
:1083500042799142E9D1BDF806104288914204BFAA
:10836000BDF80810B942E0D19DF80A10414502BF9E
:10837000BDF80C10228A9142D7D19DF8041049B162
:10838000BDF81010E288914202BF9DF812100079EA
:108390008142CAD1002002F0BCFB284602F0B9FBA2
:1083A000384602F0C5FB15B1012D23D09CE79AF8A1
:1083B000020002F0AEFBBDF8100002F0B9FBBDF800
:1083C000120002F0B5FB9AF80200FDF7BFFE00288C
:1083D0008AD19AF802000AF01DFA0546059FE8B214
:1083E0000028E3D0F8B202F094FB3F0A6D1EF6E7D6
:1083F0008B2071E7BDF8140074E7FDF782FD0120C2
:1084000007B0BDE8F08F228A21684988FFF72CBBAE
:1084100080B503E0401E80B200F01BF9DFF8E404F1
:1084200000880100F6D10020DFF8E414087002BDD6
:108430002DE9F0478AB08046894692461E460025BF
:10844000DFF8C074129C00E06D1C3988A8B2884225
:1084500066D204A9FFF72EFD9DF81000002804BF86
:108460009DF811004045EFD1BDF81200484504BF0A
:10847000BDF814005045E7D19DF81600B04204BF86
:10848000BDF81800A042DFD100200190139C2046C7
:108490000AF0C0F90146149E3046412C18BF422C08
:1084A00008D102F0B0FB0146701CFFF7F4FC01900C
:1084B00001A80421DFF84824ADB218236B43D51876
:1084C0000091D5E90223FDF78FFACDE90201089862
:1084D000009002AB52464946404603F0FAFD0028A0
:1084E000424620D0DFF82C14012002F054F8204638
:1084F000FDF72CFE012806D1DDE902230024A3426A
:1085000008BFA24208D158B9DDE90223089800212A
:108510008B4201D8824203D30120287400F044F832
:108520000AB0BDE8F087DFF8F013012002F033F85D
:10853000F6E710B542784B789A4202BF42884B88E2
:108540009A421AD182888B889A4202BF82798B79AB
:108550009A4212D102890B899A4202BF02780C78A2
:10856000A2420AD13AB182898B899A4202BF807BAA
:10857000897B884201D1012010BD002010BD38B593
:108580004FF6FF74DFF87C5329880F2907DA0C4671
:1085900001462046FFF79BFC2888401C2880204687
:1085A00032BD0000000000002DE9F04F85B04FF013
:1085B000FF34A3460026DFF848734FF47A78DFF8DB
:1085C000449304E0681A584598BF8346761CB9F86E
:1085D0000010B0B2884225D200F073F89DF8000078
:1085E0000028F3D1BDF80C0008FB00FABDF80E001E
:1085F00008FB00F5FCF7F2FFB6B2182101FB06F20A
:10860000B958411A20463A44127C32B18A4501D207
:108610000020D8E7AAEB0100D5E7002DD3D08D428A
:10862000D0D2F5E7BA4C1BF1010F09D05A46BB492D
:10863000022001F0B0FF59462046FBF77CFF05E021
:10864000B749022001F0A7FF0020207005B0BDE867
:10865000F08FF0B591B00446AA4D298888422ED2F9
:1086600000F02FF800208DF801002888401E288097
:1086700081B2A14202D1694620461BE005A980B221
:10868000FFF718FC18279E4E28887843304490EC5A
:10869000060B0AA880EC060B05A92046FFF717FC7D
:1086A00007FB04F030440AA991EC060B80EC060BA2
:1086B00069462888FFF70BFC6846FDF760F911B0A2
:1086C000F0BD6946FFF7F6BB80B5FFF7C2FFBDE816
:1086D000014069E72DE9F04286B00446894D2E88B5
:1086E0004FF0010920890090A379A2886188607801
:1086F000FCF713FA08B986208EE0E089010004D067
:10870000A189884238BF8720F6D3002700E07F1C6C
:108710002988B8B2884222D201A9FFF7CBFB9DF885
:108720000400002802BF9DF8050061788842EED160
:10873000BDF806006188884202BFBDF80800A18824
:108740008842E4D19DF80A00A179884202BFBDF8B1
:108750000C0021898842DAD14FF000093E46E089B9
:108760004FF6FF71884207D1B9F1000F04BFB0B2D4
:10877000FFF7AAFF00204FE00027B6B2002804BF91
:10878000A08988420AD11422214601A8FDF754FD90
:1087900001A80BF064FC08B1012702E0B9F1000F59
:1087A00016D00F2EA8BF892036DA00208DF80400DD
:1087B00060788DF805006088ADF80600A088ADF8F7
:1087C0000800A0798DF80A002089ADF80C003FB9A7
:1087D000A089ADF81000E089ADF81200206905907D
:1087E00001A8FDF7CCF8040015D12888864204BF03
:1087F000401C2880182000FB06F5414FFCF7EEFED8
:10880000785100207A19C2E9020001A93046FFF729
:108810005EFBFFF7C9FE204606B0BDE8F0822DE9F9
:10882000F04786B00446884691469A46354D2E88D4
:10883000002700E07F1C2988B8B2884229D2FFF7C0
:1088400040FF9DF80000012801BF20689DF801103D
:1088500042799142EED1BDF802104288914204BFA4
:10886000BDF804104145E5D19DF80610494502BF09
:10887000BDF80810228A9142DCD1BDF80C10E288C4
:10888000914202BF9DF80E1000798142D2D13E463E
:108890001CE00F2EA8BF89202ADA01208DF80000E5
:1088A000206840798DF8010020684088ADF802000A
:1088B000ADF804808DF80690208AADF80800E088B5
:1088C000ADF80C00206800798DF80E00ADF810A00E
:1088D0006846FDF754F8040009D12888B1B28142F6
:1088E00004BF401C28806946B0B2FFF7F0FA20466A
:1088F00006B0BDE8F0870000C59D1C819301000112
:10890000D89F002004FF002002FA0020857E00008E
:1089100090AE0020CC6C0300E46C0300086D0300F3
:10892000286D030038B5FEF707FF0BF0E5FB78B1C3
:10893000FDF717F860B1094C2078FBF773FF054687
:108940002078FBF7B0FF3DB1BDE83140FDF708B836
:10895000BDE83140FCF7C5BF31BD0000A7FE0020D7
:108960007047704780B500F094F8BDE8014094E08E
:10897000FEB5044601F0C4FC0646204601F0D0FCDA
:108980009DF800100022064203D186F0010318432F
:1089900001D10198027820464FF6FF7506B32128D1
:1089A0001EDA42233F4E022A09DA5A43324432F891
:1089B0001030AB4214D05B1C22F8103010E00FD105
:1089C000002206EB400703FB02FC37F80CE0AE4543
:1089D0001CBF0EF1010E27F80CE0521C022AF2DB3C
:1089E000314F37F81020314B33F810C09445B64161
:1089F000F643F60FAC451CBF0CF1010C23F810C078
:108A0000092818BF0B280AD1BF8AB3F814C001EB9C
:108A10000C0EBE45AEBF9F82614499820DE01D28B9
:108A20000BD133F8107001EB070C9445BDBF6918EA
:108A3000C91923F8101023F8102033F810009042C1
:108A400003D316B92046FCF782FF00261848815D43
:108A5000A14204D0761CF6B2112EF8DBF7BD112E20
:108A600016DAFDF710FD044612480078844203DB55
:108A7000DD211148FCF718FE1048222111FB04F1FA
:108A8000084430F81610A9421CBF491C20F81610E3
:108A9000F7BD5221054802F0D3B8FF225221024807
:108AA0000BF06EBA74BC0020FCBB0020A8BB0020F9
:108AB00098850300209F00208885030050BC00207B
:108AC000DFF8C419C873704770B5DFF8C05929784A
:108AD0003824DFF8BC693068614301448A78112A80
:108AE00004D0B421DFF8AC09FCF7DEFD287831684A
:108AF000412214FB00F40819827070BD10B50220E9
:108B0000FDF7C4FCFDF7C9FCDFF88039DFF8800908
:108B10001C78016838204443DFF86C290819417833
:108B2000042903D1107C401D107405E04FF47A71C4
:108B300002F11800FBF7C5FDBDE81040FDF7AEBC23
:108B400080B5DFF854090BF0D3FBDFF850090BF0C8
:108B5000CFFB0BF035FFBDE801400BF040BFDFF865
:108B60002C29DFF82C091378016838204343C818F2
:108B7000807833281CBF4328532801D10120704737
:108B8000002070472DE9FF4E0CF036FC0CF083FE00
:108B9000002867D0DFF8F04800202076DFF80009D1
:108BA00001790C3001F07CF9207D18B10BF010FF39
:108BB000002020750021217300F056F80EF0B1FE60
:108BC0000CF08DFCDFF8DC0800274825DFF8BC68D6
:108BD000DFF8D4B800F1E40900F1E20A9BF80010D4
:108BE000F8B288423ED2FDF758FC30784FF6FF725B
:108BF00068433AF80010914218BF012107D10022C2
:108C00000821484401F03DFC411E8941C90F94F8F8
:108C1000202002F001020A4220D030780822684366
:108C20003AF80010ADF8081009EB00016846FDF7AE
:108C300003FB0A230A2201F087F9DFF8540896F8AB
:108C400000C00168382010FB0CFC02230B2201EB52
:108C50000C0000F12C0100200FF076F8FDF71EFC4F
:108C60007F1CBBE7BDE8FF8E10B5DFF82008017858
:108C7000DFF81C283820136810FB01F018444078F6
:108C8000032818BF04280CD148204143DFF81428DA
:108C90005018B0F8E2104FF6FF72914208BF03205F
:108CA00008D001F04DFB044601F053FB214602F0D1
:108CB000E6FD022001F072FB0FF0F4F800F096FFE1
:108CC0000EF05BFE01F0D8F920B10020BDE81040A5
:108CD00006F004BA10BDF8B5DFF8B077DFF8A847A2
:108CE000E07339783825DFF8A867306869430144B4
:108CF0008878032818BF002823D0332818BF4328BA
:108D000019D100F01FF83978306815FB01F54219C8
:108D10005178032918BF042907D10321801C41552C
:108D2000E07BBDE8F240FDF722BCE07BFDF71FFCD5
:108D3000BDE8F14098E721208870BDE8F1400FF0D0
:108D400020BBF1BDE37B13223FA103200FF0CFBC7A
:108D500038B5DFF8383701F003FA00214FF6FE701E
:108D60001519A9700FF0A3FE4FF6FF700FF0BBFEB0
:108D7000DFF81447FFF7E6FFE07BBDE83240FDF780
:108D8000F6BB00002DE9F8430546DFF8380B06F086
:108D9000A7F880462B4618222BA10320DFF8EC66AB
:108DA0000FF0A5FC002088F8000031783827DFF8A4
:108DB000E096D9F8000079437024084441780329EB
:108DC00018BF042924D00024290007D1416B91F851
:108DD0002400E8B181F824409D2017E0FF2D06D043
:108DE0004FF47A70454340462946FBF76AFC3278D7
:108DF000D9F8001017FB02F701F13400C15991F8BE
:108E0000240028B9012281F824209C20FDF7AFFB23
:108E100000F0ECFE2046BDE8F28338B5FBF74DFDCF
:108E20000446DFF8A01A06F05CF80546FF2818BFD4
:108E3000FDF733FB00202070FFF7A4FFFF2D01D0CA
:108E400001F02FBA31BD00004242000038B588B0B1
:108E500004460D46686916220790297C0691E88928
:108E60000590297B0491E87A039095F90A10032074
:108E700002912B89CDF800500BA1019323460FF0EE
:108E800036FC01200BF0D0FD287B00280CBF4FF6EC
:108E9000FE700FF000FE2B462246014609B001206D
:108EA000BDE83040ABE000004242387057424242D9
:108EB000574244002DE9F047DFF8D09599F800C0FB
:108EC0008846DFF8CC653824316814FB0CFC1D465D
:108ED00082468B1C13F80C0000284BD1170049D098
:108EE000042F47DC0FF00AFF002843D1FDF7D7FA23
:108EF00000283FD1FDF7D5FA08B1042F3ADB287BD3
:108F0000032817D14FF6FE71884515D1012F08BFF0
:108F10004FF0000810D0022F2CD10FF0BCFD4FF6FF
:108F2000FC71884202DA0FF0B6FD01E010F0ECF8B7
:108F3000804601E0012F1DD0BAF1000F0CD0287B34
:108F4000032838460CBF01210021012F18BF002043
:108F500010F0A6FB010030D12946404600F03BFF4F
:108F600001002AD1FDF797FAFDF77AFA20B1FDF753
:108F700098FA08B1702020E099F80020306814FBBE
:108F800002F4811C085D332818BF532803D0002049
:108F9000DFF8F4148873384600F0E0FE00214FF645
:108FA000FF7001F0E7F8DFF86017087820B1FDF7EF
:108FB00078FA08B911F04CFA0020BDE8F08738B50E
:108FC0000446DFF8C45408222146281DFDF734F971
:108FD000207BDFF8B8340228C8BF0020287028782A
:108FE0009421E9730028DFF8A8041C780CBF012144
:108FF00031210268382044431019817031BD38B5E1
:109000001C46FFF757FF010032D1207B0328204682
:1090100002D1BDE8324062E0FFF7D1FFDFF868041B
:109020000021818101F07AFA014640094FF00103E5
:1090300005D1DFF8E80B027803FA01F108E001F04E
:109040001F0140F0180003FA01F1052241EAC06156
:10905000062011F003FB01000AD0DFF83044DFF8EE
:10906000301425780B6838214D43002259198A7035
:1090700032BD10B50446DFF81424DFF81404137869
:10908000016838204343C8184078032818BF0428D3
:1090900006D1E079C10744BF94F9050011F08BFBBC
:1090A000207801F017F801F052F82289618903460F
:1090B000002011F0FDFB040004D09420FFF70BFE0C
:1090C000204610BDDFF8C0439420E0730220FDF776
:1090D000DCF900F081FD03202074002010BD10B5E4
:1090E00004460022082101F0CCF908B1012010BD8E
:1090F0000FF0D1FC00224FF6FF7100F0A7FE217C9B
:10910000204600F0CDFE6269E189207C0EF013FF5D
:10911000DFF87823DFF878031378016838204343B9
:10912000C8184178012908BF11F0E2F8FFF79CFD4B
:10913000002010BD2DE9FC4100F0A6F804460A44C9
:10914000907810B90FF0DAFD08B1702094E00BF0C0
:1091500074FCDFF834832CB10222214608F1200090
:10916000FDF76AF8684600F0CFFF08B1932083E06E
:109170009DF80030142274A103200FF0B8FA00F01B
:10918000E7FE010078D19DF8000000F0E7FD32789D
:1091900038686A43411C885C012818BF022808D03F
:1091A000032818BF042842D1002001F029F8002824
:1091B0003DD000F0E4FE327838686A43411C885C98
:1091C000032814BF042811F072FCFFF74DFD0120A5
:1091D00011F092FC01004FD13078396868434A1C85
:1091E000125C032A18BF042A0ED198F820309C077D
:1091F00008D50522DFF8C816012000F04FF801005D
:1092000039D039E0032A01D0042A34D1084400F1CE
:109210002C0102230B2201200EF096FD00F02EF807
:1092200091F82C20500726D50CF087FA23E03178EE
:109230003868132215FB01F5012441198A700020BA
:1092400088F80D0001F06AF9400903D101F066F9D0
:1092500084400BE001F062F9450901F05FF900F08C
:109260001F0045F01805844044EAC56405222146E4
:10927000082011F0F3F90020BDE8F6813178386854
:1092800015FB01F541197047804E32783825804F23
:1092900039686A437047FF2200E000002DE9FC4175
:1092A00016468046794A0D4600F0F0FD3FD087789B
:1092B000022F07D0032F3AD15FEA080102D10079CB
:1092C000810734D4332001F069F80CF095F815F0DB
:1092D000784F294612BF0522DFF8400902780620A0
:1092E00011F0BCF90446A0B9674F387301200BF0A8
:1092F0009BFB0FF0ECFB78805FEA080014BF0220B4
:1093000001203870381D00F017FF00207873BE73FD
:1093100002E0384601F042F85FEA0800314628468C
:1093200002D0FCF7D9FA03E0FCF7D5FA00E070248C
:109330000194009543462C2204A103200FF0D7F995
:109340002046BDE8F681000042420000424244420D
:109350000000000010B50BF04FF900F1100420469A
:1093600011F0CCFB4FF6FF5101402046BDE8104004
:1093700011F0CABB2DE9FF470646444D0FF08BFBA9
:109380002A788246DFF808913824D9F80000624331
:10939000411C885C032818BF042806D1F079C10756
:1093A00044BF96F9050011F006FA3078DFF8347CF6
:1093B0004FF0480800F08EFE7089002100F0DAFEC0
:1093C00001F06EF878B1BAF1000F03D04FF6F871E2
:1093D0008A4508DB0FF098FE2978824618FB01F1D8
:1093E0007A5A9042F6D050460FF061FB30890FF068
:1093F0007AFB06208DF8080000F0A9FE8DF8090020
:109400000020019000902878022302AA18FB00F0A7
:109410000121385A11F0C3FC064620B91820FFF785
:109420005AFC182022E0287818FB00F8304637F85C
:109430000810154F11F0DEFE387802281CBF3046A8
:10944000FFF788FF00F06DF8C8B19420F873022090
:10945000FDF71BF82A78D9F8000000F0B6FC08D117
:10946000C82100F031FA03203874002004B0BDE8B0
:10947000F0874FF4167100F027FA0020F4E79420EB
:10948000FFF729FC0120F1E734F80020D5FF002088
:10949000509B0020E4A2000034FF00202EFF00209B
:1094A00058F8002004FA0020209F002078B587B0EB
:1094B0000C4616461D4630B9204605F01FFD03A98F
:1094C00010F0C2FF03A80C99019007238DF80960E2
:1094D00001208DF80830360A8DF80B1000908DF8B9
:1094E0000A60042302AA0121204611F058FC06005C
:1094F00014D0214611F07EFE15B93046FFF72AFF41
:109500000D9808B930460AE0204605F006FD18B16E
:10951000304611F035FF01E000F003F8002008B0FC
:1095200070BD00220021304611F0B1BF2DE9F64F89
:1095300085B08A461C46104611F016FF0546BDF858
:10954000180003A9002711F066FC002C4FF6FF79E4
:10955000B84614BF4FF0010BBB460026BBF1000F0D
:1095600007D008B10DF10C086678760806F0010600
:1095700004E0BDF8180011F06BFE8046DFF8F01B28
:109580000978DFF8782C382012684143531C585C66
:10959000032818BF042800F0B38010986B1C1144F6
:1095A0001D5C8DF808A0680800F001008DF8090026
:1095B0002806887858BF45F08005022807D15FEA61
:1095C0000A0002BF496B91F82400002801D102274C
:1095D00030E040460FF0D0F9ADF80000BDF81800BB
:1095E00011F04CFE814608B94FF0010930000CBF64
:1095F0004FF0050A4FF0010ABBF1000F04D0201D07
:1096000011F07CFA834601E0BDF800B0BDF8180007
:1096100011F0BEFDCDF80490CDF800A02B465A46BF
:10962000414600F0010010F00BFF00F06FF881469A
:1096300008BF01279CB19DF8080018B9484600F002
:1096400065F802D1201D11F059FA0121019101465E
:10965000009733464A464046FFF728FF0AE0BDF828
:10966000180011F095FD3B464A46414600F00100C6
:1096700011F00FF99DF8090020B94FF6FF7140462F
:1096800012F05EFA002F3BD19DF8090028B1414647
:10969000484612F080FA12F0E3FA30001EBF484646
:1096A0004FF6FF71884219D005F028FCFF2815D02D
:1096B000DFF8BC7A97F800C0DFF8401B0A68382151
:1096C00011FB0CFC02F134034BF6FF7153F80C2034
:1096D000526832F810300B4022F8103084B10FF08D
:1096E000DAF90EB1002405E09DF80810002914BF36
:1096F00003240124014643464A46204612F0A0FCBA
:1097000007B0BDE8F08F0000329F00204FF6FF71D8
:10971000884270472DE9FE4F81460F46144601A945
:10972000384611F078FB834600200090384611F04F
:109730001BFE8246DFF82C5B5FEA090108D0BBF113
:10974000000F18BF0DF1040B11F05AFB064604E0A0
:10975000384611F07DFD83462E46384611F004FE52
:1097600002590DF10100009211F0C8F980469DF8F0
:1097700003405FEA090006D008222946304612F06D
:109780007BFC002823D1DFF8E86931783825DFF841
:109790001C2B15FB01F112685318D87818B19AF8F0
:1097A0000100830714D55FEA090011D0901C415CC9
:1097B000022908BF002C0BD140460FF078F90EF0BB
:1097C000B0F89923FFF7BFFA9920FCF7D0FE6EE0BE
:1097D00000F066FE0028DFF8D87A18BF002C05D00C
:1097E0009420FFF778FA0020387660E000F058FE09
:1097F00000285CD0584611F0E2FFFF28DFF8E4476C
:1098000018BF5FEA090106D1327848205946424321
:10981000A05A12F0C0F912F023FA317848205A46C3
:1098200041434046615ADFF8844A00F00FFBDFF8FD
:10983000840A90F90210090279843078216815FBB6
:1098400000F08A1C125C012A16BF312A1122432221
:10985000891C0A540220FCF718FEDFF85C0A016834
:1098600000F032F811F023F900203874317815FB3C
:1098700001F521684A19D07820B907F11800FAF7E4
:1098800015FF12E0B9F1000F06D09AF80100820727
:1098900002D5FFF777F908E0481C415D042904D19F
:1098A000052100F011F809203874AD21F97300F09A
:1098B000E3FB10B1002005F011FCBDE8F78F0000BC
:1098C00000F8FF0780F7002007F11800FAF7F9BE4B
:1098D0002DE9F04F88468DB0404611F045FD834696
:1098E0000922002112F0FAFB0546404611F0B0FCB7
:1098F000814602AB052205A9404612F047FC8DF8CF
:10990000000002282BD09DF8080000234519EDB275
:109910000BEB050A9AF8001005F11002D2B28DF88F
:1099200001104146012012F04BFC002817D09DF891
:1099300001003826DFF83878DFF8704901280FD0A9
:10994000022819D0042800F0CF80062822D007284A
:1099500000F0958008283AD07C2800F09780E9E054
:10996000404611F015FC009500234246002100F00E
:109970000100FFF7DBFDDDE000F0DFF8012B02BFA7
:10998000DFF82C190878002803D12A464146FFF752
:10999000C1FECFE0484605F0ABFA4FF6FF71054631
:1099A000884208D0404611F0F3FB2A46494600F0B1
:1099B000010010F059FF00F0C0F8022B06D1FCF7AF
:1099C00069FD4846FBF77DFFFCF768FDB2E00AF150
:1099D000010011F093F8ADF800000AF1030011F056
:1099E0008DF805460AF1060011F088F84FF6FF7170
:1099F00082468842EAD011F05AF83A7820687243D9
:109A0000811C8B5C132B08D100F0B9FA404611F091
:109A10001FFC0146284612F0BEF83A7820687243CF
:109A2000811C885C022818BF132821D150460FF0F2
:109A30003EF8BDF800000FF056F80021002000F0BD
:109A40002FFA4946284600F095FBDFF86808C078F1
:109A5000DFF868180F28B4BF401C0F20087000F012
:109A6000C5F8387816FB00F62068811C8A5D132A39
:109A700060D12321801C815510F062FE5AE09DF8D0
:109A8000001005AA40460AF0E5FF53E09AF80100ED
:109A9000652802BF0BF10201485D6D284AD140469E
:109AA00013350AF0C1FDE9B2814243D2082249468A
:109AB00003A8FCF7C1FB6A46E9B2404611F028F85A
:109AC000C0BBBDF80000A8B3DFF8F4470120207048
:109AD000FCF7E0FCBDF8001003A8FBF7E8FEFCF77C
:109AE000DDFC0020207025E006220021584612F0FF
:109AF000F5FA584411F002F804460FF2F8700088A5
:109B000000210191ADF80A00009102230DF10A0233
:109B10000121204611F043F906000BD0214611F037
:109B200069FB404611F034FB0022314600F0010091
:109B300012F059FB0DB0BDE8F08F3A78206816FBA3
:109B400002F6811C8B5D7047F8B50220FCF79EFC85
:109B5000FCF7A3FCDFF85847002020763825DFF813
:109B60001066DFF848770BF096FE40B1327839681E
:109B70006A430A44D07810B9FFF704F82BE00BF0E1
:109B80008AFE10B900F08CFC68B1207C58B100F05E
:109B900023F8207C411E2174FCF77DFC0146002047
:109BA00005F023FC17E0327838686A43811C8B5C2F
:109BB000132B0DD000F074FC50B93278386815FBC7
:109BC00002F5811C485D11281CBF4328412802D1A1
:109BD000E07BFFF780F84BE2C82104F11800FAF7A8
:109BE00070BD0020DFF8C8160874704780B5FCF718
:109BF0007DFCFF2807D000F065FA416B91F8240046
:109C000010B1012000E0002010F0D8FDDFF8A00620
:109C100000214180001DC0E9001101BD339F0020DB
:109C20002DE9F8430F460446DFF884560121DFF89A
